{
  "_format": "hh-sol-artifact-1",
  "contractName": "ResearchPaper",
  "sourceName": "contracts/ResearchPaper.sol",
  "abi": [
    {
      "inputs": [
        {
          "internalType": "string",
          "name": "name",
          "type": "string"
        },
        {
          "internalType": "string",
          "name": "symbol",
          "type": "string"
        },
        {
          "internalType": "address",
          "name": "_originProtocol",
          "type": "address"
        }
      ],
      "stateMutability": "nonpayable",
      "type": "constructor"
    },
    {
      "anonymous": false,
      "inputs": [
        {
          "indexed": true,
          "internalType": "address",
          "name": "owner",
          "type": "address"
        },
        {
          "indexed": true,
          "internalType": "address",
          "name": "approved",
          "type": "address"
        },
        {
          "indexed": true,
          "internalType": "uint256",
          "name": "tokenId",
          "type": "uint256"
        }
      ],
      "name": "Approval",
      "type": "event"
    },
    {
      "anonymous": false,
      "inputs": [
        {
          "indexed": true,
          "internalType": "address",
          "name": "owner",
          "type": "address"
        },
        {
          "indexed": true,
          "internalType": "address",
          "name": "operator",
          "type": "address"
        },
        {
          "indexed": false,
          "internalType": "bool",
          "name": "approved",
          "type": "bool"
        }
      ],
      "name": "ApprovalForAll",
      "type": "event"
    },
    {
      "anonymous": false,
      "inputs": [
        {
          "indexed": false,
          "internalType": "uint256",
          "name": "_fromTokenId",
          "type": "uint256"
        },
        {
          "indexed": false,
          "internalType": "uint256",
          "name": "_toTokenId",
          "type": "uint256"
        }
      ],
      "name": "BatchMetadataUpdate",
      "type": "event"
    },
    {
      "anonymous": false,
      "inputs": [
        {
          "indexed": true,
          "internalType": "address",
          "name": "citationRegistry",
          "type": "address"
        }
      ],
      "name": "CitationRegistryUpdated",
      "type": "event"
    },
    {
      "anonymous": false,
      "inputs": [
        {
          "indexed": false,
          "internalType": "uint256",
          "name": "_tokenId",
          "type": "uint256"
        }
      ],
      "name": "MetadataUpdate",
      "type": "event"
    },
    {
      "anonymous": false,
      "inputs": [
        {
          "indexed": true,
          "internalType": "address",
          "name": "previousOwner",
          "type": "address"
        },
        {
          "indexed": true,
          "internalType": "address",
          "name": "newOwner",
          "type": "address"
        }
      ],
      "name": "OwnershipTransferred",
      "type": "event"
    },
    {
      "anonymous": false,
      "inputs": [
        {
          "indexed": true,
          "internalType": "uint256",
          "name": "citingPaperId",
          "type": "uint256"
        },
        {
          "indexed": true,
          "internalType": "uint256",
          "name": "citedPaperId",
          "type": "uint256"
        },
        {
          "indexed": false,
          "internalType": "uint256",
          "name": "citationId",
          "type": "uint256"
        }
      ],
      "name": "PaperCited",
      "type": "event"
    },
    {
      "anonymous": false,
      "inputs": [
        {
          "indexed": true,
          "internalType": "uint256",
          "name": "paperId",
          "type": "uint256"
        },
        {
          "indexed": true,
          "internalType": "address",
          "name": "researcher",
          "type": "address"
        },
        {
          "indexed": false,
          "internalType": "string",
          "name": "title",
          "type": "string"
        },
        {
          "indexed": false,
          "internalType": "string",
          "name": "ipfsHash",
          "type": "string"
        }
      ],
      "name": "PaperRegistered",
      "type": "event"
    },
    {
      "anonymous": false,
      "inputs": [
        {
          "indexed": true,
          "internalType": "uint256",
          "name": "paperId",
          "type": "uint256"
        },
        {
          "indexed": true,
          "internalType": "address",
          "name": "verifier",
          "type": "address"
        }
      ],
      "name": "PaperVerified",
      "type": "event"
    },
    {
      "anonymous": false,
      "inputs": [
        {
          "indexed": true,
          "internalType": "address",
          "name": "from",
          "type": "address"
        },
        {
          "indexed": true,
          "internalType": "address",
          "name": "to",
          "type": "address"
        },
        {
          "indexed": true,
          "internalType": "uint256",
          "name": "tokenId",
          "type": "uint256"
        }
      ],
      "name": "Transfer",
      "type": "event"
    },
    {
      "anonymous": false,
      "inputs": [
        {
          "indexed": true,
          "internalType": "address",
          "name": "verifier",
          "type": "address"
        }
      ],
      "name": "VerifierAdded",
      "type": "event"
    },
    {
      "anonymous": false,
      "inputs": [
        {
          "indexed": true,
          "internalType": "address",
          "name": "verifier",
          "type": "address"
        }
      ],
      "name": "VerifierRemoved",
      "type": "event"
    },
    {
      "inputs": [
        {
          "internalType": "address",
          "name": "_verifier",
          "type": "address"
        }
      ],
      "name": "addVerifier",
      "outputs": [],
      "stateMutability": "nonpayable",
      "type": "function"
    },
    {
      "inputs": [
        {
          "internalType": "address",
          "name": "to",
          "type": "address"
        },
        {
          "internalType": "uint256",
          "name": "tokenId",
          "type": "uint256"
        }
      ],
      "name": "approve",
      "outputs": [],
      "stateMutability": "nonpayable",
      "type": "function"
    },
    {
      "inputs": [
        {
          "internalType": "address",
          "name": "owner",
          "type": "address"
        }
      ],
      "name": "balanceOf",
      "outputs": [
        {
          "internalType": "uint256",
          "name": "",
          "type": "uint256"
        }
      ],
      "stateMutability": "view",
      "type": "function"
    },
    {
      "inputs": [],
      "name": "citationRegistry",
      "outputs": [
        {
          "internalType": "contract CitationRegistry",
          "name": "",
          "type": "address"
        }
      ],
      "stateMutability": "view",
      "type": "function"
    },
    {
      "inputs": [
        {
          "internalType": "uint256",
          "name": "_citingPaperId",
          "type": "uint256"
        },
        {
          "internalType": "uint256",
          "name": "_citedPaperId",
          "type": "uint256"
        }
      ],
      "name": "citePaper",
      "outputs": [
        {
          "internalType": "uint256",
          "name": "",
          "type": "uint256"
        }
      ],
      "stateMutability": "nonpayable",
      "type": "function"
    },
    {
      "inputs": [
        {
          "internalType": "uint256",
          "name": "tokenId",
          "type": "uint256"
        }
      ],
      "name": "getApproved",
      "outputs": [
        {
          "internalType": "address",
          "name": "",
          "type": "address"
        }
      ],
      "stateMutability": "view",
      "type": "function"
    },
    {
      "inputs": [
        {
          "internalType": "uint256",
          "name": "_paperId",
          "type": "uint256"
        }
      ],
      "name": "getPaperCoAuthors",
      "outputs": [
        {
          "internalType": "address[]",
          "name": "",
          "type": "address[]"
        }
      ],
      "stateMutability": "view",
      "type": "function"
    },
    {
      "inputs": [
        {
          "internalType": "uint256",
          "name": "_paperId",
          "type": "uint256"
        }
      ],
      "name": "getPaperDetails",
      "outputs": [
        {
          "internalType": "string",
          "name": "ipfsHash",
          "type": "string"
        },
        {
          "internalType": "address",
          "name": "researcher",
          "type": "address"
        },
        {
          "internalType": "uint256",
          "name": "publishDate",
          "type": "uint256"
        },
        {
          "internalType": "string",
          "name": "title",
          "type": "string"
        },
        {
          "internalType": "uint256",
          "name": "citationCount",
          "type": "uint256"
        },
        {
          "internalType": "bool",
          "name": "isVerified",
          "type": "bool"
        }
      ],
      "stateMutability": "view",
      "type": "function"
    },
    {
      "inputs": [
        {
          "internalType": "uint256",
          "name": "_paperId",
          "type": "uint256"
        }
      ],
      "name": "getPaperKeywords",
      "outputs": [
        {
          "internalType": "string[]",
          "name": "",
          "type": "string[]"
        }
      ],
      "stateMutability": "view",
      "type": "function"
    },
    {
      "inputs": [
        {
          "internalType": "string",
          "name": "_keyword",
          "type": "string"
        }
      ],
      "name": "getPapersByKeyword",
      "outputs": [
        {
          "internalType": "uint256[]",
          "name": "",
          "type": "uint256[]"
        }
      ],
      "stateMutability": "view",
      "type": "function"
    },
    {
      "inputs": [
        {
          "internalType": "address",
          "name": "_researcher",
          "type": "address"
        }
      ],
      "name": "getPapersByResearcher",
      "outputs": [
        {
          "internalType": "uint256[]",
          "name": "",
          "type": "uint256[]"
        }
      ],
      "stateMutability": "view",
      "type": "function"
    },
    {
      "inputs": [
        {
          "internalType": "address",
          "name": "owner",
          "type": "address"
        },
        {
          "internalType": "address",
          "name": "operator",
          "type": "address"
        }
      ],
      "name": "isApprovedForAll",
      "outputs": [
        {
          "internalType": "bool",
          "name": "",
          "type": "bool"
        }
      ],
      "stateMutability": "view",
      "type": "function"
    },
    {
      "inputs": [
        {
          "internalType": "uint256",
          "name": "_paperId",
          "type": "uint256"
        },
        {
          "internalType": "address",
          "name": "_researcher",
          "type": "address"
        }
      ],
      "name": "isCoAuthor",
      "outputs": [
        {
          "internalType": "bool",
          "name": "",
          "type": "bool"
        }
      ],
      "stateMutability": "view",
      "type": "function"
    },
    {
      "inputs": [],
      "name": "name",
      "outputs": [
        {
          "internalType": "string",
          "name": "",
          "type": "string"
        }
      ],
      "stateMutability": "view",
      "type": "function"
    },
    {
      "inputs": [],
      "name": "originProtocol",
      "outputs": [
        {
          "internalType": "contract IOriginProtocol",
          "name": "",
          "type": "address"
        }
      ],
      "stateMutability": "view",
      "type": "function"
    },
    {
      "inputs": [],
      "name": "owner",
      "outputs": [
        {
          "internalType": "address",
          "name": "",
          "type": "address"
        }
      ],
      "stateMutability": "view",
      "type": "function"
    },
    {
      "inputs": [
        {
          "internalType": "uint256",
          "name": "tokenId",
          "type": "uint256"
        }
      ],
      "name": "ownerOf",
      "outputs": [
        {
          "internalType": "address",
          "name": "",
          "type": "address"
        }
      ],
      "stateMutability": "view",
      "type": "function"
    },
    {
      "inputs": [
        {
          "internalType": "uint256",
          "name": "",
          "type": "uint256"
        }
      ],
      "name": "papers",
      "outputs": [
        {
          "internalType": "string",
          "name": "ipfsHash",
          "type": "string"
        },
        {
          "internalType": "address",
          "name": "researcher",
          "type": "address"
        },
        {
          "internalType": "uint256",
          "name": "publishDate",
          "type": "uint256"
        },
        {
          "internalType": "string",
          "name": "title",
          "type": "string"
        },
        {
          "internalType": "uint256",
          "name": "citationCount",
          "type": "uint256"
        },
        {
          "internalType": "bool",
          "name": "isVerified",
          "type": "bool"
        }
      ],
      "stateMutability": "view",
      "type": "function"
    },
    {
      "inputs": [
        {
          "internalType": "string",
          "name": "_ipfsHash",
          "type": "string"
        },
        {
          "internalType": "string",
          "name": "_title",
          "type": "string"
        },
        {
          "internalType": "string",
          "name": "_tokenURI",
          "type": "string"
        },
        {
          "internalType": "string[]",
          "name": "_keywords",
          "type": "string[]"
        },
        {
          "internalType": "address[]",
          "name": "_coAuthors",
          "type": "address[]"
        }
      ],
      "name": "registerPaper",
      "outputs": [
        {
          "internalType": "uint256",
          "name": "",
          "type": "uint256"
        }
      ],
      "stateMutability": "nonpayable",
      "type": "function"
    },
    {
      "inputs": [
        {
          "internalType": "address",
          "name": "_verifier",
          "type": "address"
        }
      ],
      "name": "removeVerifier",
      "outputs": [],
      "stateMutability": "nonpayable",
      "type": "function"
    },
    {
      "inputs": [],
      "name": "renounceOwnership",
      "outputs": [],
      "stateMutability": "nonpayable",
      "type": "function"
    },
    {
      "inputs": [
        {
          "internalType": "address",
          "name": "from",
          "type": "address"
        },
        {
          "internalType": "address",
          "name": "to",
          "type": "address"
        },
        {
          "internalType": "uint256",
          "name": "tokenId",
          "type": "uint256"
        }
      ],
      "name": "safeTransferFrom",
      "outputs": [],
      "stateMutability": "nonpayable",
      "type": "function"
    },
    {
      "inputs": [
        {
          "internalType": "address",
          "name": "from",
          "type": "address"
        },
        {
          "internalType": "address",
          "name": "to",
          "type": "address"
        },
        {
          "internalType": "uint256",
          "name": "tokenId",
          "type": "uint256"
        },
        {
          "internalType": "bytes",
          "name": "data",
          "type": "bytes"
        }
      ],
      "name": "safeTransferFrom",
      "outputs": [],
      "stateMutability": "nonpayable",
      "type": "function"
    },
    {
      "inputs": [
        {
          "internalType": "address",
          "name": "operator",
          "type": "address"
        },
        {
          "internalType": "bool",
          "name": "approved",
          "type": "bool"
        }
      ],
      "name": "setApprovalForAll",
      "outputs": [],
      "stateMutability": "nonpayable",
      "type": "function"
    },
    {
      "inputs": [
        {
          "internalType": "address",
          "name": "_citationRegistry",
          "type": "address"
        }
      ],
      "name": "setCitationRegistry",
      "outputs": [],
      "stateMutability": "nonpayable",
      "type": "function"
    },
    {
      "inputs": [
        {
          "internalType": "bytes4",
          "name": "interfaceId",
          "type": "bytes4"
        }
      ],
      "name": "supportsInterface",
      "outputs": [
        {
          "internalType": "bool",
          "name": "",
          "type": "bool"
        }
      ],
      "stateMutability": "view",
      "type": "function"
    },
    {
      "inputs": [],
      "name": "symbol",
      "outputs": [
        {
          "internalType": "string",
          "name": "",
          "type": "string"
        }
      ],
      "stateMutability": "view",
      "type": "function"
    },
    {
      "inputs": [
        {
          "internalType": "uint256",
          "name": "tokenId",
          "type": "uint256"
        }
      ],
      "name": "tokenURI",
      "outputs": [
        {
          "internalType": "string",
          "name": "",
          "type": "string"
        }
      ],
      "stateMutability": "view",
      "type": "function"
    },
    {
      "inputs": [
        {
          "internalType": "address",
          "name": "from",
          "type": "address"
        },
        {
          "internalType": "address",
          "name": "to",
          "type": "address"
        },
        {
          "internalType": "uint256",
          "name": "tokenId",
          "type": "uint256"
        }
      ],
      "name": "transferFrom",
      "outputs": [],
      "stateMutability": "nonpayable",
      "type": "function"
    },
    {
      "inputs": [
        {
          "internalType": "address",
          "name": "newOwner",
          "type": "address"
        }
      ],
      "name": "transferOwnership",
      "outputs": [],
      "stateMutability": "nonpayable",
      "type": "function"
    },
    {
      "inputs": [
        {
          "internalType": "address",
          "name": "",
          "type": "address"
        }
      ],
      "name": "verifiers",
      "outputs": [
        {
          "internalType": "bool",
          "name": "",
          "type": "bool"
        }
      ],
      "stateMutability": "view",
      "type": "function"
    },
    {
      "inputs": [
        {
          "internalType": "uint256",
          "name": "_paperId",
          "type": "uint256"
        }
      ],
      "name": "verifyPaper",
      "outputs": [],
      "stateMutability": "nonpayable",
      "type": "function"
    }
  ],
  "bytecode": "0x608060405234620003d75762002e0b803803806200001d81620003dc565b928339810190606081830312620003d75780516001600160401b0390818111620003d757836200004f91840162000402565b9060209384840151828111620003d7576040916200006f91860162000402565b9301516001600160a01b038082169590939091869003620003d757805192808411620003c1576000958654946001938487811c97168015620003b6575b86881014620003a2578190601f978881116200034f575b508690888311600114620002eb578a92620002df575b5050600019600383901b1c191690841b1787555b8051918211620002cb5782548381811c91168015620002c0575b85821014620002ac5790818684931162000259575b508490868311600114620001f5578892620001e9575b5050600019600383901b1c191690821b1781555b60075460018060a01b03199533878316176007557f8be0079c531659141344cd1fd0a4f28419497f9722a3daafe3b4186f6b6457e0604051963393169180a36008558415620001aa57505050600e541617600e556040516129969081620004758239f35b62461bcd60e51b8352600483015260248201527f496e76616c6964204f726967696e2050726f746f636f6c206164647265737300604482015260649150fd5b01519050388062000132565b8489528589208594509190601f1984168a5b8882821062000242575050841162000228575b505050811b01815562000146565b015160001960f88460031b161c191690553880806200021a565b838501518655889790950194938401930162000207565b9091508388528488208680850160051c820192878610620002a2575b918691869594930160051c01915b828110620002935750506200011c565b8a815585945086910162000283565b9250819262000275565b634e487b7160e01b88526022600452602488fd5b90607f169062000107565b634e487b7160e01b87526041600452602487fd5b015190503880620000d9565b8a8052878b208794509190601f1984168c5b8a8282106200033857505084116200031e575b505050811b018755620000ed565b015160001960f88460031b161c1916905538808062000310565b8385015186558a97909501949384019301620002fd565b909150898052868a208880850160051c82019289861062000398575b918891869594930160051c01915b82811062000389575050620000c3565b8c815585945088910162000379565b925081926200036b565b634e487b7160e01b89526022600452602489fd5b96607f1696620000ac565b634e487b7160e01b600052604160045260246000fd5b600080fd5b6040519190601f01601f191682016001600160401b03811183821017620003c157604052565b919080601f84011215620003d75782516001600160401b038111620003c15760209062000438601f8201601f19168301620003dc565b92818452828287010111620003d75760005b8181106200046057508260009394955001015290565b85810183015184820184015282016200044a56fe608080604052600436101561001357600080fd5b60003560e01c90816301ffc9a714611df757508063055a9be814611cb057806306fdde0314611c0d578063081812fc14611bef578063095ea7b314611a7557806311cd9179146119da57806323b872dd146119b65780632a07a7e4146117b957806342842e0e146117865780634c514746146116eb5780635e775a27146116845780636233619a1461165b5780636352211e1461162b5780636b1c65cf146115a75780636c8244871461156857806370a08231146114d1578063715018a61461147457806372e912961461144b5780638bf7526e1461135a5780638da5cb5b146113315780639000b3d61461126c57806395d89b411461118d5780639adad24f146110df578063a22cb46514611004578063b0afb37814610fae578063b88d4fde14610f2c578063be2da94614610ebe578063c87b56dd14610e48578063ca2dfd0a14610d94578063e985e9c514610d3e578063f2fde38b14610c7a5763fdd88b591461017f57600080fd5b3461076b5760a036600319011261076b576004356001600160401b03811161076b576101af903690600401611f9a565b6024356001600160401b03811161076b576101ce903690600401611f9a565b6044356001600160401b03811161076b576101ed903690600401611f9a565b90606435906001600160401b03821161076b573660238301121561076b57816004013561021981612152565b926102276040519485611f27565b8184526024602085019260051b8201019036821161076b5760248101925b828410610c4b57505050506084356001600160401b03811161076b573660238201121561076b57806004013561027a81612152565b916102886040519384611f27565b8183526024602084019260051b8201019036821161076b57602401915b818310610c2b57505050600260085414610be657600260085560016009540193846009556040516102d581611f0c565b600081523315610ba257600086815260026020526040902054610398916103939161030c906001600160a01b031615155b1561275a565b60008881526002602052604090205461032f906001600160a01b03161515610306565b3360005260036020526040600020600181540190558760005260026020526040600020336001600160601b0360a01b825416179055873360007fddf252ad1be2c89b69c2b068fc378daa952ba7f163c4a11628f55a4df523b3ef8180a48733612520565b612323565b6000858152600260205260409020546001600160a01b031615610b46578460005260066020526040600020908051906001600160401b0382116107495781906103e18454612028565b601f8111610b14575b50602090601f8311600114610aa857600092610a9d575b50508160011b916000199060031b1c19161790555b7ff8e1a15aba9398e019f0b49df1a4fde98ee17ae345cb5f6b5e2c27f5033e8ce76020604051868152a16040519061044d82611ef0565b858252336020830152426040830152826060830152836080830152600060a0830152600060c083015260e082015283600052600a602052604060002081518051906001600160401b0382116107495781906104a88454612028565b601f8111610a6b575b50602090601f83116001146109ff576000926109f4575b50508160011b916000199060031b1c19161781555b6001810160018060a01b036020840151166001600160601b0360a01b8254161790556040820151600282015560608201518051906001600160401b03821161074957819061052e6003850154612028565b601f81116109bf575b50602090601f831160011461094d57600092610942575b50508160011b916000199060031b1c19161760038201555b6080820151805190600160401b82116107495760048301548260048501558083106108ca575b5060200190600483016000526020600020916000905b8282106107aa5750505050600760e09160a084015160058201556105db60c08501511515600683019060ff801983541691151516179055565b01910151908151916001600160401b03831161074957600160401b831161074957602090825484845580851061078d575b500190600052602060002060005b838110610770575050505033600052600c60205261063c8360406000206126e2565b60005b825181101561068c578061068285610673602061065f6106879689612746565b518160405193828580945193849201611e7c565b8101600b8152030190206126e2565b612721565b61063f565b50600e54839085906001600160a01b0316803b1561076b5760008091604460405180948193637615624960e01b83528860048401523360248401525af1801561075f57610732575b50817f9995d01d90b182587e3eeaaa7b559349cd913ba1b7cef01fba78f498e50f33b1610714602095610722604051928392604084526040840190611e9f565b828103898401523396611e9f565b0390a36001600855604051908152f35b6001600160401b03811161074957604052816106d4565b634e487b7160e01b600052604160045260246000fd5b6040513d6000823e3d90fd5b600080fd5b82516001600160a01b03168183015560209092019160010161061a565b6107a49084600052858460002091820191016126cb565b3861060c565b80518051906001600160401b038211610749576107c78654612028565b601f811161088d575b50602090601f831160011461081d579282600194936020938695600092610812575b5050600019600383901b1c191690841b1787555b019401910190926105a2565b0151905038806107f2565b908660005260206000209160005b601f1985168110610875575083602093600196938796938794601f1981161061085c575b505050811b018755610806565b015160001960f88460031b161c1916905538808061084f565b9192602060018192868501518155019401920161082b565b6108ba90876000526020600020601f850160051c810191602086106108c0575b601f0160051c01906126cb565b386107d0565b90915081906108ad565b600484016000526020600020908382015b81830181106108eb57505061058c565b806108f860019254612028565b80610905575b50016108db565b601f8111831461091b5750600081555b386108fe565b600090828252610939601f60208420920160051c82018583016126cb565b81835555610915565b01519050388061054e565b9250600384016000526020600020906000935b601f19841685106109a4576001945083601f1981161061098b575b505050811b016003820155610566565b015160001960f88460031b161c1916905538808061097b565b81810151835560209485019460019093019290910190610960565b6109ee90600386016000526020600020601f850160051c810191602086106108c057601f0160051c01906126cb565b38610537565b0151905038806104c8565b9250836000526020600020906000935b601f1984168510610a50576001945083601f19811610610a37575b505050811b0181556104dd565b015160001960f88460031b161c19169055388080610a2a565b81810151835560209485019460019093019290910190610a0f565b610a9790856000526020600020601f850160051c810191602086106108c057601f0160051c01906126cb565b386104b1565b015190503880610401565b9250836000526020600020906000935b601f1984168510610af9576001945083601f19811610610ae0575b505050811b019055610416565b015160001960f88460031b161c19169055388080610ad3565b81810151835560209485019460019093019290910190610ab8565b610b4090856000526020600020601f850160051c810191602086106108c057601f0160051c01906126cb565b386103ea565b60405162461bcd60e51b815260206004820152602e60248201527f45524337323155524953746f726167653a2055524920736574206f66206e6f6e60448201526d32bc34b9ba32b73a103a37b5b2b760911b6064820152608490fd5b606460405162461bcd60e51b815260206004820152602060248201527f4552433732313a206d696e7420746f20746865207a65726f20616464726573736044820152fd5b60405162461bcd60e51b815260206004820152601f60248201527f5265656e7472616e637947756172643a207265656e7472616e742063616c6c006044820152606490fd5b82356001600160a01b038116810361076b578152602092830192016102a5565b83356001600160401b03811161076b57602091610c6f839260243691870101611f9a565b815201930192610245565b3461076b57602036600319011261076b57610c93611ec4565b610c9b612169565b6001600160a01b03908116908115610cea57600754826001600160601b0360a01b821617600755167f8be0079c531659141344cd1fd0a4f28419497f9722a3daafe3b4186f6b6457e0600080a3005b60405162461bcd60e51b815260206004820152602660248201527f4f776e61626c653a206e6577206f776e657220697320746865207a65726f206160448201526564647265737360d01b6064820152608490fd5b3461076b57604036600319011261076b57610d57611ec4565b610d5f611eda565b9060018060a01b03809116600052600560205260406000209116600052602052602060ff604060002054166040519015158152f35b3461076b57602036600319011261076b57610dad611ec4565b610db5612169565b6001600160a01b03166000818152600f602052604090205460ff1615610e125780600052600f602052604060002060ff1981541690557f44a3cd4eb5cc5748f6169df057b1cb2ae4c383e87cd94663c430e095d4cba424600080a2005b60405162461bcd60e51b815260206004820152600e60248201526d2737ba1030903b32b934b334b2b960911b6044820152606490fd5b3461076b57602036600319011261076b57600435600081815260026020526040902054610e7f906001600160a01b031615156121c1565b6000526006602052610eba610e976040600020612062565b6000604051610ea581611f0c565b52604051918291602083526020830190611e9f565b0390f35b3461076b57602036600319011261076b57610ed7611ec4565b610edf612169565b6001600160a01b0316610ef38115156127e9565b600d80546001600160a01b031916821790557f86b308c6e0267799c1d9f2937a3bbc463ff7a8049e42ff3e8ccb3690d833dd6c600080a2005b3461076b57608036600319011261076b57610f45611ec4565b610f4d611eda565b90606435906044356001600160401b03831161076b573660238401121561076b57610fac93610f89610393943690602481600401359101611f63565b92610f9c610f978433612347565b61226e565b610fa783838361240f565b612640565b005b3461076b57604036600319011261076b576020610ffa600435610fcf611eda565b600082815260026020526040902054909190610ff5906001600160a01b031615156127a6565b6128d4565b6040519015158152f35b3461076b57604036600319011261076b5761101d611ec4565b602435908115159081830361076b576001600160a01b03169133831461109a5761106c9033600052600560205260406000208460005260205260406000209060ff801983541691151516179055565b6040519081527f17307eab39ab6107e8899845ad3d59bd9653f200f220920489ca2b5937696c3160203392a3005b60405162461bcd60e51b815260206004820152601960248201527f4552433732313a20617070726f766520746f2063616c6c6572000000000000006044820152606490fd5b3461076b5760208060031936011261076b57600435600081815260026020526040902054611117906001600160a01b031615156127a6565b600052600a815261112e6004604060002001612827565b6040519082820192808352815180945260408301938160408260051b8601019301916000955b8287106111615785850386f35b90919293828061117d600193603f198a82030186528851611e9f565b9601920196019592919092611154565b3461076b57600036600319011261076b57604051600060018054906111b182612028565b8085529181811690811561124557506001146111ec575b610eba846111d881860382611f27565b604051918291602083526020830190611e9f565b600081815292507fb10e2d527612073b26eecdfd717e6a320cf44b4afac2b0732d9fcbe2b7fa0cf65b82841061122d5750505081016020016111d8826111c8565b80546020858701810191909152909301928101611215565b60ff191660208087019190915292151560051b850190920192506111d891508390506111c8565b3461076b57602036600319011261076b57611285611ec4565b61128d612169565b6001600160a01b03166112a18115156127e9565b80600052600f60205260ff604060002054166112f75780600052600f6020526040600020600160ff198254161790557f6d05492139c5ea989514a5d2150c028041e5c087e2a39967f67dc7d2655adb81600080a2005b60405162461bcd60e51b815260206004820152601260248201527120b63932b0b23c9030903b32b934b334b2b960711b6044820152606490fd5b3461076b57600036600319011261076b576007546040516001600160a01b039091168152602090f35b3461076b57602036600319011261076b57600435600081815260026020526040902054611391906001600160a01b031615156127a6565b600052600a6020526040600020604051906113ab82611ef0565b6113b481612062565b8252610eba60018060a01b03806001840154169260208501938452600281015494604081019586526113e860038301612062565b92606082019384526113fc60048401612827565b608083015260058301549160a0810192835261142b600760ff6006870154169560c0840196151587520161287c565b60e082015251955116955192519051915115159260405196879687612108565b3461076b57600036600319011261076b57600e546040516001600160a01b039091168152602090f35b3461076b57600036600319011261076b5761148d612169565b600780546001600160a01b031981169091556000906001600160a01b03167f8be0079c531659141344cd1fd0a4f28419497f9722a3daafe3b4186f6b6457e08280a3005b3461076b57602036600319011261076b576001600160a01b036114f2611ec4565b1680156115115760005260036020526020604060002054604051908152f35b60405162461bcd60e51b815260206004820152602960248201527f4552433732313a2061646472657373207a65726f206973206e6f7420612076616044820152683634b21037bbb732b960b91b6064820152608490fd5b3461076b57602036600319011261076b576001600160a01b03611589611ec4565b16600052600f602052602060ff604060002054166040519015158152f35b3461076b5760208060031936011261076b576001600160a01b036115c9611ec4565b16600052600c8152604060002090604051908181845491828152019360005281600020916000905b82821061161457610eba8561160881890382611f27565b60405191829182611fb8565b8354865294850194600193840193909101906115f1565b3461076b57602036600319011261076b57602061164960043561220d565b6040516001600160a01b039091168152f35b3461076b57600036600319011261076b57600d546040516001600160a01b039091168152602090f35b3461076b57602036600319011261076b57600435600052600a60205260406000206116ae81612062565b610eba60018060a01b03600184015416926002810154906116d160038201612062565b60ff60066005840154930154169260405196879687612108565b3461076b5760208060031936011261076b57600435600081815260026020526040902054611723906001600160a01b031615156127a6565b600052600a815261173a600760406000200161287c565b906040519181839283018184528251809152816040850193019160005b82811061176657505050500390f35b83516001600160a01b031685528695509381019392810192600101611757565b3461076b57610fac61039361179a36611ff3565b90604051926117a884611f0c565b60008452610f9c610f978433612347565b3461076b57604036600319011261076b57600435600081815260026020526040902054602435906117f4906001600160a01b031615156127a6565b600081815260026020526040902054611817906001600160a01b031615156127a6565b6118208261220d565b6001600160a01b0390339082160361197b57600d5416908115611936578083146118fe5760009260405192631dc9a92760e21b84528160048501528260248501523360448501528360648160209788945af192831561075f576000936118cf575b5081600052600a8452600560406000200161189c8154612721565b90557fd59c22b69809c55f7b77cfa69b64ac8a8b90d56abb3214d60e09a88ce80c887384604051858152a3604051908152f35b9092508381813d83116118f7575b6118e78183611f27565b8101031261076b57519184611881565b503d6118dd565b60405162461bcd60e51b815260206004820152601060248201526f21b0b73737ba1031b4ba329039b2b63360811b6044820152606490fd5b60405162461bcd60e51b815260206004820152601960248201527f4369746174696f6e207265676973747279206e6f7420736574000000000000006044820152606490fd5b60405162461bcd60e51b81526020600482015260136024820152722737ba103a3432903830b832b91037bbb732b960691b6044820152606490fd5b3461076b57610fac6119c736611ff3565b916119d5610f978433612347565b61240f565b3461076b5760208060031936011261076b576004356001600160401b03811161076b5781611a0f611a22923690600401611f9a565b8160405193828580945193849201611e7c565b8101600b81520301902090604051908181845491828152019360005281600020916000905b828210611a5e57610eba8561160881890382611f27565b835486529485019460019384019390910190611a47565b3461076b57604036600319011261076b57611a8e611ec4565b602435906001600160a01b038080611aa58561220d565b16921691808314611ba057803314908115611b7b575b5015611b1057600083815260046020526040902080546001600160a01b03191683179055611ae88361220d565b167f8c5be1e5ebec7d5bd14f71427d1e84f3dd0314c0f7b2291e5b200ac8c7c3b925600080a4005b60405162461bcd60e51b815260206004820152603d60248201527f4552433732313a20617070726f76652063616c6c6572206973206e6f7420746f60448201527f6b656e206f776e6572206f7220617070726f76656420666f7220616c6c0000006064820152608490fd5b9050600052600560205260406000203360005260205260ff6040600020541684611abb565b60405162461bcd60e51b815260206004820152602160248201527f4552433732313a20617070726f76616c20746f2063757272656e74206f776e656044820152603960f91b6064820152608490fd5b3461076b57602036600319011261076b576020611649600435612230565b3461076b57600036600319011261076b5760405160008054611c2e81612028565b808452906001908181169081156112455750600114611c5757610eba846111d881860382611f27565b600080805292507f290decd9548b62a8d60345a988386fc84ba6bc95484008f6362f93160ef3e5635b828410611c985750505081016020016111d8826111c8565b80546020858701810191909152909301928101611c80565b3461076b5760208060031936011261076b576004359033600052600f815260ff604060002054168015611de3575b15611d9f57600082815260026020526040902054611d06906001600160a01b031615156127a6565b81600052600a815260ff60066040600020015416611d6257600a9082600052526006604060002001600160ff1982541617905533907f62267252b3c364ea0a67286d1496300d99d0f21ee8993bf8085a3b9df131186c600080a3005b6064906040519062461bcd60e51b82526004820152601660248201527514185c195c88185b1c9958591e481d995c9a599a595960521b6044820152fd5b6064906040519062461bcd60e51b82526004820152601a60248201527f4e6f7420617574686f72697a65642061732076657269666965720000000000006044820152fd5b506007546001600160a01b03163314611cde565b3461076b57602036600319011261076b576004359063ffffffff60e01b821680920361076b57602091632483248360e11b8114908115611e39575b5015158152f35b6380ac58cd60e01b811491508115611e6b575b8115611e5a575b5083611e32565b6301ffc9a760e01b14905083611e53565b635b5e139f60e01b81149150611e4c565b60005b838110611e8f5750506000910152565b8181015183820152602001611e7f565b90602091611eb881518092818552858086019101611e7c565b601f01601f1916010190565b600435906001600160a01b038216820361076b57565b602435906001600160a01b038216820361076b57565b61010081019081106001600160401b0382111761074957604052565b602081019081106001600160401b0382111761074957604052565b90601f801991011681019081106001600160401b0382111761074957604052565b6001600160401b03811161074957601f01601f191660200190565b929192611f6f82611f48565b91611f7d6040519384611f27565b82948184528183011161076b578281602093846000960137010152565b9080601f8301121561076b57816020611fb593359101611f63565b90565b6020908160408183019282815285518094520193019160005b828110611fdf575050505090565b835185529381019392810192600101611fd1565b606090600319011261076b576001600160a01b0390600435828116810361076b5791602435908116810361076b579060443590565b90600182811c92168015612058575b602083101461204257565b634e487b7160e01b600052602260045260246000fd5b91607f1691612037565b906040519182600082549261207684612028565b9081845260019485811690816000146120e557506001146120a2575b50506120a092500383611f27565b565b9093915060005260209081600020936000915b8183106120cd5750506120a093508201013880612092565b855488840185015294850194879450918301916120b5565b9150506120a094506020925060ff191682840152151560051b8201013880612092565b949695929360a094612126612145949360c0895260c0890190611e9f565b92600180881b0316602088015260408701528582036060870152611e9f565b9460808401521515910152565b6001600160401b0381116107495760051b60200190565b6007546001600160a01b0316330361217d57565b606460405162461bcd60e51b815260206004820152602060248201527f4f776e61626c653a2063616c6c6572206973206e6f7420746865206f776e65726044820152fd5b156121c857565b60405162461bcd60e51b815260206004820152601860248201527f4552433732313a20696e76616c696420746f6b656e20494400000000000000006044820152606490fd5b6000908152600260205260409020546001600160a01b0316611fb58115156121c1565b600081815260026020526040902054612253906001600160a01b031615156121c1565b6000908152600460205260409020546001600160a01b031690565b1561227557565b60405162461bcd60e51b815260206004820152602d60248201527f4552433732313a2063616c6c6572206973206e6f7420746f6b656e206f776e6560448201526c1c881bdc88185c1c1c9bdd9959609a1b6064820152608490fd5b60809060208152603260208201527f4552433732313a207472616e7366657220746f206e6f6e20455243373231526560408201527131b2b4bb32b91034b6b83632b6b2b73a32b960711b60608201520190565b1561232a57565b60405162461bcd60e51b815280612343600482016122d0565b0390fd5b906001600160a01b03808061235b8461220d565b1693169183831493841561238e575b508315612378575b50505090565b61238491929350612230565b1614388080612372565b909350600052600560205260406000208260005260205260ff60406000205416923861236a565b156123bc57565b60405162461bcd60e51b815260206004820152602560248201527f4552433732313a207472616e736665722066726f6d20696e636f72726563742060448201526437bbb732b960d91b6064820152608490fd5b906124379161241d8461220d565b6001600160a01b03939184169284929091831684146123b5565b169182156124cf57816124549161244d8661220d565b16146123b5565b7fddf252ad1be2c89b69c2b068fc378daa952ba7f163c4a11628f55a4df523b3ef60008481526004602052604081206001600160601b0360a01b9081815416905583825260036020526040822060001981540190558482526040822060018154019055858252600260205284604083209182541617905580a4565b60405162461bcd60e51b8152602060048201526024808201527f4552433732313a207472616e7366657220746f20746865207a65726f206164646044820152637265737360e01b6064820152608490fd5b9192600092909190803b156126365761256e946040518092630a85bd0160e11b9485835233600484015287602484015260448301526080606483015281878160209a8b966084830190611e9f565b03926001600160a01b03165af18491816125f2575b506125e1575050503d6000146125d9573d61259d81611f48565b906125ab6040519283611f27565b81528091833d92013e5b805191826125d65760405162461bcd60e51b815280612343600482016122d0565b01fd5b5060606125b5565b6001600160e01b0319161492509050565b9091508581813d831161262f575b61260a8183611f27565b8101031261262b57516001600160e01b03198116810361262b579038612583565b8480fd5b503d612600565b5050915050600190565b9293600093909291803b156126c05794849161269a9660405180948193630a85bd0160e11b9788845233600485015260018060a01b0380921660248501526044840152608060648401528260209b8c976084830190611e9f565b0393165af18491816125f257506125e1575050503d6000146125d9573d61259d81611f48565b505050915050600190565b8181106126d6575050565b600081556001016126cb565b805490600160401b821015610749576001820180825582101561270b5760005260206000200155565b634e487b7160e01b600052603260045260246000fd5b60001981146127305760010190565b634e487b7160e01b600052601160045260246000fd5b805182101561270b5760209160051b010190565b1561276157565b60405162461bcd60e51b815260206004820152601c60248201527f4552433732313a20746f6b656e20616c7265616479206d696e746564000000006044820152606490fd5b156127ad57565b60405162461bcd60e51b815260206004820152601460248201527314185c195c88191bd95cc81b9bdd08195e1a5cdd60621b6044820152606490fd5b156127f057565b60405162461bcd60e51b815260206004820152600f60248201526e496e76616c6964206164647265737360881b6044820152606490fd5b90815461283381612152565b926128416040519485611f27565b818452600090815260208082208186015b848410612860575050505050565b600183819261286e85612062565b815201920193019290612852565b9060405191828154918282526020928383019160005283600020936000905b8282106128b1575050506120a092500383611f27565b85546001600160a01b03168452600195860195889550938101939091019061289b565b6000908152600a60205260409020600180820154909283926001600160a01b03918216928216831461295957600761290c910161287c565b6000935b61291f575b5050505050600090565b805184101561295457838383612936889785612746565b51161461294c5761294690612721565b93612910565b505050505090565b612915565b505050509056fea2646970667358221220440519a301e003f7a65f2c115faaacd92162a6e2b91798c462ab10d9c49adcfb64736f6c63430008130033",
  "linkReferences": {},
  "deployedLinkReferences": {}
}