{"contracts/RoyaltyDistributor.sol":{"RoyaltyDistributor":{"abi":[{"inputs":[{"internalType":"address","name":"_originProtocol","type":"address"}],"stateMutability":"nonpayable","type":"constructor"},{"anonymous":false,"inputs":[{"indexed":true,"internalType":"address","name":"previousOwner","type":"address"},{"indexed":true,"internalType":"address","name":"newOwner","type":"address"}],"name":"OwnershipTransferred","type":"event"},{"anonymous":false,"inputs":[{"indexed":false,"internalType":"uint256","name":"newFeePercentage","type":"uint256"}],"name":"PlatformFeeUpdated","type":"event"},{"anonymous":false,"inputs":[{"indexed":true,"internalType":"uint256","name":"paymentId","type":"uint256"},{"indexed":true,"internalType":"uint256","name":"paperId","type":"uint256"},{"indexed":true,"internalType":"address","name":"researcher","type":"address"},{"indexed":false,"internalType":"uint256","name":"amount","type":"uint256"},{"indexed":false,"internalType":"string","name":"reason","type":"string"}],"name":"RoyaltyPaid","type":"event"},{"anonymous":false,"inputs":[{"indexed":true,"internalType":"address","name":"researcher","type":"address"},{"indexed":false,"internalType":"uint256","name":"amount","type":"uint256"}],"name":"RoyaltyWithdrawn","type":"event"},{"anonymous":false,"inputs":[{"indexed":false,"internalType":"address","name":"newTreasuryAddress","type":"address"}],"name":"TreasuryAddressUpdated","type":"event"},{"inputs":[{"internalType":"uint256[]","name":"_paperIds","type":"uint256[]"},{"internalType":"address[]","name":"_researchers","type":"address[]"},{"internalType":"string[]","name":"_reasons","type":"string[]"},{"internalType":"uint256[]","name":"_amounts","type":"uint256[]"}],"name":"batchPayRoyalties","outputs":[{"internalType":"uint256[]","name":"","type":"uint256[]"}],"stateMutability":"payable","type":"function"},{"inputs":[{"internalType":"uint256","name":"_paperId","type":"uint256"}],"name":"getPaperPayments","outputs":[{"internalType":"uint256[]","name":"","type":"uint256[]"}],"stateMutability":"view","type":"function"},{"inputs":[{"internalType":"uint256","name":"_paymentId","type":"uint256"}],"name":"getPaymentDetails","outputs":[{"internalType":"uint256","name":"paperId","type":"uint256"},{"internalType":"address","name":"researcher","type":"address"},{"internalType":"uint256","name":"amount","type":"uint256"},{"internalType":"uint256","name":"timestamp","type":"uint256"},{"internalType":"address","name":"payer","type":"address"},{"internalType":"string","name":"reason","type":"string"}],"stateMutability":"view","type":"function"},{"inputs":[{"internalType":"address","name":"_researcher","type":"address"}],"name":"getResearcherBalance","outputs":[{"internalType":"uint256","name":"","type":"uint256"}],"stateMutability":"view","type":"function"},{"inputs":[{"internalType":"address","name":"_researcher","type":"address"}],"name":"getResearcherPayments","outputs":[{"internalType":"uint256[]","name":"","type":"uint256[]"}],"stateMutability":"view","type":"function"},{"inputs":[{"internalType":"uint256","name":"_paperId","type":"uint256"}],"name":"getTotalRoyaltiesForPaper","outputs":[{"internalType":"uint256","name":"","type":"uint256"}],"stateMutability":"view","type":"function"},{"inputs":[],"name":"originProtocol","outputs":[{"internalType":"contract IOriginProtocol","name":"","type":"address"}],"stateMutability":"view","type":"function"},{"inputs":[],"name":"owner","outputs":[{"internalType":"address","name":"","type":"address"}],"stateMutability":"view","type":"function"},{"inputs":[{"internalType":"uint256","name":"","type":"uint256"},{"internalType":"uint256","name":"","type":"uint256"}],"name":"paperPayments","outputs":[{"internalType":"uint256","name":"","type":"uint256"}],"stateMutability":"view","type":"function"},{"inputs":[{"internalType":"uint256","name":"_paperId","type":"uint256"},{"internalType":"address","name":"_researcher","type":"address"},{"internalType":"string","name":"_reason","type":"string"}],"name":"payRoyalty","outputs":[{"internalType":"uint256","name":"","type":"uint256"}],"stateMutability":"payable","type":"function"},{"inputs":[{"internalType":"uint256","name":"","type":"uint256"}],"name":"payments","outputs":[{"internalType":"uint256","name":"paymentId","type":"uint256"},{"internalType":"uint256","name":"paperId","type":"uint256"},{"internalType":"address","name":"researcher","type":"address"},{"internalType":"uint256","name":"amount","type":"uint256"},{"internalType":"uint256","name":"timestamp","type":"uint256"},{"internalType":"address","name":"payer","type":"address"},{"internalType":"string","name":"reason","type":"string"}],"stateMutability":"view","type":"function"},{"inputs":[],"name":"platformFeePercentage","outputs":[{"internalType":"uint256","name":"","type":"uint256"}],"stateMutability":"view","type":"function"},{"inputs":[],"name":"renounceOwnership","outputs":[],"stateMutability":"nonpayable","type":"function"},{"inputs":[{"internalType":"address","name":"","type":"address"}],"name":"researcherBalances","outputs":[{"internalType":"uint256","name":"","type":"uint256"}],"stateMutability":"view","type":"function"},{"inputs":[{"internalType":"address","name":"","type":"address"},{"internalType":"uint256","name":"","type":"uint256"}],"name":"researcherPayments","outputs":[{"internalType":"uint256","name":"","type":"uint256"}],"stateMutability":"view","type":"function"},{"inputs":[{"internalType":"address","name":"newOwner","type":"address"}],"name":"transferOwnership","outputs":[],"stateMutability":"nonpayable","type":"function"},{"inputs":[],"name":"treasuryAddress","outputs":[{"internalType":"address","name":"","type":"address"}],"stateMutability":"view","type":"function"},{"inputs":[{"internalType":"uint256","name":"_newFeePercentage","type":"uint256"}],"name":"updatePlatformFee","outputs":[],"stateMutability":"nonpayable","type":"function"},{"inputs":[{"internalType":"address","name":"_newTreasuryAddress","type":"address"}],"name":"updateTreasuryAddress","outputs":[],"stateMutability":"nonpayable","type":"function"},{"inputs":[],"name":"withdrawRoyalties","outputs":[],"stateMutability":"nonpayable","type":"function"}],"evm":{"bytecode":{"linkReferences":{},"object":"60803461010e57601f611adc38819003918201601f19168301916001600160401b038311848410176101135780849260209460405283398101031261010e57516001600160a01b03908181169081900361010e576000549160018060a01b0319923384821617600055604051913391167f8be0079c531659141344cd1fd0a4f28419497f9722a3daafe3b4186f6b6457e0600080a3600180556101f4600355600160095581156100cc5750816002541617600255339060045416176004556040516119b2908161012a8239f35b62461bcd60e51b815260206004820152601f60248201527f496e76616c6964204f726967696e2050726f746f636f6c2061646472657373006044820152606490fd5b600080fd5b634e487b7160e01b600052604160045260246000fdfe608080604052600436101561001357600080fd5b60003560e01c90816303c43782146113e75750806321c34fcb146112d65780633d2faace14610e8d5780634bdc9c1314610de2578063615721ea14610da85780636aa6caec14610d6f578063715018a614610d1657806372e9129614610ced578063774d446114610c83578063841e456114610bd657806387d8178914610b4a5780638da5cb5b14610b215780639c6f992614610ac95780639e70df21146109a4578063aa0b598814610911578063b9bfda5814610298578063c5f956af1461026f578063caf43091146101e7578063cdd78cfc146101c95763f2fde38b146100fb57600080fd5b346101c45760203660031901126101c45761011461141d565b61011c611677565b6001600160a01b0390811690811561017057600054826bffffffffffffffffffffffff60a01b821617600055167f8be0079c531659141344cd1fd0a4f28419497f9722a3daafe3b4186f6b6457e0600080a3005b60405162461bcd60e51b815260206004820152602660248201527f4f776e61626c653a206e6577206f776e657220697320746865207a65726f206160448201526564647265737360d01b6064820152608490fd5b600080fd5b346101c45760003660031901126101c4576020600354604051908152f35b346101c4576020806003193601126101c4576001600160a01b0361020961141d565b1660005260078152604060002090604051908181845491828152019360005281600020916000905b828210610258576102548561024881890382611461565b604051918291826114ec565b0390f35b835486529485019460019384019390910190610231565b346101c45760003660031901126101c4576004546040516001600160a01b039091168152602090f35b60803660031901126101c4576004356001600160401b0381116101c4576102c3903690600401611647565b6024356001600160401b0381116101c4576102e2903690600401611647565b6044939193356001600160401b0381116101c457610304903690600401611647565b906064356001600160401b0381116101c457610324903690600401611647565b909361032e6118eb565b80871480610908575b806108ff575b156108bb576000805b838110610896575034036108515761035d87611951565b9661036b6040519889611461565b808852601f1961037a82611951565b013660208a013760005b81811061039d5760018055604051806102548b826114ec565b6103a881838a611941565b35906103b581858d611941565b356001600160a01b03811681036101c4578782101561083b578160051b870135601e19883603018112156101c4576001600160401b0381890135116101c4578088013536036020828a0101136101c457610418903690890180359060200161149d565b61042383888c611941565b35936104308515156116cf565b6104446001600160a01b0384161515611729565b6002546040516309cc449d60e01b8152600481018390526001600160a01b038581166024830152909160209183916044918391165afa80156106ea576104929160009161080c575b5061178d565b6104ac6127106104a4600354886117e3565b04809661180c565b9460018060a01b038416600052600560205260406000206104ce878254611819565b9055801515806107f8575b6107ce575b50600954926104ec846118a2565b6009556040516104fb81611433565b84815260208082018481526001600160a01b038481166040808601918252606086018c815242608088019081523360a0890190815260c089018c815260008e8152600690995293909720975188559451600188015591516002870180546001600160a01b031990811692861692909217905591516003870155925160048601559251600585018054909416911617909155518051906001600160401b0382116107b8576105ab6006840154611527565b601f8111610771575b50602090601f83116001146107015760069291600091836106f6575b50508160011b916000199060031b1c1916179101555b60018060a01b03811660005260076020526106058460406000206118b1565b81600052600860205261061c8460406000206118b1565b6002546001600160a01b031690813b156101c457604051634980248b60e11b8152600481018490526001600160a01b038216602482015260448101889052916000908390606490829084905af19081156106ea576106d69786937fd4ac2b6eef7bd521c5a8a671fc84f501eac42cdfa24eea3c98e64dd2e3dd0a28936106db575b506106c360405192839283526040602084015260018060a01b0316966040830190611607565b0390a46106d0828c611968565b526118a2565b610384565b6106e49061144e565b3861069d565b6040513d6000823e3d90fd5b0151905038806105d0565b906006840160005260206000209160005b601f19851681106107595750918391600193600695601f19811610610740575b505050811b019101556105e6565b015160001960f88460031b161c19169055388080610732565b91926020600181928685015181550194019201610712565b600684016000526020600020601f840160051c8101602085106107b1575b601f830160051c820181106107a55750506105b4565b6000815560010161078f565b508061078f565b634e487b7160e01b600052604160045260246000fd5b60008080806107f29460018060a01b03600454165af16107ec611826565b50611856565b8e6104de565b506004546001600160a01b031615156104d9565b61082e915060203d602011610834575b6108268183611461565b810190611775565b3861048c565b503d61081c565b634e487b7160e01b600052603260045260246000fd5b60405162461bcd60e51b815260206004820152601b60248201527f496e636f727265637420746f74616c20616d6f756e742073656e7400000000006044820152606490fd5b906108b06108b6916108a984878b611941565b3590611819565b916118a2565b610346565b606460405162461bcd60e51b815260206004820152602060248201527f417272617973206d7573742068617665207468652073616d65206c656e6774686044820152fd5b5081841461033d565b50838114610337565b346101c45760203660031901126101c45760043561092d611677565b610bb88111610967576020817f45610d581145924dd7090a5017e5f2b1d6f42213bb2e95707ff86846bbfcb1ca92600355604051908152a1005b60405162461bcd60e51b81526020600482015260156024820152744665652063616e6e6f74206578636565642033302560581b6044820152606490fd5b346101c45760203660031901126101c45760043580151580610abe575b15610a805760005260066020526040600020604051906109e082611433565b8054825261025460c06001830154936020810194855260018060a01b0393846002820154169460408301958652806003830154976060850198895260048401549460808101958652610a426006846005880154169660a0840197885201611561565b96879101525196511696519251915116916040519687968752602087015260408601526060850152608084015260c060a084015260c0830190611607565b60405162461bcd60e51b815260206004820152601660248201527514185e5b595b9d08191bd95cc81b9bdd08195e1a5cdd60521b6044820152606490fd5b5060095481106109c1565b346101c45760403660031901126101c457610ae261141d565b6001600160a01b03166000908152600760205260409020805460243591908210156101c457602091610b13916114d4565b90546040519160031b1c8152f35b346101c45760003660031901126101c4576000546040516001600160a01b039091168152602090f35b346101c45760203660031901126101c45760043560005260066020526040600020805461025460018301549260018060a01b039081600282015416916003820154610ba360066004850154936005860154169401611561565b936040519788978852602088015260408701526060860152608085015260a084015260e060c084015260e0830190611607565b346101c45760203660031901126101c457610bef61141d565b610bf7611677565b6001600160a01b03168015610c4c576020817fb6a5e89655cf506139085f051af608195ed056f8dc550b180a1c38d401e2b6c4926bffffffffffffffffffffffff60a01b6004541617600455604051908152a1005b60405162461bcd60e51b815260206004820152600f60248201526e496e76616c6964206164647265737360881b6044820152606490fd5b346101c4576020806003193601126101c45760043560005260088152604060002090604051908181845491828152019360005281600020916000905b828210610cd6576102548561024881890382611461565b835486529485019460019384019390910190610cbf565b346101c45760003660031901126101c4576002546040516001600160a01b039091168152602090f35b346101c45760003660031901126101c457610d2f611677565b600080546001600160a01b0319811682556001600160a01b03167f8be0079c531659141344cd1fd0a4f28419497f9722a3daafe3b4186f6b6457e08280a3005b346101c45760403660031901126101c4576024356004356000526008602052604060002080548210156101c457602091610b13916114d4565b346101c45760203660031901126101c4576001600160a01b03610dc961141d565b1660005260056020526020604060002054604051908152f35b346101c4576020806003193601126101c457600435600052600881526040600020604051808284829454938481520190600052846000209260005b86828210610e775784610e3281860382611461565b6000805b8251821015610e6d576108b0610e6791610e508486611968565b516000526006865260036040600020015490611819565b90610e36565b8390604051908152f35b8554845260019586019587955093019201610e1d565b60603660031901126101c4576024356001600160a01b03811690036101c4576044356001600160401b0381116101c457366023820112156101c457610edc90369060248160040135910161149d565b610ee46118eb565b610eef3415156116cf565b610f056024356001600160a01b03161515611729565b6002546040516309cc449d60e01b815260048035908201526001600160a01b0360248035821690830152909160209183911681806044810103915afa80156106ea57610f58916000916112b7575061178d565b612710610f67600354346117e3565b04610f72813461180c565b9060018060a01b036024351660005260056020526040600020610f96838254611819565b9055801515806112a3575b61127f575b5060095490610fb4826118a2565b600955604051610fc381611433565b8281526004803560208084019182526024356001600160a01b0390811660408087019182526060870188815242608089019081523360a08a0190815260c08a018d815260008d8152600690985293909620985189559551600189015591516002880180546001600160a01b0319908116928616929092179055915160038801559351948601949094559051600585018054909416911617909155518051906001600160401b0382116107b85761107c6006840154611527565b601f8111611238575b50602090601f83116001146111c85760069291600091836111bd575b50508160011b916000199060031b1c1916179101555b60018060a01b036024351660005260076020526110d88260406000206118b1565b60043560005260086020526110f18260406000206118b1565b6002546001600160a01b031692833b156101c457604051634980248b60e11b81526004803590820152602480356001600160a01b031690820152604481018390529360009085908183816064810103925af19384156106ea576020946111ae575b50604051918252604084830152827fd4ac2b6eef7bd521c5a8a671fc84f501eac42cdfa24eea3c98e64dd2e3dd0a2860018060a01b0360243516938061119f600435956040830190611607565b0390a460018055604051908152f35b6111b79061144e565b84611152565b0151905087806110a1565b906006840160005260206000209160005b601f19851681106112205750918391600193600695601f19811610611207575b505050811b019101556110b7565b015160001960f88460031b161c191690558780806111f9565b919260206001819286850151815501940192016111d9565b600684016000526020600020601f840160051c810160208510611278575b601f830160051c8201811061126c575050611085565b60008155600101611256565b5080611256565b600080808061129d9460018060a01b03600454165af16107ec611826565b82610fa6565b506004546001600160a01b03161515610fa1565b6112d0915060203d602011610834576108268183611461565b8361048c565b346101c45760003660031901126101c4576112ef6118eb565b33600052600560205260406000205480156113a25733600052600560205260006040812055600080808084335af1611325611826565b501561135d576040519081527f9c56d4e207b08f0df71c47be77f4558c7954505688b8f5372c828ed167846e4060203392a260018055005b60405162461bcd60e51b815260206004820152601760248201527f526f79616c7479207472616e73666572206661696c65640000000000000000006044820152606490fd5b60405162461bcd60e51b815260206004820152601860248201527f4e6f20726f79616c7469657320746f20776974686472617700000000000000006044820152606490fd5b346101c45760203660031901126101c4576020906001600160a01b0361140b61141d565b16600052600582526040600020548152f35b600435906001600160a01b03821682036101c457565b60e081019081106001600160401b038211176107b857604052565b6001600160401b0381116107b857604052565b90601f801991011681019081106001600160401b038211176107b857604052565b6001600160401b0381116107b857601f01601f191660200190565b9291926114a982611482565b916114b76040519384611461565b8294818452818301116101c4578281602093846000960137010152565b805482101561083b5760005260206000200190600090565b6020908160408183019282815285518094520193019160005b828110611513575050505090565b835185529381019392810192600101611505565b90600182811c92168015611557575b602083101461154157565b634e487b7160e01b600052602260045260246000fd5b91607f1691611536565b906040519182600082549261157584611527565b9081845260019485811690816000146115e457506001146115a1575b505061159f92500383611461565b565b9093915060005260209081600020936000915b8183106115cc57505061159f93508201013880611591565b855488840185015294850194879450918301916115b4565b91505061159f94506020925060ff191682840152151560051b8201013880611591565b919082519283825260005b848110611633575050826000602080949584010152601f8019910116010190565b602081830181015184830182015201611612565b9181601f840112156101c4578235916001600160401b0383116101c4576020808501948460051b0101116101c457565b6000546001600160a01b0316330361168b57565b606460405162461bcd60e51b815260206004820152602060248201527f4f776e61626c653a2063616c6c6572206973206e6f7420746865206f776e65726044820152fd5b156116d657565b60405162461bcd60e51b815260206004820152602560248201527f5061796d656e7420616d6f756e74206d75737420626520677265617465722074604482015264068616e20360dc1b6064820152608490fd5b1561173057565b60405162461bcd60e51b815260206004820152601a60248201527f496e76616c6964207265736561726368657220616464726573730000000000006044820152606490fd5b908160209103126101c4575180151581036101c45790565b1561179457565b60405162461bcd60e51b815260206004820152602160248201527f52657365617263686572206973206e6f7420746865207061706572206f776e656044820152603960f91b6064820152608490fd5b818102929181159184041417156117f657565b634e487b7160e01b600052601160045260246000fd5b919082039182116117f657565b919082018092116117f657565b3d15611851573d9061183782611482565b916118456040519384611461565b82523d6000602084013e565b606090565b1561185d57565b60405162461bcd60e51b815260206004820152601c60248201527f506c6174666f726d20666565207472616e73666572206661696c6564000000006044820152606490fd5b60001981146117f65760010190565b8054680100000000000000008110156107b8576118d3916001820181556114d4565b819291549060031b91821b91600019901b1916179055565b6002600154146118fc576002600155565b60405162461bcd60e51b815260206004820152601f60248201527f5265656e7472616e637947756172643a207265656e7472616e742063616c6c006044820152606490fd5b919081101561083b5760051b0190565b6001600160401b0381116107b85760051b60200190565b805182101561083b5760209160051b01019056fea26469706673582212201b0b337ea4ef4411e2c1f143799cc25c4677500b44bfb60dc764b55b4805162a64736f6c63430008130033","opcodes":"PUSH1 0x80 CALLVALUE PUSH2 0x10E JUMPI PUSH1 0x1F PUSH2 0x1ADC CODESIZE DUP2 SWAP1 SUB SWAP2 DUP3 ADD PUSH1 0x1F NOT AND DUP4 ADD SWAP2 PUSH1 0x1 PUSH1 0x1 PUSH1 0x40 SHL SUB DUP4 GT DUP5 DUP5 LT OR PUSH2 0x113 JUMPI DUP1 DUP5 SWAP3 PUSH1 0x20 SWAP5 PUSH1 0x40 MSTORE DUP4 CODECOPY DUP2 ADD SUB SLT PUSH2 0x10E JUMPI MLOAD PUSH1 0x1 PUSH1 0x1 PUSH1 0xA0 SHL SUB SWAP1 DUP2 DUP2 AND SWAP1 DUP2 SWAP1 SUB PUSH2 0x10E JUMPI PUSH1 0x0 SLOAD SWAP2 PUSH1 0x1 DUP1 PUSH1 0xA0 SHL SUB NOT SWAP3 CALLER DUP5 DUP3 AND OR PUSH1 0x0 SSTORE PUSH1 0x40 MLOAD SWAP2 CALLER SWAP2 AND PUSH32 0x8BE0079C531659141344CD1FD0A4F28419497F9722A3DAAFE3B4186F6B6457E0 PUSH1 0x0 DUP1 LOG3 PUSH1 0x1 DUP1 SSTORE PUSH2 0x1F4 PUSH1 0x3 SSTORE PUSH1 0x1 PUSH1 0x9 SSTORE DUP2 ISZERO PUSH2 0xCC JUMPI POP DUP2 PUSH1 0x2 SLOAD AND OR PUSH1 0x2 SSTORE CALLER SWAP1 PUSH1 0x4 SLOAD AND OR PUSH1 0x4 SSTORE PUSH1 0x40 MLOAD PUSH2 0x19B2 SWAP1 DUP2 PUSH2 0x12A DUP3 CODECOPY RETURN JUMPDEST PUSH3 0x461BCD PUSH1 0xE5 SHL DUP2 MSTORE PUSH1 0x20 PUSH1 0x4 DUP3 ADD MSTORE PUSH1 0x1F PUSH1 0x24 DUP3 ADD MSTORE PUSH32 0x496E76616C6964204F726967696E2050726F746F636F6C206164647265737300 PUSH1 0x44 DUP3 ADD MSTORE PUSH1 0x64 SWAP1 REVERT JUMPDEST PUSH1 0x0 DUP1 REVERT JUMPDEST PUSH4 0x4E487B71 PUSH1 0xE0 SHL PUSH1 0x0 MSTORE PUSH1 0x41 PUSH1 0x4 MSTORE PUSH1 0x24 PUSH1 0x0 REVERT INVALID PUSH1 0x80 DUP1 PUSH1 0x40 MSTORE PUSH1 0x4 CALLDATASIZE LT ISZERO PUSH2 0x13 JUMPI PUSH1 0x0 DUP1 REVERT JUMPDEST PUSH1 0x0 CALLDATALOAD PUSH1 0xE0 SHR SWAP1 DUP2 PUSH4 0x3C43782 EQ PUSH2 0x13E7 JUMPI POP DUP1 PUSH4 0x21C34FCB EQ PUSH2 0x12D6 JUMPI DUP1 PUSH4 0x3D2FAACE EQ PUSH2 0xE8D JUMPI DUP1 PUSH4 0x4BDC9C13 EQ PUSH2 0xDE2 JUMPI DUP1 PUSH4 0x615721EA EQ PUSH2 0xDA8 JUMPI DUP1 PUSH4 0x6AA6CAEC EQ PUSH2 0xD6F JUMPI DUP1 PUSH4 0x715018A6 EQ PUSH2 0xD16 JUMPI DUP1 PUSH4 0x72E91296 EQ PUSH2 0xCED JUMPI DUP1 PUSH4 0x774D4461 EQ PUSH2 0xC83 JUMPI DUP1 PUSH4 0x841E4561 EQ PUSH2 0xBD6 JUMPI DUP1 PUSH4 0x87D81789 EQ PUSH2 0xB4A JUMPI DUP1 PUSH4 0x8DA5CB5B EQ PUSH2 0xB21 JUMPI DUP1 PUSH4 0x9C6F9926 EQ PUSH2 0xAC9 JUMPI DUP1 PUSH4 0x9E70DF21 EQ PUSH2 0x9A4 JUMPI DUP1 PUSH4 0xAA0B5988 EQ PUSH2 0x911 JUMPI DUP1 PUSH4 0xB9BFDA58 EQ PUSH2 0x298 JUMPI DUP1 PUSH4 0xC5F956AF EQ PUSH2 0x26F JUMPI DUP1 PUSH4 0xCAF43091 EQ PUSH2 0x1E7 JUMPI DUP1 PUSH4 0xCDD78CFC EQ PUSH2 0x1C9 JUMPI PUSH4 0xF2FDE38B EQ PUSH2 0xFB JUMPI PUSH1 0x0 DUP1 REVERT JUMPDEST CALLVALUE PUSH2 0x1C4 JUMPI PUSH1 0x20 CALLDATASIZE PUSH1 0x3 NOT ADD SLT PUSH2 0x1C4 JUMPI PUSH2 0x114 PUSH2 0x141D JUMP JUMPDEST PUSH2 0x11C PUSH2 0x1677 JUMP JUMPDEST PUSH1 0x1 PUSH1 0x1 PUSH1 0xA0 SHL SUB SWAP1 DUP2 AND SWAP1 DUP2 ISZERO PUSH2 0x170 JUMPI PUSH1 0x0 SLOAD DUP3 PUSH12 0xFFFFFFFFFFFFFFFFFFFFFFFF PUSH1 0xA0 SHL DUP3 AND OR PUSH1 0x0 SSTORE AND PUSH32 0x8BE0079C531659141344CD1FD0A4F28419497F9722A3DAAFE3B4186F6B6457E0 PUSH1 0x0 DUP1 LOG3 STOP JUMPDEST PUSH1 0x40 MLOAD PUSH3 0x461BCD PUSH1 0xE5 SHL DUP2 MSTORE PUSH1 0x20 PUSH1 0x4 DUP3 ADD MSTORE PUSH1 0x26 PUSH1 0x24 DUP3 ADD MSTORE PUSH32 0x4F776E61626C653A206E6577206F776E657220697320746865207A65726F2061 PUSH1 0x44 DUP3 ADD MSTORE PUSH6 0x646472657373 PUSH1 0xD0 SHL PUSH1 0x64 DUP3 ADD MSTORE PUSH1 0x84 SWAP1 REVERT JUMPDEST PUSH1 0x0 DUP1 REVERT JUMPDEST CALLVALUE PUSH2 0x1C4 JUMPI PUSH1 0x0 CALLDATASIZE PUSH1 0x3 NOT ADD SLT PUSH2 0x1C4 JUMPI PUSH1 0x20 PUSH1 0x3 SLOAD PUSH1 0x40 MLOAD SWAP1 DUP2 MSTORE RETURN JUMPDEST CALLVALUE PUSH2 0x1C4 JUMPI PUSH1 0x20 DUP1 PUSH1 0x3 NOT CALLDATASIZE ADD SLT PUSH2 0x1C4 JUMPI PUSH1 0x1 PUSH1 0x1 PUSH1 0xA0 SHL SUB PUSH2 0x209 PUSH2 0x141D JUMP JUMPDEST AND PUSH1 0x0 MSTORE PUSH1 0x7 DUP2 MSTORE PUSH1 0x40 PUSH1 0x0 KECCAK256 SWAP1 PUSH1 0x40 MLOAD SWAP1 DUP2 DUP2 DUP5 SLOAD SWAP2 DUP3 DUP2 MSTORE ADD SWAP4 PUSH1 0x0 MSTORE DUP2 PUSH1 0x0 KECCAK256 SWAP2 PUSH1 0x0 SWAP1 JUMPDEST DUP3 DUP3 LT PUSH2 0x258 JUMPI PUSH2 0x254 DUP6 PUSH2 0x248 DUP2 DUP10 SUB DUP3 PUSH2 0x1461 JUMP JUMPDEST PUSH1 0x40 MLOAD SWAP2 DUP3 SWAP2 DUP3 PUSH2 0x14EC JUMP JUMPDEST SUB SWAP1 RETURN JUMPDEST DUP4 SLOAD DUP7 MSTORE SWAP5 DUP6 ADD SWAP5 PUSH1 0x1 SWAP4 DUP5 ADD SWAP4 SWAP1 SWAP2 ADD SWAP1 PUSH2 0x231 JUMP JUMPDEST CALLVALUE PUSH2 0x1C4 JUMPI PUSH1 0x0 CALLDATASIZE PUSH1 0x3 NOT ADD SLT PUSH2 0x1C4 JUMPI PUSH1 0x4 SLOAD PUSH1 0x40 MLOAD PUSH1 0x1 PUSH1 0x1 PUSH1 0xA0 SHL SUB SWAP1 SWAP2 AND DUP2 MSTORE PUSH1 0x20 SWAP1 RETURN JUMPDEST PUSH1 0x80 CALLDATASIZE PUSH1 0x3 NOT ADD SLT PUSH2 0x1C4 JUMPI PUSH1 0x4 CALLDATALOAD PUSH1 0x1 PUSH1 0x1 PUSH1 0x40 SHL SUB DUP2 GT PUSH2 0x1C4 JUMPI PUSH2 0x2C3 SWAP1 CALLDATASIZE SWAP1 PUSH1 0x4 ADD PUSH2 0x1647 JUMP JUMPDEST PUSH1 0x24 CALLDATALOAD PUSH1 0x1 PUSH1 0x1 PUSH1 0x40 SHL SUB DUP2 GT PUSH2 0x1C4 JUMPI PUSH2 0x2E2 SWAP1 CALLDATASIZE SWAP1 PUSH1 0x4 ADD PUSH2 0x1647 JUMP JUMPDEST PUSH1 0x44 SWAP4 SWAP2 SWAP4 CALLDATALOAD PUSH1 0x1 PUSH1 0x1 PUSH1 0x40 SHL SUB DUP2 GT PUSH2 0x1C4 JUMPI PUSH2 0x304 SWAP1 CALLDATASIZE SWAP1 PUSH1 0x4 ADD PUSH2 0x1647 JUMP JUMPDEST SWAP1 PUSH1 0x64 CALLDATALOAD PUSH1 0x1 PUSH1 0x1 PUSH1 0x40 SHL SUB DUP2 GT PUSH2 0x1C4 JUMPI PUSH2 0x324 SWAP1 CALLDATASIZE SWAP1 PUSH1 0x4 ADD PUSH2 0x1647 JUMP JUMPDEST SWAP1 SWAP4 PUSH2 0x32E PUSH2 0x18EB JUMP JUMPDEST DUP1 DUP8 EQ DUP1 PUSH2 0x908 JUMPI JUMPDEST DUP1 PUSH2 0x8FF JUMPI JUMPDEST ISZERO PUSH2 0x8BB JUMPI PUSH1 0x0 DUP1 JUMPDEST DUP4 DUP2 LT PUSH2 0x896 JUMPI POP CALLVALUE SUB PUSH2 0x851 JUMPI PUSH2 0x35D DUP8 PUSH2 0x1951 JUMP JUMPDEST SWAP7 PUSH2 0x36B PUSH1 0x40 MLOAD SWAP9 DUP10 PUSH2 0x1461 JUMP JUMPDEST DUP1 DUP9 MSTORE PUSH1 0x1F NOT PUSH2 0x37A DUP3 PUSH2 0x1951 JUMP JUMPDEST ADD CALLDATASIZE PUSH1 0x20 DUP11 ADD CALLDATACOPY PUSH1 0x0 JUMPDEST DUP2 DUP2 LT PUSH2 0x39D JUMPI PUSH1 0x1 DUP1 SSTORE PUSH1 0x40 MLOAD DUP1 PUSH2 0x254 DUP12 DUP3 PUSH2 0x14EC JUMP JUMPDEST PUSH2 0x3A8 DUP2 DUP4 DUP11 PUSH2 0x1941 JUMP JUMPDEST CALLDATALOAD SWAP1 PUSH2 0x3B5 DUP2 DUP6 DUP14 PUSH2 0x1941 JUMP JUMPDEST CALLDATALOAD PUSH1 0x1 PUSH1 0x1 PUSH1 0xA0 SHL SUB DUP2 AND DUP2 SUB PUSH2 0x1C4 JUMPI DUP8 DUP3 LT ISZERO PUSH2 0x83B JUMPI DUP2 PUSH1 0x5 SHL DUP8 ADD CALLDATALOAD PUSH1 0x1E NOT DUP9 CALLDATASIZE SUB ADD DUP2 SLT ISZERO PUSH2 0x1C4 JUMPI PUSH1 0x1 PUSH1 0x1 PUSH1 0x40 SHL SUB DUP2 DUP10 ADD CALLDATALOAD GT PUSH2 0x1C4 JUMPI DUP1 DUP9 ADD CALLDATALOAD CALLDATASIZE SUB PUSH1 0x20 DUP3 DUP11 ADD ADD SGT PUSH2 0x1C4 JUMPI PUSH2 0x418 SWAP1 CALLDATASIZE SWAP1 DUP10 ADD DUP1 CALLDATALOAD SWAP1 PUSH1 0x20 ADD PUSH2 0x149D JUMP JUMPDEST PUSH2 0x423 DUP4 DUP9 DUP13 PUSH2 0x1941 JUMP JUMPDEST CALLDATALOAD SWAP4 PUSH2 0x430 DUP6 ISZERO ISZERO PUSH2 0x16CF JUMP JUMPDEST PUSH2 0x444 PUSH1 0x1 PUSH1 0x1 PUSH1 0xA0 SHL SUB DUP5 AND ISZERO ISZERO PUSH2 0x1729 JUMP JUMPDEST PUSH1 0x2 SLOAD PUSH1 0x40 MLOAD PUSH4 0x9CC449D PUSH1 0xE0 SHL DUP2 MSTORE PUSH1 0x4 DUP2 ADD DUP4 SWAP1 MSTORE PUSH1 0x1 PUSH1 0x1 PUSH1 0xA0 SHL SUB DUP6 DUP2 AND PUSH1 0x24 DUP4 ADD MSTORE SWAP1 SWAP2 PUSH1 0x20 SWAP2 DUP4 SWAP2 PUSH1 0x44 SWAP2 DUP4 SWAP2 AND GAS STATICCALL DUP1 ISZERO PUSH2 0x6EA JUMPI PUSH2 0x492 SWAP2 PUSH1 0x0 SWAP2 PUSH2 0x80C JUMPI JUMPDEST POP PUSH2 0x178D JUMP JUMPDEST PUSH2 0x4AC PUSH2 0x2710 PUSH2 0x4A4 PUSH1 0x3 SLOAD DUP9 PUSH2 0x17E3 JUMP JUMPDEST DIV DUP1 SWAP7 PUSH2 0x180C JUMP JUMPDEST SWAP5 PUSH1 0x1 DUP1 PUSH1 0xA0 SHL SUB DUP5 AND PUSH1 0x0 MSTORE PUSH1 0x5 PUSH1 0x20 MSTORE PUSH1 0x40 PUSH1 0x0 KECCAK256 PUSH2 0x4CE DUP8 DUP3 SLOAD PUSH2 0x1819 JUMP JUMPDEST SWAP1 SSTORE DUP1 ISZERO ISZERO DUP1 PUSH2 0x7F8 JUMPI JUMPDEST PUSH2 0x7CE JUMPI JUMPDEST POP PUSH1 0x9 SLOAD SWAP3 PUSH2 0x4EC DUP5 PUSH2 0x18A2 JUMP JUMPDEST PUSH1 0x9 SSTORE PUSH1 0x40 MLOAD PUSH2 0x4FB DUP2 PUSH2 0x1433 JUMP JUMPDEST DUP5 DUP2 MSTORE PUSH1 0x20 DUP1 DUP3 ADD DUP5 DUP2 MSTORE PUSH1 0x1 PUSH1 0x1 PUSH1 0xA0 SHL SUB DUP5 DUP2 AND PUSH1 0x40 DUP1 DUP7 ADD SWAP2 DUP3 MSTORE PUSH1 0x60 DUP7 ADD DUP13 DUP2 MSTORE TIMESTAMP PUSH1 0x80 DUP9 ADD SWAP1 DUP2 MSTORE CALLER PUSH1 0xA0 DUP10 ADD SWAP1 DUP2 MSTORE PUSH1 0xC0 DUP10 ADD DUP13 DUP2 MSTORE PUSH1 0x0 DUP15 DUP2 MSTORE PUSH1 0x6 SWAP1 SWAP10 MSTORE SWAP4 SWAP1 SWAP8 KECCAK256 SWAP8 MLOAD DUP9 SSTORE SWAP5 MLOAD PUSH1 0x1 DUP9 ADD SSTORE SWAP2 MLOAD PUSH1 0x2 DUP8 ADD DUP1 SLOAD PUSH1 0x1 PUSH1 0x1 PUSH1 0xA0 SHL SUB NOT SWAP1 DUP2 AND SWAP3 DUP7 AND SWAP3 SWAP1 SWAP3 OR SWAP1 SSTORE SWAP2 MLOAD PUSH1 0x3 DUP8 ADD SSTORE SWAP3 MLOAD PUSH1 0x4 DUP7 ADD SSTORE SWAP3 MLOAD PUSH1 0x5 DUP6 ADD DUP1 SLOAD SWAP1 SWAP5 AND SWAP2 AND OR SWAP1 SWAP2 SSTORE MLOAD DUP1 MLOAD SWAP1 PUSH1 0x1 PUSH1 0x1 PUSH1 0x40 SHL SUB DUP3 GT PUSH2 0x7B8 JUMPI PUSH2 0x5AB PUSH1 0x6 DUP5 ADD SLOAD PUSH2 0x1527 JUMP JUMPDEST PUSH1 0x1F DUP2 GT PUSH2 0x771 JUMPI JUMPDEST POP PUSH1 0x20 SWAP1 PUSH1 0x1F DUP4 GT PUSH1 0x1 EQ PUSH2 0x701 JUMPI PUSH1 0x6 SWAP3 SWAP2 PUSH1 0x0 SWAP2 DUP4 PUSH2 0x6F6 JUMPI JUMPDEST POP POP DUP2 PUSH1 0x1 SHL SWAP2 PUSH1 0x0 NOT SWAP1 PUSH1 0x3 SHL SHR NOT AND OR SWAP2 ADD SSTORE JUMPDEST PUSH1 0x1 DUP1 PUSH1 0xA0 SHL SUB DUP2 AND PUSH1 0x0 MSTORE PUSH1 0x7 PUSH1 0x20 MSTORE PUSH2 0x605 DUP5 PUSH1 0x40 PUSH1 0x0 KECCAK256 PUSH2 0x18B1 JUMP JUMPDEST DUP2 PUSH1 0x0 MSTORE PUSH1 0x8 PUSH1 0x20 MSTORE PUSH2 0x61C DUP5 PUSH1 0x40 PUSH1 0x0 KECCAK256 PUSH2 0x18B1 JUMP JUMPDEST PUSH1 0x2 SLOAD PUSH1 0x1 PUSH1 0x1 PUSH1 0xA0 SHL SUB AND SWAP1 DUP2 EXTCODESIZE ISZERO PUSH2 0x1C4 JUMPI PUSH1 0x40 MLOAD PUSH4 0x4980248B PUSH1 0xE1 SHL DUP2 MSTORE PUSH1 0x4 DUP2 ADD DUP5 SWAP1 MSTORE PUSH1 0x1 PUSH1 0x1 PUSH1 0xA0 SHL SUB DUP3 AND PUSH1 0x24 DUP3 ADD MSTORE PUSH1 0x44 DUP2 ADD DUP9 SWAP1 MSTORE SWAP2 PUSH1 0x0 SWAP1 DUP4 SWAP1 PUSH1 0x64 SWAP1 DUP3 SWAP1 DUP5 SWAP1 GAS CALL SWAP1 DUP2 ISZERO PUSH2 0x6EA JUMPI PUSH2 0x6D6 SWAP8 DUP7 SWAP4 PUSH32 0xD4AC2B6EEF7BD521C5A8A671FC84F501EAC42CDFA24EEA3C98E64DD2E3DD0A28 SWAP4 PUSH2 0x6DB JUMPI JUMPDEST POP PUSH2 0x6C3 PUSH1 0x40 MLOAD SWAP3 DUP4 SWAP3 DUP4 MSTORE PUSH1 0x40 PUSH1 0x20 DUP5 ADD MSTORE PUSH1 0x1 DUP1 PUSH1 0xA0 SHL SUB AND SWAP7 PUSH1 0x40 DUP4 ADD SWAP1 PUSH2 0x1607 JUMP JUMPDEST SUB SWAP1 LOG4 PUSH2 0x6D0 DUP3 DUP13 PUSH2 0x1968 JUMP JUMPDEST MSTORE PUSH2 0x18A2 JUMP JUMPDEST PUSH2 0x384 JUMP JUMPDEST PUSH2 0x6E4 SWAP1 PUSH2 0x144E JUMP JUMPDEST CODESIZE PUSH2 0x69D JUMP JUMPDEST PUSH1 0x40 MLOAD RETURNDATASIZE PUSH1 0x0 DUP3 RETURNDATACOPY RETURNDATASIZE SWAP1 REVERT JUMPDEST ADD MLOAD SWAP1 POP CODESIZE DUP1 PUSH2 0x5D0 JUMP JUMPDEST SWAP1 PUSH1 0x6 DUP5 ADD PUSH1 0x0 MSTORE PUSH1 0x20 PUSH1 0x0 KECCAK256 SWAP2 PUSH1 0x0 JUMPDEST PUSH1 0x1F NOT DUP6 AND DUP2 LT PUSH2 0x759 JUMPI POP SWAP2 DUP4 SWAP2 PUSH1 0x1 SWAP4 PUSH1 0x6 SWAP6 PUSH1 0x1F NOT DUP2 AND LT PUSH2 0x740 JUMPI JUMPDEST POP POP POP DUP2 SHL ADD SWAP2 ADD SSTORE PUSH2 0x5E6 JUMP JUMPDEST ADD MLOAD PUSH1 0x0 NOT PUSH1 0xF8 DUP5 PUSH1 0x3 SHL AND SHR NOT AND SWAP1 SSTORE CODESIZE DUP1 DUP1 PUSH2 0x732 JUMP JUMPDEST SWAP2 SWAP3 PUSH1 0x20 PUSH1 0x1 DUP2 SWAP3 DUP7 DUP6 ADD MLOAD DUP2 SSTORE ADD SWAP5 ADD SWAP3 ADD PUSH2 0x712 JUMP JUMPDEST PUSH1 0x6 DUP5 ADD PUSH1 0x0 MSTORE PUSH1 0x20 PUSH1 0x0 KECCAK256 PUSH1 0x1F DUP5 ADD PUSH1 0x5 SHR DUP2 ADD PUSH1 0x20 DUP6 LT PUSH2 0x7B1 JUMPI JUMPDEST PUSH1 0x1F DUP4 ADD PUSH1 0x5 SHR DUP3 ADD DUP2 LT PUSH2 0x7A5 JUMPI POP POP PUSH2 0x5B4 JUMP JUMPDEST PUSH1 0x0 DUP2 SSTORE PUSH1 0x1 ADD PUSH2 0x78F JUMP JUMPDEST POP DUP1 PUSH2 0x78F JUMP JUMPDEST PUSH4 0x4E487B71 PUSH1 0xE0 SHL PUSH1 0x0 MSTORE PUSH1 0x41 PUSH1 0x4 MSTORE PUSH1 0x24 PUSH1 0x0 REVERT JUMPDEST PUSH1 0x0 DUP1 DUP1 DUP1 PUSH2 0x7F2 SWAP5 PUSH1 0x1 DUP1 PUSH1 0xA0 SHL SUB PUSH1 0x4 SLOAD AND GAS CALL PUSH2 0x7EC PUSH2 0x1826 JUMP JUMPDEST POP PUSH2 0x1856 JUMP JUMPDEST DUP15 PUSH2 0x4DE JUMP JUMPDEST POP PUSH1 0x4 SLOAD PUSH1 0x1 PUSH1 0x1 PUSH1 0xA0 SHL SUB AND ISZERO ISZERO PUSH2 0x4D9 JUMP JUMPDEST PUSH2 0x82E SWAP2 POP PUSH1 0x20 RETURNDATASIZE PUSH1 0x20 GT PUSH2 0x834 JUMPI JUMPDEST PUSH2 0x826 DUP2 DUP4 PUSH2 0x1461 JUMP JUMPDEST DUP2 ADD SWAP1 PUSH2 0x1775 JUMP JUMPDEST CODESIZE PUSH2 0x48C JUMP JUMPDEST POP RETURNDATASIZE PUSH2 0x81C JUMP JUMPDEST PUSH4 0x4E487B71 PUSH1 0xE0 SHL PUSH1 0x0 MSTORE PUSH1 0x32 PUSH1 0x4 MSTORE PUSH1 0x24 PUSH1 0x0 REVERT JUMPDEST PUSH1 0x40 MLOAD PUSH3 0x461BCD PUSH1 0xE5 SHL DUP2 MSTORE PUSH1 0x20 PUSH1 0x4 DUP3 ADD MSTORE PUSH1 0x1B PUSH1 0x24 DUP3 ADD MSTORE PUSH32 0x496E636F727265637420746F74616C20616D6F756E742073656E740000000000 PUSH1 0x44 DUP3 ADD MSTORE PUSH1 0x64 SWAP1 REVERT JUMPDEST SWAP1 PUSH2 0x8B0 PUSH2 0x8B6 SWAP2 PUSH2 0x8A9 DUP5 DUP8 DUP12 PUSH2 0x1941 JUMP JUMPDEST CALLDATALOAD SWAP1 PUSH2 0x1819 JUMP JUMPDEST SWAP2 PUSH2 0x18A2 JUMP JUMPDEST PUSH2 0x346 JUMP JUMPDEST PUSH1 0x64 PUSH1 0x40 MLOAD PUSH3 0x461BCD PUSH1 0xE5 SHL DUP2 MSTORE PUSH1 0x20 PUSH1 0x4 DUP3 ADD MSTORE PUSH1 0x20 PUSH1 0x24 DUP3 ADD MSTORE PUSH32 0x417272617973206D7573742068617665207468652073616D65206C656E677468 PUSH1 0x44 DUP3 ADD MSTORE REVERT JUMPDEST POP DUP2 DUP5 EQ PUSH2 0x33D JUMP JUMPDEST POP DUP4 DUP2 EQ PUSH2 0x337 JUMP JUMPDEST CALLVALUE PUSH2 0x1C4 JUMPI PUSH1 0x20 CALLDATASIZE PUSH1 0x3 NOT ADD SLT PUSH2 0x1C4 JUMPI PUSH1 0x4 CALLDATALOAD PUSH2 0x92D PUSH2 0x1677 JUMP JUMPDEST PUSH2 0xBB8 DUP2 GT PUSH2 0x967 JUMPI PUSH1 0x20 DUP2 PUSH32 0x45610D581145924DD7090A5017E5F2B1D6F42213BB2E95707FF86846BBFCB1CA SWAP3 PUSH1 0x3 SSTORE PUSH1 0x40 MLOAD SWAP1 DUP2 MSTORE LOG1 STOP JUMPDEST PUSH1 0x40 MLOAD PUSH3 0x461BCD PUSH1 0xE5 SHL DUP2 MSTORE PUSH1 0x20 PUSH1 0x4 DUP3 ADD MSTORE PUSH1 0x15 PUSH1 0x24 DUP3 ADD MSTORE PUSH21 0x4665652063616E6E6F742065786365656420333025 PUSH1 0x58 SHL PUSH1 0x44 DUP3 ADD MSTORE PUSH1 0x64 SWAP1 REVERT JUMPDEST CALLVALUE PUSH2 0x1C4 JUMPI PUSH1 0x20 CALLDATASIZE PUSH1 0x3 NOT ADD SLT PUSH2 0x1C4 JUMPI PUSH1 0x4 CALLDATALOAD DUP1 ISZERO ISZERO DUP1 PUSH2 0xABE JUMPI JUMPDEST ISZERO PUSH2 0xA80 JUMPI PUSH1 0x0 MSTORE PUSH1 0x6 PUSH1 0x20 MSTORE PUSH1 0x40 PUSH1 0x0 KECCAK256 PUSH1 0x40 MLOAD SWAP1 PUSH2 0x9E0 DUP3 PUSH2 0x1433 JUMP JUMPDEST DUP1 SLOAD DUP3 MSTORE PUSH2 0x254 PUSH1 0xC0 PUSH1 0x1 DUP4 ADD SLOAD SWAP4 PUSH1 0x20 DUP2 ADD SWAP5 DUP6 MSTORE PUSH1 0x1 DUP1 PUSH1 0xA0 SHL SUB SWAP4 DUP5 PUSH1 0x2 DUP3 ADD SLOAD AND SWAP5 PUSH1 0x40 DUP4 ADD SWAP6 DUP7 MSTORE DUP1 PUSH1 0x3 DUP4 ADD SLOAD SWAP8 PUSH1 0x60 DUP6 ADD SWAP9 DUP10 MSTORE PUSH1 0x4 DUP5 ADD SLOAD SWAP5 PUSH1 0x80 DUP2 ADD SWAP6 DUP7 MSTORE PUSH2 0xA42 PUSH1 0x6 DUP5 PUSH1 0x5 DUP9 ADD SLOAD AND SWAP7 PUSH1 0xA0 DUP5 ADD SWAP8 DUP9 MSTORE ADD PUSH2 0x1561 JUMP JUMPDEST SWAP7 DUP8 SWAP2 ADD MSTORE MLOAD SWAP7 MLOAD AND SWAP7 MLOAD SWAP3 MLOAD SWAP2 MLOAD AND SWAP2 PUSH1 0x40 MLOAD SWAP7 DUP8 SWAP7 DUP8 MSTORE PUSH1 0x20 DUP8 ADD MSTORE PUSH1 0x40 DUP7 ADD MSTORE PUSH1 0x60 DUP6 ADD MSTORE PUSH1 0x80 DUP5 ADD MSTORE PUSH1 0xC0 PUSH1 0xA0 DUP5 ADD MSTORE PUSH1 0xC0 DUP4 ADD SWAP1 PUSH2 0x1607 JUMP JUMPDEST PUSH1 0x40 MLOAD PUSH3 0x461BCD PUSH1 0xE5 SHL DUP2 MSTORE PUSH1 0x20 PUSH1 0x4 DUP3 ADD MSTORE PUSH1 0x16 PUSH1 0x24 DUP3 ADD MSTORE PUSH22 0x14185E5B595B9D08191BD95CC81B9BDD08195E1A5CDD PUSH1 0x52 SHL PUSH1 0x44 DUP3 ADD MSTORE PUSH1 0x64 SWAP1 REVERT JUMPDEST POP PUSH1 0x9 SLOAD DUP2 LT PUSH2 0x9C1 JUMP JUMPDEST CALLVALUE PUSH2 0x1C4 JUMPI PUSH1 0x40 CALLDATASIZE PUSH1 0x3 NOT ADD SLT PUSH2 0x1C4 JUMPI PUSH2 0xAE2 PUSH2 0x141D JUMP JUMPDEST PUSH1 0x1 PUSH1 0x1 PUSH1 0xA0 SHL SUB AND PUSH1 0x0 SWAP1 DUP2 MSTORE PUSH1 0x7 PUSH1 0x20 MSTORE PUSH1 0x40 SWAP1 KECCAK256 DUP1 SLOAD PUSH1 0x24 CALLDATALOAD SWAP2 SWAP1 DUP3 LT ISZERO PUSH2 0x1C4 JUMPI PUSH1 0x20 SWAP2 PUSH2 0xB13 SWAP2 PUSH2 0x14D4 JUMP JUMPDEST SWAP1 SLOAD PUSH1 0x40 MLOAD SWAP2 PUSH1 0x3 SHL SHR DUP2 MSTORE RETURN JUMPDEST CALLVALUE PUSH2 0x1C4 JUMPI PUSH1 0x0 CALLDATASIZE PUSH1 0x3 NOT ADD SLT PUSH2 0x1C4 JUMPI PUSH1 0x0 SLOAD PUSH1 0x40 MLOAD PUSH1 0x1 PUSH1 0x1 PUSH1 0xA0 SHL SUB SWAP1 SWAP2 AND DUP2 MSTORE PUSH1 0x20 SWAP1 RETURN JUMPDEST CALLVALUE PUSH2 0x1C4 JUMPI PUSH1 0x20 CALLDATASIZE PUSH1 0x3 NOT ADD SLT PUSH2 0x1C4 JUMPI PUSH1 0x4 CALLDATALOAD PUSH1 0x0 MSTORE PUSH1 0x6 PUSH1 0x20 MSTORE PUSH1 0x40 PUSH1 0x0 KECCAK256 DUP1 SLOAD PUSH2 0x254 PUSH1 0x1 DUP4 ADD SLOAD SWAP3 PUSH1 0x1 DUP1 PUSH1 0xA0 SHL SUB SWAP1 DUP2 PUSH1 0x2 DUP3 ADD SLOAD AND SWAP2 PUSH1 0x3 DUP3 ADD SLOAD PUSH2 0xBA3 PUSH1 0x6 PUSH1 0x4 DUP6 ADD SLOAD SWAP4 PUSH1 0x5 DUP7 ADD SLOAD AND SWAP5 ADD PUSH2 0x1561 JUMP JUMPDEST SWAP4 PUSH1 0x40 MLOAD SWAP8 DUP9 SWAP8 DUP9 MSTORE PUSH1 0x20 DUP9 ADD MSTORE PUSH1 0x40 DUP8 ADD MSTORE PUSH1 0x60 DUP7 ADD MSTORE PUSH1 0x80 DUP6 ADD MSTORE PUSH1 0xA0 DUP5 ADD MSTORE PUSH1 0xE0 PUSH1 0xC0 DUP5 ADD MSTORE PUSH1 0xE0 DUP4 ADD SWAP1 PUSH2 0x1607 JUMP JUMPDEST CALLVALUE PUSH2 0x1C4 JUMPI PUSH1 0x20 CALLDATASIZE PUSH1 0x3 NOT ADD SLT PUSH2 0x1C4 JUMPI PUSH2 0xBEF PUSH2 0x141D JUMP JUMPDEST PUSH2 0xBF7 PUSH2 0x1677 JUMP JUMPDEST PUSH1 0x1 PUSH1 0x1 PUSH1 0xA0 SHL SUB AND DUP1 ISZERO PUSH2 0xC4C JUMPI PUSH1 0x20 DUP2 PUSH32 0xB6A5E89655CF506139085F051AF608195ED056F8DC550B180A1C38D401E2B6C4 SWAP3 PUSH12 0xFFFFFFFFFFFFFFFFFFFFFFFF PUSH1 0xA0 SHL PUSH1 0x4 SLOAD AND OR PUSH1 0x4 SSTORE PUSH1 0x40 MLOAD SWAP1 DUP2 MSTORE LOG1 STOP JUMPDEST PUSH1 0x40 MLOAD PUSH3 0x461BCD PUSH1 0xE5 SHL DUP2 MSTORE PUSH1 0x20 PUSH1 0x4 DUP3 ADD MSTORE PUSH1 0xF PUSH1 0x24 DUP3 ADD MSTORE PUSH15 0x496E76616C69642061646472657373 PUSH1 0x88 SHL PUSH1 0x44 DUP3 ADD MSTORE PUSH1 0x64 SWAP1 REVERT JUMPDEST CALLVALUE PUSH2 0x1C4 JUMPI PUSH1 0x20 DUP1 PUSH1 0x3 NOT CALLDATASIZE ADD SLT PUSH2 0x1C4 JUMPI PUSH1 0x4 CALLDATALOAD PUSH1 0x0 MSTORE PUSH1 0x8 DUP2 MSTORE PUSH1 0x40 PUSH1 0x0 KECCAK256 SWAP1 PUSH1 0x40 MLOAD SWAP1 DUP2 DUP2 DUP5 SLOAD SWAP2 DUP3 DUP2 MSTORE ADD SWAP4 PUSH1 0x0 MSTORE DUP2 PUSH1 0x0 KECCAK256 SWAP2 PUSH1 0x0 SWAP1 JUMPDEST DUP3 DUP3 LT PUSH2 0xCD6 JUMPI PUSH2 0x254 DUP6 PUSH2 0x248 DUP2 DUP10 SUB DUP3 PUSH2 0x1461 JUMP JUMPDEST DUP4 SLOAD DUP7 MSTORE SWAP5 DUP6 ADD SWAP5 PUSH1 0x1 SWAP4 DUP5 ADD SWAP4 SWAP1 SWAP2 ADD SWAP1 PUSH2 0xCBF JUMP JUMPDEST CALLVALUE PUSH2 0x1C4 JUMPI PUSH1 0x0 CALLDATASIZE PUSH1 0x3 NOT ADD SLT PUSH2 0x1C4 JUMPI PUSH1 0x2 SLOAD PUSH1 0x40 MLOAD PUSH1 0x1 PUSH1 0x1 PUSH1 0xA0 SHL SUB SWAP1 SWAP2 AND DUP2 MSTORE PUSH1 0x20 SWAP1 RETURN JUMPDEST CALLVALUE PUSH2 0x1C4 JUMPI PUSH1 0x0 CALLDATASIZE PUSH1 0x3 NOT ADD SLT PUSH2 0x1C4 JUMPI PUSH2 0xD2F PUSH2 0x1677 JUMP JUMPDEST PUSH1 0x0 DUP1 SLOAD PUSH1 0x1 PUSH1 0x1 PUSH1 0xA0 SHL SUB NOT DUP2 AND DUP3 SSTORE PUSH1 0x1 PUSH1 0x1 PUSH1 0xA0 SHL SUB AND PUSH32 0x8BE0079C531659141344CD1FD0A4F28419497F9722A3DAAFE3B4186F6B6457E0 DUP3 DUP1 LOG3 STOP JUMPDEST CALLVALUE PUSH2 0x1C4 JUMPI PUSH1 0x40 CALLDATASIZE PUSH1 0x3 NOT ADD SLT PUSH2 0x1C4 JUMPI PUSH1 0x24 CALLDATALOAD PUSH1 0x4 CALLDATALOAD PUSH1 0x0 MSTORE PUSH1 0x8 PUSH1 0x20 MSTORE PUSH1 0x40 PUSH1 0x0 KECCAK256 DUP1 SLOAD DUP3 LT ISZERO PUSH2 0x1C4 JUMPI PUSH1 0x20 SWAP2 PUSH2 0xB13 SWAP2 PUSH2 0x14D4 JUMP JUMPDEST CALLVALUE PUSH2 0x1C4 JUMPI PUSH1 0x20 CALLDATASIZE PUSH1 0x3 NOT ADD SLT PUSH2 0x1C4 JUMPI PUSH1 0x1 PUSH1 0x1 PUSH1 0xA0 SHL SUB PUSH2 0xDC9 PUSH2 0x141D JUMP JUMPDEST AND PUSH1 0x0 MSTORE PUSH1 0x5 PUSH1 0x20 MSTORE PUSH1 0x20 PUSH1 0x40 PUSH1 0x0 KECCAK256 SLOAD PUSH1 0x40 MLOAD SWAP1 DUP2 MSTORE RETURN JUMPDEST CALLVALUE PUSH2 0x1C4 JUMPI PUSH1 0x20 DUP1 PUSH1 0x3 NOT CALLDATASIZE ADD SLT PUSH2 0x1C4 JUMPI PUSH1 0x4 CALLDATALOAD PUSH1 0x0 MSTORE PUSH1 0x8 DUP2 MSTORE PUSH1 0x40 PUSH1 0x0 KECCAK256 PUSH1 0x40 MLOAD DUP1 DUP3 DUP5 DUP3 SWAP5 SLOAD SWAP4 DUP5 DUP2 MSTORE ADD SWAP1 PUSH1 0x0 MSTORE DUP5 PUSH1 0x0 KECCAK256 SWAP3 PUSH1 0x0 JUMPDEST DUP7 DUP3 DUP3 LT PUSH2 0xE77 JUMPI DUP5 PUSH2 0xE32 DUP2 DUP7 SUB DUP3 PUSH2 0x1461 JUMP JUMPDEST PUSH1 0x0 DUP1 JUMPDEST DUP3 MLOAD DUP3 LT ISZERO PUSH2 0xE6D JUMPI PUSH2 0x8B0 PUSH2 0xE67 SWAP2 PUSH2 0xE50 DUP5 DUP7 PUSH2 0x1968 JUMP JUMPDEST MLOAD PUSH1 0x0 MSTORE PUSH1 0x6 DUP7 MSTORE PUSH1 0x3 PUSH1 0x40 PUSH1 0x0 KECCAK256 ADD SLOAD SWAP1 PUSH2 0x1819 JUMP JUMPDEST SWAP1 PUSH2 0xE36 JUMP JUMPDEST DUP4 SWAP1 PUSH1 0x40 MLOAD SWAP1 DUP2 MSTORE RETURN JUMPDEST DUP6 SLOAD DUP5 MSTORE PUSH1 0x1 SWAP6 DUP7 ADD SWAP6 DUP8 SWAP6 POP SWAP4 ADD SWAP3 ADD PUSH2 0xE1D JUMP JUMPDEST PUSH1 0x60 CALLDATASIZE PUSH1 0x3 NOT ADD SLT PUSH2 0x1C4 JUMPI PUSH1 0x24 CALLDATALOAD PUSH1 0x1 PUSH1 0x1 PUSH1 0xA0 SHL SUB DUP2 AND SWAP1 SUB PUSH2 0x1C4 JUMPI PUSH1 0x44 CALLDATALOAD PUSH1 0x1 PUSH1 0x1 PUSH1 0x40 SHL SUB DUP2 GT PUSH2 0x1C4 JUMPI CALLDATASIZE PUSH1 0x23 DUP3 ADD SLT ISZERO PUSH2 0x1C4 JUMPI PUSH2 0xEDC SWAP1 CALLDATASIZE SWAP1 PUSH1 0x24 DUP2 PUSH1 0x4 ADD CALLDATALOAD SWAP2 ADD PUSH2 0x149D JUMP JUMPDEST PUSH2 0xEE4 PUSH2 0x18EB JUMP JUMPDEST PUSH2 0xEEF CALLVALUE ISZERO ISZERO PUSH2 0x16CF JUMP JUMPDEST PUSH2 0xF05 PUSH1 0x24 CALLDATALOAD PUSH1 0x1 PUSH1 0x1 PUSH1 0xA0 SHL SUB AND ISZERO ISZERO PUSH2 0x1729 JUMP JUMPDEST PUSH1 0x2 SLOAD PUSH1 0x40 MLOAD PUSH4 0x9CC449D PUSH1 0xE0 SHL DUP2 MSTORE PUSH1 0x4 DUP1 CALLDATALOAD SWAP1 DUP3 ADD MSTORE PUSH1 0x1 PUSH1 0x1 PUSH1 0xA0 SHL SUB PUSH1 0x24 DUP1 CALLDATALOAD DUP3 AND SWAP1 DUP4 ADD MSTORE SWAP1 SWAP2 PUSH1 0x20 SWAP2 DUP4 SWAP2 AND DUP2 DUP1 PUSH1 0x44 DUP2 ADD SUB SWAP2 GAS STATICCALL DUP1 ISZERO PUSH2 0x6EA JUMPI PUSH2 0xF58 SWAP2 PUSH1 0x0 SWAP2 PUSH2 0x12B7 JUMPI POP PUSH2 0x178D JUMP JUMPDEST PUSH2 0x2710 PUSH2 0xF67 PUSH1 0x3 SLOAD CALLVALUE PUSH2 0x17E3 JUMP JUMPDEST DIV PUSH2 0xF72 DUP2 CALLVALUE PUSH2 0x180C JUMP JUMPDEST SWAP1 PUSH1 0x1 DUP1 PUSH1 0xA0 SHL SUB PUSH1 0x24 CALLDATALOAD AND PUSH1 0x0 MSTORE PUSH1 0x5 PUSH1 0x20 MSTORE PUSH1 0x40 PUSH1 0x0 KECCAK256 PUSH2 0xF96 DUP4 DUP3 SLOAD PUSH2 0x1819 JUMP JUMPDEST SWAP1 SSTORE DUP1 ISZERO ISZERO DUP1 PUSH2 0x12A3 JUMPI JUMPDEST PUSH2 0x127F JUMPI JUMPDEST POP PUSH1 0x9 SLOAD SWAP1 PUSH2 0xFB4 DUP3 PUSH2 0x18A2 JUMP JUMPDEST PUSH1 0x9 SSTORE PUSH1 0x40 MLOAD PUSH2 0xFC3 DUP2 PUSH2 0x1433 JUMP JUMPDEST DUP3 DUP2 MSTORE PUSH1 0x4 DUP1 CALLDATALOAD PUSH1 0x20 DUP1 DUP5 ADD SWAP2 DUP3 MSTORE PUSH1 0x24 CALLDATALOAD PUSH1 0x1 PUSH1 0x1 PUSH1 0xA0 SHL SUB SWAP1 DUP2 AND PUSH1 0x40 DUP1 DUP8 ADD SWAP2 DUP3 MSTORE PUSH1 0x60 DUP8 ADD DUP9 DUP2 MSTORE TIMESTAMP PUSH1 0x80 DUP10 ADD SWAP1 DUP2 MSTORE CALLER PUSH1 0xA0 DUP11 ADD SWAP1 DUP2 MSTORE PUSH1 0xC0 DUP11 ADD DUP14 DUP2 MSTORE PUSH1 0x0 DUP14 DUP2 MSTORE PUSH1 0x6 SWAP1 SWAP9 MSTORE SWAP4 SWAP1 SWAP7 KECCAK256 SWAP9 MLOAD DUP10 SSTORE SWAP6 MLOAD PUSH1 0x1 DUP10 ADD SSTORE SWAP2 MLOAD PUSH1 0x2 DUP9 ADD DUP1 SLOAD PUSH1 0x1 PUSH1 0x1 PUSH1 0xA0 SHL SUB NOT SWAP1 DUP2 AND SWAP3 DUP7 AND SWAP3 SWAP1 SWAP3 OR SWAP1 SSTORE SWAP2 MLOAD PUSH1 0x3 DUP9 ADD SSTORE SWAP4 MLOAD SWAP5 DUP7 ADD SWAP5 SWAP1 SWAP5 SSTORE SWAP1 MLOAD PUSH1 0x5 DUP6 ADD DUP1 SLOAD SWAP1 SWAP5 AND SWAP2 AND OR SWAP1 SWAP2 SSTORE MLOAD DUP1 MLOAD SWAP1 PUSH1 0x1 PUSH1 0x1 PUSH1 0x40 SHL SUB DUP3 GT PUSH2 0x7B8 JUMPI PUSH2 0x107C PUSH1 0x6 DUP5 ADD SLOAD PUSH2 0x1527 JUMP JUMPDEST PUSH1 0x1F DUP2 GT PUSH2 0x1238 JUMPI JUMPDEST POP PUSH1 0x20 SWAP1 PUSH1 0x1F DUP4 GT PUSH1 0x1 EQ PUSH2 0x11C8 JUMPI PUSH1 0x6 SWAP3 SWAP2 PUSH1 0x0 SWAP2 DUP4 PUSH2 0x11BD JUMPI JUMPDEST POP POP DUP2 PUSH1 0x1 SHL SWAP2 PUSH1 0x0 NOT SWAP1 PUSH1 0x3 SHL SHR NOT AND OR SWAP2 ADD SSTORE JUMPDEST PUSH1 0x1 DUP1 PUSH1 0xA0 SHL SUB PUSH1 0x24 CALLDATALOAD AND PUSH1 0x0 MSTORE PUSH1 0x7 PUSH1 0x20 MSTORE PUSH2 0x10D8 DUP3 PUSH1 0x40 PUSH1 0x0 KECCAK256 PUSH2 0x18B1 JUMP JUMPDEST PUSH1 0x4 CALLDATALOAD PUSH1 0x0 MSTORE PUSH1 0x8 PUSH1 0x20 MSTORE PUSH2 0x10F1 DUP3 PUSH1 0x40 PUSH1 0x0 KECCAK256 PUSH2 0x18B1 JUMP JUMPDEST PUSH1 0x2 SLOAD PUSH1 0x1 PUSH1 0x1 PUSH1 0xA0 SHL SUB AND SWAP3 DUP4 EXTCODESIZE ISZERO PUSH2 0x1C4 JUMPI PUSH1 0x40 MLOAD PUSH4 0x4980248B PUSH1 0xE1 SHL DUP2 MSTORE PUSH1 0x4 DUP1 CALLDATALOAD SWAP1 DUP3 ADD MSTORE PUSH1 0x24 DUP1 CALLDATALOAD PUSH1 0x1 PUSH1 0x1 PUSH1 0xA0 SHL SUB AND SWAP1 DUP3 ADD MSTORE PUSH1 0x44 DUP2 ADD DUP4 SWAP1 MSTORE SWAP4 PUSH1 0x0 SWAP1 DUP6 SWAP1 DUP2 DUP4 DUP2 PUSH1 0x64 DUP2 ADD SUB SWAP3 GAS CALL SWAP4 DUP5 ISZERO PUSH2 0x6EA JUMPI PUSH1 0x20 SWAP5 PUSH2 0x11AE JUMPI JUMPDEST POP PUSH1 0x40 MLOAD SWAP2 DUP3 MSTORE PUSH1 0x40 DUP5 DUP4 ADD MSTORE DUP3 PUSH32 0xD4AC2B6EEF7BD521C5A8A671FC84F501EAC42CDFA24EEA3C98E64DD2E3DD0A28 PUSH1 0x1 DUP1 PUSH1 0xA0 SHL SUB PUSH1 0x24 CALLDATALOAD AND SWAP4 DUP1 PUSH2 0x119F PUSH1 0x4 CALLDATALOAD SWAP6 PUSH1 0x40 DUP4 ADD SWAP1 PUSH2 0x1607 JUMP JUMPDEST SUB SWAP1 LOG4 PUSH1 0x1 DUP1 SSTORE PUSH1 0x40 MLOAD SWAP1 DUP2 MSTORE RETURN JUMPDEST PUSH2 0x11B7 SWAP1 PUSH2 0x144E JUMP JUMPDEST DUP5 PUSH2 0x1152 JUMP JUMPDEST ADD MLOAD SWAP1 POP DUP8 DUP1 PUSH2 0x10A1 JUMP JUMPDEST SWAP1 PUSH1 0x6 DUP5 ADD PUSH1 0x0 MSTORE PUSH1 0x20 PUSH1 0x0 KECCAK256 SWAP2 PUSH1 0x0 JUMPDEST PUSH1 0x1F NOT DUP6 AND DUP2 LT PUSH2 0x1220 JUMPI POP SWAP2 DUP4 SWAP2 PUSH1 0x1 SWAP4 PUSH1 0x6 SWAP6 PUSH1 0x1F NOT DUP2 AND LT PUSH2 0x1207 JUMPI JUMPDEST POP POP POP DUP2 SHL ADD SWAP2 ADD SSTORE PUSH2 0x10B7 JUMP JUMPDEST ADD MLOAD PUSH1 0x0 NOT PUSH1 0xF8 DUP5 PUSH1 0x3 SHL AND SHR NOT AND SWAP1 SSTORE DUP8 DUP1 DUP1 PUSH2 0x11F9 JUMP JUMPDEST SWAP2 SWAP3 PUSH1 0x20 PUSH1 0x1 DUP2 SWAP3 DUP7 DUP6 ADD MLOAD DUP2 SSTORE ADD SWAP5 ADD SWAP3 ADD PUSH2 0x11D9 JUMP JUMPDEST PUSH1 0x6 DUP5 ADD PUSH1 0x0 MSTORE PUSH1 0x20 PUSH1 0x0 KECCAK256 PUSH1 0x1F DUP5 ADD PUSH1 0x5 SHR DUP2 ADD PUSH1 0x20 DUP6 LT PUSH2 0x1278 JUMPI JUMPDEST PUSH1 0x1F DUP4 ADD PUSH1 0x5 SHR DUP3 ADD DUP2 LT PUSH2 0x126C JUMPI POP POP PUSH2 0x1085 JUMP JUMPDEST PUSH1 0x0 DUP2 SSTORE PUSH1 0x1 ADD PUSH2 0x1256 JUMP JUMPDEST POP DUP1 PUSH2 0x1256 JUMP JUMPDEST PUSH1 0x0 DUP1 DUP1 DUP1 PUSH2 0x129D SWAP5 PUSH1 0x1 DUP1 PUSH1 0xA0 SHL SUB PUSH1 0x4 SLOAD AND GAS CALL PUSH2 0x7EC PUSH2 0x1826 JUMP JUMPDEST DUP3 PUSH2 0xFA6 JUMP JUMPDEST POP PUSH1 0x4 SLOAD PUSH1 0x1 PUSH1 0x1 PUSH1 0xA0 SHL SUB AND ISZERO ISZERO PUSH2 0xFA1 JUMP JUMPDEST PUSH2 0x12D0 SWAP2 POP PUSH1 0x20 RETURNDATASIZE PUSH1 0x20 GT PUSH2 0x834 JUMPI PUSH2 0x826 DUP2 DUP4 PUSH2 0x1461 JUMP JUMPDEST DUP4 PUSH2 0x48C JUMP JUMPDEST CALLVALUE PUSH2 0x1C4 JUMPI PUSH1 0x0 CALLDATASIZE PUSH1 0x3 NOT ADD SLT PUSH2 0x1C4 JUMPI PUSH2 0x12EF PUSH2 0x18EB JUMP JUMPDEST CALLER PUSH1 0x0 MSTORE PUSH1 0x5 PUSH1 0x20 MSTORE PUSH1 0x40 PUSH1 0x0 KECCAK256 SLOAD DUP1 ISZERO PUSH2 0x13A2 JUMPI CALLER PUSH1 0x0 MSTORE PUSH1 0x5 PUSH1 0x20 MSTORE PUSH1 0x0 PUSH1 0x40 DUP2 KECCAK256 SSTORE PUSH1 0x0 DUP1 DUP1 DUP1 DUP5 CALLER GAS CALL PUSH2 0x1325 PUSH2 0x1826 JUMP JUMPDEST POP ISZERO PUSH2 0x135D JUMPI PUSH1 0x40 MLOAD SWAP1 DUP2 MSTORE PUSH32 0x9C56D4E207B08F0DF71C47BE77F4558C7954505688B8F5372C828ED167846E40 PUSH1 0x20 CALLER SWAP3 LOG2 PUSH1 0x1 DUP1 SSTORE STOP JUMPDEST PUSH1 0x40 MLOAD PUSH3 0x461BCD PUSH1 0xE5 SHL DUP2 MSTORE PUSH1 0x20 PUSH1 0x4 DUP3 ADD MSTORE PUSH1 0x17 PUSH1 0x24 DUP3 ADD MSTORE PUSH32 0x526F79616C7479207472616E73666572206661696C6564000000000000000000 PUSH1 0x44 DUP3 ADD MSTORE PUSH1 0x64 SWAP1 REVERT JUMPDEST PUSH1 0x40 MLOAD PUSH3 0x461BCD PUSH1 0xE5 SHL DUP2 MSTORE PUSH1 0x20 PUSH1 0x4 DUP3 ADD MSTORE PUSH1 0x18 PUSH1 0x24 DUP3 ADD MSTORE PUSH32 0x4E6F20726F79616C7469657320746F2077697468647261770000000000000000 PUSH1 0x44 DUP3 ADD MSTORE PUSH1 0x64 SWAP1 REVERT JUMPDEST CALLVALUE PUSH2 0x1C4 JUMPI PUSH1 0x20 CALLDATASIZE PUSH1 0x3 NOT ADD SLT PUSH2 0x1C4 JUMPI PUSH1 0x20 SWAP1 PUSH1 0x1 PUSH1 0x1 PUSH1 0xA0 SHL SUB PUSH2 0x140B PUSH2 0x141D JUMP JUMPDEST AND PUSH1 0x0 MSTORE PUSH1 0x5 DUP3 MSTORE PUSH1 0x40 PUSH1 0x0 KECCAK256 SLOAD DUP2 MSTORE RETURN JUMPDEST PUSH1 0x4 CALLDATALOAD SWAP1 PUSH1 0x1 PUSH1 0x1 PUSH1 0xA0 SHL SUB DUP3 AND DUP3 SUB PUSH2 0x1C4 JUMPI JUMP JUMPDEST PUSH1 0xE0 DUP2 ADD SWAP1 DUP2 LT PUSH1 0x1 PUSH1 0x1 PUSH1 0x40 SHL SUB DUP3 GT OR PUSH2 0x7B8 JUMPI PUSH1 0x40 MSTORE JUMP JUMPDEST PUSH1 0x1 PUSH1 0x1 PUSH1 0x40 SHL SUB DUP2 GT PUSH2 0x7B8 JUMPI PUSH1 0x40 MSTORE JUMP JUMPDEST SWAP1 PUSH1 0x1F DUP1 NOT SWAP2 ADD AND DUP2 ADD SWAP1 DUP2 LT PUSH1 0x1 PUSH1 0x1 PUSH1 0x40 SHL SUB DUP3 GT OR PUSH2 0x7B8 JUMPI PUSH1 0x40 MSTORE JUMP JUMPDEST PUSH1 0x1 PUSH1 0x1 PUSH1 0x40 SHL SUB DUP2 GT PUSH2 0x7B8 JUMPI PUSH1 0x1F ADD PUSH1 0x1F NOT AND PUSH1 0x20 ADD SWAP1 JUMP JUMPDEST SWAP3 SWAP2 SWAP3 PUSH2 0x14A9 DUP3 PUSH2 0x1482 JUMP JUMPDEST SWAP2 PUSH2 0x14B7 PUSH1 0x40 MLOAD SWAP4 DUP5 PUSH2 0x1461 JUMP JUMPDEST DUP3 SWAP5 DUP2 DUP5 MSTORE DUP2 DUP4 ADD GT PUSH2 0x1C4 JUMPI DUP3 DUP2 PUSH1 0x20 SWAP4 DUP5 PUSH1 0x0 SWAP7 ADD CALLDATACOPY ADD ADD MSTORE JUMP JUMPDEST DUP1 SLOAD DUP3 LT ISZERO PUSH2 0x83B JUMPI PUSH1 0x0 MSTORE PUSH1 0x20 PUSH1 0x0 KECCAK256 ADD SWAP1 PUSH1 0x0 SWAP1 JUMP JUMPDEST PUSH1 0x20 SWAP1 DUP2 PUSH1 0x40 DUP2 DUP4 ADD SWAP3 DUP3 DUP2 MSTORE DUP6 MLOAD DUP1 SWAP5 MSTORE ADD SWAP4 ADD SWAP2 PUSH1 0x0 JUMPDEST DUP3 DUP2 LT PUSH2 0x1513 JUMPI POP POP POP POP SWAP1 JUMP JUMPDEST DUP4 MLOAD DUP6 MSTORE SWAP4 DUP2 ADD SWAP4 SWAP3 DUP2 ADD SWAP3 PUSH1 0x1 ADD PUSH2 0x1505 JUMP JUMPDEST SWAP1 PUSH1 0x1 DUP3 DUP2 SHR SWAP3 AND DUP1 ISZERO PUSH2 0x1557 JUMPI JUMPDEST PUSH1 0x20 DUP4 LT EQ PUSH2 0x1541 JUMPI JUMP JUMPDEST PUSH4 0x4E487B71 PUSH1 0xE0 SHL PUSH1 0x0 MSTORE PUSH1 0x22 PUSH1 0x4 MSTORE PUSH1 0x24 PUSH1 0x0 REVERT JUMPDEST SWAP2 PUSH1 0x7F AND SWAP2 PUSH2 0x1536 JUMP JUMPDEST SWAP1 PUSH1 0x40 MLOAD SWAP2 DUP3 PUSH1 0x0 DUP3 SLOAD SWAP3 PUSH2 0x1575 DUP5 PUSH2 0x1527 JUMP JUMPDEST SWAP1 DUP2 DUP5 MSTORE PUSH1 0x1 SWAP5 DUP6 DUP2 AND SWAP1 DUP2 PUSH1 0x0 EQ PUSH2 0x15E4 JUMPI POP PUSH1 0x1 EQ PUSH2 0x15A1 JUMPI JUMPDEST POP POP PUSH2 0x159F SWAP3 POP SUB DUP4 PUSH2 0x1461 JUMP JUMPDEST JUMP JUMPDEST SWAP1 SWAP4 SWAP2 POP PUSH1 0x0 MSTORE PUSH1 0x20 SWAP1 DUP2 PUSH1 0x0 KECCAK256 SWAP4 PUSH1 0x0 SWAP2 JUMPDEST DUP2 DUP4 LT PUSH2 0x15CC JUMPI POP POP PUSH2 0x159F SWAP4 POP DUP3 ADD ADD CODESIZE DUP1 PUSH2 0x1591 JUMP JUMPDEST DUP6 SLOAD DUP9 DUP5 ADD DUP6 ADD MSTORE SWAP5 DUP6 ADD SWAP5 DUP8 SWAP5 POP SWAP2 DUP4 ADD SWAP2 PUSH2 0x15B4 JUMP JUMPDEST SWAP2 POP POP PUSH2 0x159F SWAP5 POP PUSH1 0x20 SWAP3 POP PUSH1 0xFF NOT AND DUP3 DUP5 ADD MSTORE ISZERO ISZERO PUSH1 0x5 SHL DUP3 ADD ADD CODESIZE DUP1 PUSH2 0x1591 JUMP JUMPDEST SWAP2 SWAP1 DUP3 MLOAD SWAP3 DUP4 DUP3 MSTORE PUSH1 0x0 JUMPDEST DUP5 DUP2 LT PUSH2 0x1633 JUMPI POP POP DUP3 PUSH1 0x0 PUSH1 0x20 DUP1 SWAP5 SWAP6 DUP5 ADD ADD MSTORE PUSH1 0x1F DUP1 NOT SWAP2 ADD AND ADD ADD SWAP1 JUMP JUMPDEST PUSH1 0x20 DUP2 DUP4 ADD DUP2 ADD MLOAD DUP5 DUP4 ADD DUP3 ADD MSTORE ADD PUSH2 0x1612 JUMP JUMPDEST SWAP2 DUP2 PUSH1 0x1F DUP5 ADD SLT ISZERO PUSH2 0x1C4 JUMPI DUP3 CALLDATALOAD SWAP2 PUSH1 0x1 PUSH1 0x1 PUSH1 0x40 SHL SUB DUP4 GT PUSH2 0x1C4 JUMPI PUSH1 0x20 DUP1 DUP6 ADD SWAP5 DUP5 PUSH1 0x5 SHL ADD ADD GT PUSH2 0x1C4 JUMPI JUMP JUMPDEST PUSH1 0x0 SLOAD PUSH1 0x1 PUSH1 0x1 PUSH1 0xA0 SHL SUB AND CALLER SUB PUSH2 0x168B JUMPI JUMP JUMPDEST PUSH1 0x64 PUSH1 0x40 MLOAD PUSH3 0x461BCD PUSH1 0xE5 SHL DUP2 MSTORE PUSH1 0x20 PUSH1 0x4 DUP3 ADD MSTORE PUSH1 0x20 PUSH1 0x24 DUP3 ADD MSTORE PUSH32 0x4F776E61626C653A2063616C6C6572206973206E6F7420746865206F776E6572 PUSH1 0x44 DUP3 ADD MSTORE REVERT JUMPDEST ISZERO PUSH2 0x16D6 JUMPI JUMP JUMPDEST PUSH1 0x40 MLOAD PUSH3 0x461BCD PUSH1 0xE5 SHL DUP2 MSTORE PUSH1 0x20 PUSH1 0x4 DUP3 ADD MSTORE PUSH1 0x25 PUSH1 0x24 DUP3 ADD MSTORE PUSH32 0x5061796D656E7420616D6F756E74206D75737420626520677265617465722074 PUSH1 0x44 DUP3 ADD MSTORE PUSH5 0x68616E203 PUSH1 0xDC SHL PUSH1 0x64 DUP3 ADD MSTORE PUSH1 0x84 SWAP1 REVERT JUMPDEST ISZERO PUSH2 0x1730 JUMPI JUMP JUMPDEST PUSH1 0x40 MLOAD PUSH3 0x461BCD PUSH1 0xE5 SHL DUP2 MSTORE PUSH1 0x20 PUSH1 0x4 DUP3 ADD MSTORE PUSH1 0x1A PUSH1 0x24 DUP3 ADD MSTORE PUSH32 0x496E76616C696420726573656172636865722061646472657373000000000000 PUSH1 0x44 DUP3 ADD MSTORE PUSH1 0x64 SWAP1 REVERT JUMPDEST SWAP1 DUP2 PUSH1 0x20 SWAP2 SUB SLT PUSH2 0x1C4 JUMPI MLOAD DUP1 ISZERO ISZERO DUP2 SUB PUSH2 0x1C4 JUMPI SWAP1 JUMP JUMPDEST ISZERO PUSH2 0x1794 JUMPI JUMP JUMPDEST PUSH1 0x40 MLOAD PUSH3 0x461BCD PUSH1 0xE5 SHL DUP2 MSTORE PUSH1 0x20 PUSH1 0x4 DUP3 ADD MSTORE PUSH1 0x21 PUSH1 0x24 DUP3 ADD MSTORE PUSH32 0x52657365617263686572206973206E6F7420746865207061706572206F776E65 PUSH1 0x44 DUP3 ADD MSTORE PUSH1 0x39 PUSH1 0xF9 SHL PUSH1 0x64 DUP3 ADD MSTORE PUSH1 0x84 SWAP1 REVERT JUMPDEST DUP2 DUP2 MUL SWAP3 SWAP2 DUP2 ISZERO SWAP2 DUP5 DIV EQ OR ISZERO PUSH2 0x17F6 JUMPI JUMP JUMPDEST PUSH4 0x4E487B71 PUSH1 0xE0 SHL PUSH1 0x0 MSTORE PUSH1 0x11 PUSH1 0x4 MSTORE PUSH1 0x24 PUSH1 0x0 REVERT JUMPDEST SWAP2 SWAP1 DUP3 SUB SWAP2 DUP3 GT PUSH2 0x17F6 JUMPI JUMP JUMPDEST SWAP2 SWAP1 DUP3 ADD DUP1 SWAP3 GT PUSH2 0x17F6 JUMPI JUMP JUMPDEST RETURNDATASIZE ISZERO PUSH2 0x1851 JUMPI RETURNDATASIZE SWAP1 PUSH2 0x1837 DUP3 PUSH2 0x1482 JUMP JUMPDEST SWAP2 PUSH2 0x1845 PUSH1 0x40 MLOAD SWAP4 DUP5 PUSH2 0x1461 JUMP JUMPDEST DUP3 MSTORE RETURNDATASIZE PUSH1 0x0 PUSH1 0x20 DUP5 ADD RETURNDATACOPY JUMP JUMPDEST PUSH1 0x60 SWAP1 JUMP JUMPDEST ISZERO PUSH2 0x185D JUMPI JUMP JUMPDEST PUSH1 0x40 MLOAD PUSH3 0x461BCD PUSH1 0xE5 SHL DUP2 MSTORE PUSH1 0x20 PUSH1 0x4 DUP3 ADD MSTORE PUSH1 0x1C PUSH1 0x24 DUP3 ADD MSTORE PUSH32 0x506C6174666F726D20666565207472616E73666572206661696C656400000000 PUSH1 0x44 DUP3 ADD MSTORE PUSH1 0x64 SWAP1 REVERT JUMPDEST PUSH1 0x0 NOT DUP2 EQ PUSH2 0x17F6 JUMPI PUSH1 0x1 ADD SWAP1 JUMP JUMPDEST DUP1 SLOAD PUSH9 0x10000000000000000 DUP2 LT ISZERO PUSH2 0x7B8 JUMPI PUSH2 0x18D3 SWAP2 PUSH1 0x1 DUP3 ADD DUP2 SSTORE PUSH2 0x14D4 JUMP JUMPDEST DUP2 SWAP3 SWAP2 SLOAD SWAP1 PUSH1 0x3 SHL SWAP2 DUP3 SHL SWAP2 PUSH1 0x0 NOT SWAP1 SHL NOT AND OR SWAP1 SSTORE JUMP JUMPDEST PUSH1 0x2 PUSH1 0x1 SLOAD EQ PUSH2 0x18FC JUMPI PUSH1 0x2 PUSH1 0x1 SSTORE JUMP JUMPDEST PUSH1 0x40 MLOAD PUSH3 0x461BCD PUSH1 0xE5 SHL DUP2 MSTORE PUSH1 0x20 PUSH1 0x4 DUP3 ADD MSTORE PUSH1 0x1F PUSH1 0x24 DUP3 ADD MSTORE PUSH32 0x5265656E7472616E637947756172643A207265656E7472616E742063616C6C00 PUSH1 0x44 DUP3 ADD MSTORE PUSH1 0x64 SWAP1 REVERT JUMPDEST SWAP2 SWAP1 DUP2 LT ISZERO PUSH2 0x83B JUMPI PUSH1 0x5 SHL ADD SWAP1 JUMP JUMPDEST PUSH1 0x1 PUSH1 0x1 PUSH1 0x40 SHL SUB DUP2 GT PUSH2 0x7B8 JUMPI PUSH1 0x5 SHL PUSH1 0x20 ADD SWAP1 JUMP JUMPDEST DUP1 MLOAD DUP3 LT ISZERO PUSH2 0x83B JUMPI PUSH1 0x20 SWAP2 PUSH1 0x5 SHL ADD ADD SWAP1 JUMP INVALID LOG2 PUSH5 0x6970667358 0x22 SLT KECCAK256 SHL SIGNEXTEND CALLER PUSH31 0xA4EF4411E2C1F143799CC25C4677500B44BFB60DC764B55B4805162A64736F PUSH13 0x63430008130033000000000000 "},"methodIdentifiers":{"batchPayRoyalties(uint256[],address[],string[],uint256[])":"b9bfda58","getPaperPayments(uint256)":"774d4461","getPaymentDetails(uint256)":"9e70df21","getResearcherBalance(address)":"615721ea","getResearcherPayments(address)":"caf43091","getTotalRoyaltiesForPaper(uint256)":"4bdc9c13","originProtocol()":"72e91296","owner()":"8da5cb5b","paperPayments(uint256,uint256)":"6aa6caec","payRoyalty(uint256,address,string)":"3d2faace","payments(uint256)":"87d81789","platformFeePercentage()":"cdd78cfc","renounceOwnership()":"715018a6","researcherBalances(address)":"03c43782","researcherPayments(address,uint256)":"9c6f9926","transferOwnership(address)":"f2fde38b","treasuryAddress()":"c5f956af","updatePlatformFee(uint256)":"aa0b5988","updateTreasuryAddress(address)":"841e4561","withdrawRoyalties()":"21c34fcb"}}}}}