{"contracts/mocks/MockOriginProtocol.sol":{"MockOriginProtocol":{"abi":[{"anonymous":false,"inputs":[{"indexed":true,"internalType":"uint256","name":"assetId","type":"uint256"},{"indexed":true,"internalType":"address","name":"creator","type":"address"},{"indexed":false,"internalType":"uint256","name":"timestamp","type":"uint256"}],"name":"AssetRegistered","type":"event"},{"anonymous":false,"inputs":[{"indexed":true,"internalType":"address","name":"previousOwner","type":"address"},{"indexed":true,"internalType":"address","name":"newOwner","type":"address"}],"name":"OwnershipTransferred","type":"event"},{"anonymous":false,"inputs":[{"indexed":true,"internalType":"uint256","name":"assetId","type":"uint256"},{"indexed":true,"internalType":"address","name":"recipient","type":"address"},{"indexed":false,"internalType":"uint256","name":"amount","type":"uint256"}],"name":"RoyaltyDistributed","type":"event"},{"anonymous":false,"inputs":[{"indexed":true,"internalType":"uint256","name":"assetId","type":"uint256"},{"indexed":true,"internalType":"address","name":"recipient","type":"address"},{"indexed":false,"internalType":"uint256","name":"amount","type":"uint256"}],"name":"RoyaltyRecorded","type":"event"},{"inputs":[{"internalType":"uint256","name":"assetId","type":"uint256"},{"internalType":"address","name":"creator","type":"address"},{"internalType":"string","name":"description","type":"string"}],"name":"addProvenanceRecord","outputs":[],"stateMutability":"nonpayable","type":"function"},{"inputs":[{"internalType":"uint256","name":"assetId","type":"uint256"},{"internalType":"address","name":"recipient","type":"address"},{"internalType":"uint256","name":"amount","type":"uint256"}],"name":"distributeRoyalty","outputs":[],"stateMutability":"nonpayable","type":"function"},{"inputs":[{"internalType":"uint256","name":"assetId","type":"uint256"}],"name":"getProvenance","outputs":[{"internalType":"address[]","name":"creators","type":"address[]"},{"internalType":"uint256[]","name":"timestamps","type":"uint256[]"},{"internalType":"string[]","name":"descriptions","type":"string[]"}],"stateMutability":"view","type":"function"},{"inputs":[{"internalType":"uint256","name":"assetId","type":"uint256"}],"name":"getUsageRights","outputs":[{"internalType":"string","name":"licenseType","type":"string"},{"internalType":"string","name":"licenseURI","type":"string"}],"stateMutability":"view","type":"function"},{"inputs":[],"name":"owner","outputs":[{"internalType":"address","name":"","type":"address"}],"stateMutability":"view","type":"function"},{"inputs":[{"internalType":"uint256","name":"assetId","type":"uint256"},{"internalType":"address","name":"recipient","type":"address"},{"internalType":"uint256","name":"amount","type":"uint256"}],"name":"recordRoyaltyPayment","outputs":[],"stateMutability":"nonpayable","type":"function"},{"inputs":[{"internalType":"uint256","name":"assetId","type":"uint256"},{"internalType":"address","name":"creator","type":"address"}],"name":"registerAsset","outputs":[],"stateMutability":"nonpayable","type":"function"},{"inputs":[],"name":"renounceOwnership","outputs":[],"stateMutability":"nonpayable","type":"function"},{"inputs":[{"internalType":"uint256","name":"assetId","type":"uint256"},{"internalType":"string","name":"licenseType","type":"string"},{"internalType":"string","name":"licenseURI","type":"string"}],"name":"setLicense","outputs":[],"stateMutability":"nonpayable","type":"function"},{"inputs":[{"internalType":"address","name":"newOwner","type":"address"}],"name":"transferOwnership","outputs":[],"stateMutability":"nonpayable","type":"function"},{"inputs":[{"internalType":"uint256","name":"assetId","type":"uint256"},{"internalType":"address","name":"claimedOwner","type":"address"}],"name":"verifyOwnership","outputs":[{"internalType":"bool","name":"isOwner","type":"bool"}],"stateMutability":"view","type":"function"}],"evm":{"bytecode":{"linkReferences":{},"object":"6080806040523461005b5760008054336001600160a01b0319821681178355916001600160a01b03909116907f8be0079c531659141344cd1fd0a4f28419497f9722a3daafe3b4186f6b6457e09080a361174690816100618239f35b600080fdfe608080604052600436101561001357600080fd5b60003560e01c90816309cc449d146112de575080634e046276146112ad57806360f1233d146110ae578063715018a614611055578063757c6ad614610fd357806376156249146108ba5780638da5cb5b1461089157806393004916146107fa5780639ccb1426146103e8578063b71989c0146101635763f2fde38b1461009857600080fd5b3461015e57602036600319011261015e576004356001600160a01b038181169182900361015e576100c7611466565b811561010a57600054826001600160601b0360a01b821617600055167f8be0079c531659141344cd1fd0a4f28419497f9722a3daafe3b4186f6b6457e0600080a3005b60405162461bcd60e51b815260206004820152602660248201527f4f776e61626c653a206e6577206f776e657220697320746865207a65726f206160448201526564647265737360d01b6064820152608490fd5b600080fd5b3461015e57606036600319011261015e576004356001600160401b0360243581811161015e57610197903690600401611410565b9060443581811161015e576101b0903690600401611410565b916101b9611466565b836000526001926020948486526101da60ff600260406000200154166115b4565b806000528486526003604060002001835185811161033557806101fd83546114be565b95601f968a8882116103b9575b505089908783116001146103565760009261034b575b5050600019600383901b1c191690871b1790555b60005283855260046040600020019481519384116103355761025686546114be565b8381116102fd575b508092841160011461029a575092829391839260009461028f575b50501b916000199060031b1c1916179055600080f35b015192508580610279565b919083601f1981168760005284600020946000905b888383106102e357505050106102ca575b505050811b019055005b015160001960f88460031b161c191690558380806102c0565b8587015188559096019594850194879350908101906102af565b6103269087600052826000208580880160051c82019285891061032c575b0160051c01906114f8565b8661025e565b9250819261031b565b634e487b7160e01b600052604160045260246000fd5b015190508980610220565b90899350601f19831691856000528b6000209260005b8d8282106103a3575050841161038a575b505050811b019055610234565b015160001960f88460031b161c1916905589808061037d565b8385015186558d9790950194938401930161036c565b6103e1918660005289826000209181870160051c830193871061032c570160051c01906114f8565b8a8a61020a565b3461015e5760608060031936011261015e57600435610405611339565b906001600160401b0360443581811161015e57610426903690600401611410565b9161042f611466565b8060005260019360209185835261045060ff600260406000200154166115b4565b60005260028252604060002093845496868801918289116107d5576104a89861047884611526565b9761048285611526565b9361048c8661150f565b9561049a60405197886113ef565b808752601f199c8d9161150f565b01908860005b8381106107eb57505050506000958a82019360028301975b84811061075a57506104d8848c61157b565b6001600160a01b039283169052426104f0858861157b565b526104fb848861157b565b52610506838761157b565b5089519289841161033557600160401b9a8b85116103355761052d858b938187558661158f565b019160005287600020908b60005b858110610746575050505050508151918683116103355787831161033557859061056a8484548186558561158f565b0190600052846000208860005b848110610734575050505050805194851161033557829082548684558087106106b7575b506000928352838320929491015b8585106105b257005b805190815183811161033557889186916105cc87546114be565b94601f9586811161067f575b508395821160011461061b5784958291600092610610575b5050600019600383901b1c191690841b1786555b019301940193916105a9565b015190508d806105f0565b948c82169088600052846000209160005b818110610668575090869784889594931061064f575b505050811b018655610604565b015160001960f88460031b161c191690558d8080610642565b8289015184558e978c97940193928301920161062c565b6106a8908960005285600020600589808701821c8301938988106106ae575b01901c01906114f8565b8d6105d8565b9350829361069e565b8360005287878460002092830192015b8281106106d557505061059b565b90919293506106e481546114be565b806106f6575b500190878593926106c7565b601f90818111600114610710575050600081555b8a6106ea565b61072b600092848452898420920160051c82018583016114f8565b8183555561070a565b87845194019381840155018990610577565b8a8386511695019481850155018c9061053b565b808c61078161076983886116f8565b905460039491851b1c6001600160a01b03169261157b565b5261078c82886116f8565b9054911b1c61079b828961157b565b526107af6107a9828b6116f8565b50611654565b6107b9828a61157b565b526107c4818961157b565b5060001981146107d5578c016104c6565b634e487b7160e01b600052601160045260246000fd5b8282828b0101520189906104ae565b3461015e577f4314ed5e3b3ab77189ea61c2957555c2b9cb9e6ae69d32348e9ecf727479aa67602061082b3661134f565b8260009593949295526001825261084c60ff600260406000200154166115b4565b83600052600382526108886040600020956040519061086a826113b9565b6001600160a01b0316808252848201849052426040830152966115f7565b604051908152a3005b3461015e57600036600319011261015e576000546040516001600160a01b039091168152602090f35b3461015e57604036600319011261015e576108d3611339565b600435600052600160205260ff60026040600020015416610f8e5760405160a081018181106001600160401b038211176103355760405260018060a01b038216815260208101428152604082016001815260405190610931826113d4565b6013825272105b1b08149a59da1d1cc814995cd95c9d9959606a1b60208301526060840191825260405192602084018481106001600160401b03821117610335576040526000845260808501938452600435600052600160205260406000209460018060a01b039051166001600160601b0360a01b865416178555516001850155600284019051151560ff801983541691161790556003830190518051906001600160401b0382116103355781906109e984546114be565b601f8111610f5c575b50602090601f8311600114610ef657600092610eeb575b50508160011b916000199060031b1c19161790555b518051906001600160401b03821161033557610a3d60048401546114be565b601f8111610eab575b50602090601f8311600114610e3b576004929160009183610e30575b50508160011b916000199060031b1c1916179101555b604051610a84816113d4565b60018152602036818301376001600160a01b038216610aa282611558565b52604051610aaf816113d4565b600181526020368183013742610ac482611558565b5260405190610ad2826113d4565b6001825260005b60208110610e1f5750604051610aee816113d4565b601281527120b9b9b2ba103932b3b4b9ba3930ba34b7b760711b6020820152610b1683611558565b52610b2082611558565b5060405192610b2e846113b9565b8352602083015260408201526004356000526002602052604060002081518051906001600160401b03821161033557600160401b821161033557602090610b7a8385548187558661158f565b0182600052602060002060005b838110610e025750505050600181016020830151908151916001600160401b03831161033557600160401b831161033557602090610bca8484548186558561158f565b0190600052602060002060005b838110610dee578686604060028801910151805190600160401b8211610335578254828455808310610d7a575b50602001916000526020600020916000905b828210610c5a576040514281526001600160a01b03861690600435907fac3dcdc20bb35a0f2b39fb2ddbe12a30d20c4795d2026bf2fc48df3ce84ca67d90602090a3005b80518051906001600160401b03821161033557610c7786546114be565b601f8111610d3d575b50602090601f8311600114610ccd579282600194936020938695600092610cc2575b5050600019600383901b1c191690841b1787555b01940191019092610c16565b015190508a80610ca2565b908660005260206000209160005b601f1985168110610d25575083602093600196938796938794601f19811610610d0c575b505050811b018755610cb6565b015160001960f88460031b161c191690558a8080610cff565b91926020600181928685015181550194019201610cdb565b610d6a908760005260206000206005601f8601811c82019260208710610d70575b601f01901c01906114f8565b87610c80565b9192508291610d5e565b8360005282602060002091820191015b818110610d975750610c04565b80610da4600192546114be565b80610db1575b5001610d8a565b601f81118314610dc75750600081555b87610daa565b600090828252610de5601f60208420920160051c82018583016114f8565b81835555610dc1565b600190602084519401938184015501610bd7565b82516001600160a01b031681830155602090920191600101610b87565b806060602080938601015201610ad9565b015190508580610a62565b906004840160005260206000209160005b601f1985168110610e935750918391600193600495601f19811610610e7a575b505050811b01910155610a78565b015160001960f88460031b161c19169055858080610e6c565b91926020600181928685015181550194019201610e4c565b610edb90600485016000526020600020601f850160051c81019160208610610ee1575b601f0160051c01906114f8565b84610a46565b9091508190610ece565b015190508680610a09565b6000858152602081209350601f198516905b818110610f445750908460019594939210610f2b575b505050811b019055610a1e565b015160001960f88460031b161c19169055868080610f1e565b92936020600181928786015181550195019301610f08565b610f8890856000526020600020601f850160051c81019160208610610ee157601f0160051c01906114f8565b876109f2565b60405162461bcd60e51b815260206004820152601860248201527f417373657420616c7265616479207265676973746572656400000000000000006044820152606490fd5b3461015e57602036600319011261015e5760043580600052600160205261100460ff600260406000200154166115b4565b6000526001602052611043604060002061105161102f600461102860038501611654565b9301611654565b604051938493604085526040850190611379565b908382036020850152611379565b0390f35b3461015e57600036600319011261015e5761106e611466565b600080546001600160a01b0319811682556001600160a01b03167f8be0079c531659141344cd1fd0a4f28419497f9722a3daafe3b4186f6b6457e08280a3005b3461015e5760208060031936011261015e57600435806000526001908183526110e160ff600260406000200154166115b4565b60005260028252604060002090808201600283019360405193848282549182815201908192600052836000209060005b81811061129157505050856111279103866113ef565b60405190818385549182815201908195600052846000209060005b81811061127e57505050826111589103836113ef565b8654916111648361150f565b9261117260405194856113ef565b8084528484018099600052856000206000915b83831061125b5750505050604051966060880190606089525180915260808801929060005b81811061123f575050508682038785015251808252908301939060005b81811061122c575050508483036040860152519081835280830192818360051b82010196936000915b8483106111fd5787890388f35b909192939495848061121a839b601f198682030187528a51611379565b9a9801969594919091019201906111f0565b82518652948401949184019186016111c7565b82516001600160a01b03168552938601939186019188016111aa565b90898089819e9c959461126d85611654565b8152019201920192509a989a611185565b8254845292860192918801918801611142565b82546001600160a01b0316845292850192918701918701611111565b3461015e577fff50aeaf5513a2bfcf5c38af0d681d05e9a00cd91cc42ab2e143549595e5f172602061082b3661134f565b3461015e57604036600319011261015e576020906112fa611339565b6004356000526001835260406000209060ff6002830154169182611321575b505015158152f35b546001600160a01b0391821691161490508380611319565b602435906001600160a01b038216820361015e57565b606090600319011261015e57600435906024356001600160a01b038116810361015e579060443590565b919082519283825260005b8481106113a5575050826000602080949584010152601f8019910116010190565b602081830181015184830182015201611384565b606081019081106001600160401b0382111761033557604052565b604081019081106001600160401b0382111761033557604052565b90601f801991011681019081106001600160401b0382111761033557604052565b81601f8201121561015e578035906001600160401b0382116103355760405192611444601f8401601f1916602001856113ef565b8284526020838301011161015e57816000926020809301838601378301015290565b6000546001600160a01b0316330361147a57565b606460405162461bcd60e51b815260206004820152602060248201527f4f776e61626c653a2063616c6c6572206973206e6f7420746865206f776e65726044820152fd5b90600182811c921680156114ee575b60208310146114d857565b634e487b7160e01b600052602260045260246000fd5b91607f16916114cd565b818110611503575050565b600081556001016114f8565b6001600160401b0381116103355760051b60200190565b906115308261150f565b61153d60405191826113ef565b828152809261154e601f199161150f565b0190602036910137565b8051156115655760200190565b634e487b7160e01b600052603260045260246000fd5b80518210156115655760209160051b010190565b9181811061159c57505050565b6115b292600052602060002091820191016114f8565b565b156115bb57565b60405162461bcd60e51b8152602060048201526014602482015273105cdcd95d08191bd95cc81b9bdd08195e1a5cdd60621b6044820152606490fd5b805490600160401b821015610335576001820180825582101561156557600291604091600052600360206000209102019260018060a01b038151166001600160601b0360a01b855416178455602081015160018501550151910155565b9060405191826000825492611668846114be565b9081845260019485811690816000146116d55750600114611692575b50506115b2925003836113ef565b9093915060005260209081600020936000915b8183106116bd5750506115b293508201013880611684565b855488840185015294850194879450918301916116a5565b9150506115b294506020925060ff191682840152151560051b8201013880611684565b8054821015611565576000526020600020019060009056fea2646970667358221220251938315043a90949077574f54492d60e8935f27aaea2616a39a87d8ea2cd2f64736f6c63430008130033","opcodes":"PUSH1 0x80 DUP1 PUSH1 0x40 MSTORE CALLVALUE PUSH2 0x5B JUMPI PUSH1 0x0 DUP1 SLOAD CALLER PUSH1 0x1 PUSH1 0x1 PUSH1 0xA0 SHL SUB NOT DUP3 AND DUP2 OR DUP4 SSTORE SWAP2 PUSH1 0x1 PUSH1 0x1 PUSH1 0xA0 SHL SUB SWAP1 SWAP2 AND SWAP1 PUSH32 0x8BE0079C531659141344CD1FD0A4F28419497F9722A3DAAFE3B4186F6B6457E0 SWAP1 DUP1 LOG3 PUSH2 0x1746 SWAP1 DUP2 PUSH2 0x61 DUP3 CODECOPY RETURN JUMPDEST PUSH1 0x0 DUP1 REVERT INVALID PUSH1 0x80 DUP1 PUSH1 0x40 MSTORE PUSH1 0x4 CALLDATASIZE LT ISZERO PUSH2 0x13 JUMPI PUSH1 0x0 DUP1 REVERT JUMPDEST PUSH1 0x0 CALLDATALOAD PUSH1 0xE0 SHR SWAP1 DUP2 PUSH4 0x9CC449D EQ PUSH2 0x12DE JUMPI POP DUP1 PUSH4 0x4E046276 EQ PUSH2 0x12AD JUMPI DUP1 PUSH4 0x60F1233D EQ PUSH2 0x10AE JUMPI DUP1 PUSH4 0x715018A6 EQ PUSH2 0x1055 JUMPI DUP1 PUSH4 0x757C6AD6 EQ PUSH2 0xFD3 JUMPI DUP1 PUSH4 0x76156249 EQ PUSH2 0x8BA JUMPI DUP1 PUSH4 0x8DA5CB5B EQ PUSH2 0x891 JUMPI DUP1 PUSH4 0x93004916 EQ PUSH2 0x7FA JUMPI DUP1 PUSH4 0x9CCB1426 EQ PUSH2 0x3E8 JUMPI DUP1 PUSH4 0xB71989C0 EQ PUSH2 0x163 JUMPI PUSH4 0xF2FDE38B EQ PUSH2 0x98 JUMPI PUSH1 0x0 DUP1 REVERT JUMPDEST CALLVALUE PUSH2 0x15E JUMPI PUSH1 0x20 CALLDATASIZE PUSH1 0x3 NOT ADD SLT PUSH2 0x15E JUMPI PUSH1 0x4 CALLDATALOAD PUSH1 0x1 PUSH1 0x1 PUSH1 0xA0 SHL SUB DUP2 DUP2 AND SWAP2 DUP3 SWAP1 SUB PUSH2 0x15E JUMPI PUSH2 0xC7 PUSH2 0x1466 JUMP JUMPDEST DUP2 ISZERO PUSH2 0x10A JUMPI PUSH1 0x0 SLOAD DUP3 PUSH1 0x1 PUSH1 0x1 PUSH1 0x60 SHL SUB PUSH1 0xA0 SHL DUP3 AND OR PUSH1 0x0 SSTORE AND PUSH32 0x8BE0079C531659141344CD1FD0A4F28419497F9722A3DAAFE3B4186F6B6457E0 PUSH1 0x0 DUP1 LOG3 STOP JUMPDEST PUSH1 0x40 MLOAD PUSH3 0x461BCD PUSH1 0xE5 SHL DUP2 MSTORE PUSH1 0x20 PUSH1 0x4 DUP3 ADD MSTORE PUSH1 0x26 PUSH1 0x24 DUP3 ADD MSTORE PUSH32 0x4F776E61626C653A206E6577206F776E657220697320746865207A65726F2061 PUSH1 0x44 DUP3 ADD MSTORE PUSH6 0x646472657373 PUSH1 0xD0 SHL PUSH1 0x64 DUP3 ADD MSTORE PUSH1 0x84 SWAP1 REVERT JUMPDEST PUSH1 0x0 DUP1 REVERT JUMPDEST CALLVALUE PUSH2 0x15E JUMPI PUSH1 0x60 CALLDATASIZE PUSH1 0x3 NOT ADD SLT PUSH2 0x15E JUMPI PUSH1 0x4 CALLDATALOAD PUSH1 0x1 PUSH1 0x1 PUSH1 0x40 SHL SUB PUSH1 0x24 CALLDATALOAD DUP2 DUP2 GT PUSH2 0x15E JUMPI PUSH2 0x197 SWAP1 CALLDATASIZE SWAP1 PUSH1 0x4 ADD PUSH2 0x1410 JUMP JUMPDEST SWAP1 PUSH1 0x44 CALLDATALOAD DUP2 DUP2 GT PUSH2 0x15E JUMPI PUSH2 0x1B0 SWAP1 CALLDATASIZE SWAP1 PUSH1 0x4 ADD PUSH2 0x1410 JUMP JUMPDEST SWAP2 PUSH2 0x1B9 PUSH2 0x1466 JUMP JUMPDEST DUP4 PUSH1 0x0 MSTORE PUSH1 0x1 SWAP3 PUSH1 0x20 SWAP5 DUP5 DUP7 MSTORE PUSH2 0x1DA PUSH1 0xFF PUSH1 0x2 PUSH1 0x40 PUSH1 0x0 KECCAK256 ADD SLOAD AND PUSH2 0x15B4 JUMP JUMPDEST DUP1 PUSH1 0x0 MSTORE DUP5 DUP7 MSTORE PUSH1 0x3 PUSH1 0x40 PUSH1 0x0 KECCAK256 ADD DUP4 MLOAD DUP6 DUP2 GT PUSH2 0x335 JUMPI DUP1 PUSH2 0x1FD DUP4 SLOAD PUSH2 0x14BE JUMP JUMPDEST SWAP6 PUSH1 0x1F SWAP7 DUP11 DUP9 DUP3 GT PUSH2 0x3B9 JUMPI JUMPDEST POP POP DUP10 SWAP1 DUP8 DUP4 GT PUSH1 0x1 EQ PUSH2 0x356 JUMPI PUSH1 0x0 SWAP3 PUSH2 0x34B JUMPI JUMPDEST POP POP PUSH1 0x0 NOT PUSH1 0x3 DUP4 SWAP1 SHL SHR NOT AND SWAP1 DUP8 SHL OR SWAP1 SSTORE JUMPDEST PUSH1 0x0 MSTORE DUP4 DUP6 MSTORE PUSH1 0x4 PUSH1 0x40 PUSH1 0x0 KECCAK256 ADD SWAP5 DUP2 MLOAD SWAP4 DUP5 GT PUSH2 0x335 JUMPI PUSH2 0x256 DUP7 SLOAD PUSH2 0x14BE JUMP JUMPDEST DUP4 DUP2 GT PUSH2 0x2FD JUMPI JUMPDEST POP DUP1 SWAP3 DUP5 GT PUSH1 0x1 EQ PUSH2 0x29A JUMPI POP SWAP3 DUP3 SWAP4 SWAP2 DUP4 SWAP3 PUSH1 0x0 SWAP5 PUSH2 0x28F JUMPI JUMPDEST POP POP SHL SWAP2 PUSH1 0x0 NOT SWAP1 PUSH1 0x3 SHL SHR NOT AND OR SWAP1 SSTORE PUSH1 0x0 DUP1 RETURN JUMPDEST ADD MLOAD SWAP3 POP DUP6 DUP1 PUSH2 0x279 JUMP JUMPDEST SWAP2 SWAP1 DUP4 PUSH1 0x1F NOT DUP2 AND DUP8 PUSH1 0x0 MSTORE DUP5 PUSH1 0x0 KECCAK256 SWAP5 PUSH1 0x0 SWAP1 JUMPDEST DUP9 DUP4 DUP4 LT PUSH2 0x2E3 JUMPI POP POP POP LT PUSH2 0x2CA JUMPI JUMPDEST POP POP POP DUP2 SHL ADD SWAP1 SSTORE STOP JUMPDEST ADD MLOAD PUSH1 0x0 NOT PUSH1 0xF8 DUP5 PUSH1 0x3 SHL AND SHR NOT AND SWAP1 SSTORE DUP4 DUP1 DUP1 PUSH2 0x2C0 JUMP JUMPDEST DUP6 DUP8 ADD MLOAD DUP9 SSTORE SWAP1 SWAP7 ADD SWAP6 SWAP5 DUP6 ADD SWAP5 DUP8 SWAP4 POP SWAP1 DUP2 ADD SWAP1 PUSH2 0x2AF JUMP JUMPDEST PUSH2 0x326 SWAP1 DUP8 PUSH1 0x0 MSTORE DUP3 PUSH1 0x0 KECCAK256 DUP6 DUP1 DUP9 ADD PUSH1 0x5 SHR DUP3 ADD SWAP3 DUP6 DUP10 LT PUSH2 0x32C JUMPI JUMPDEST ADD PUSH1 0x5 SHR ADD SWAP1 PUSH2 0x14F8 JUMP JUMPDEST DUP7 PUSH2 0x25E JUMP JUMPDEST SWAP3 POP DUP2 SWAP3 PUSH2 0x31B JUMP JUMPDEST PUSH4 0x4E487B71 PUSH1 0xE0 SHL PUSH1 0x0 MSTORE PUSH1 0x41 PUSH1 0x4 MSTORE PUSH1 0x24 PUSH1 0x0 REVERT JUMPDEST ADD MLOAD SWAP1 POP DUP10 DUP1 PUSH2 0x220 JUMP JUMPDEST SWAP1 DUP10 SWAP4 POP PUSH1 0x1F NOT DUP4 AND SWAP2 DUP6 PUSH1 0x0 MSTORE DUP12 PUSH1 0x0 KECCAK256 SWAP3 PUSH1 0x0 JUMPDEST DUP14 DUP3 DUP3 LT PUSH2 0x3A3 JUMPI POP POP DUP5 GT PUSH2 0x38A JUMPI JUMPDEST POP POP POP DUP2 SHL ADD SWAP1 SSTORE PUSH2 0x234 JUMP JUMPDEST ADD MLOAD PUSH1 0x0 NOT PUSH1 0xF8 DUP5 PUSH1 0x3 SHL AND SHR NOT AND SWAP1 SSTORE DUP10 DUP1 DUP1 PUSH2 0x37D JUMP JUMPDEST DUP4 DUP6 ADD MLOAD DUP7 SSTORE DUP14 SWAP8 SWAP1 SWAP6 ADD SWAP5 SWAP4 DUP5 ADD SWAP4 ADD PUSH2 0x36C JUMP JUMPDEST PUSH2 0x3E1 SWAP2 DUP7 PUSH1 0x0 MSTORE DUP10 DUP3 PUSH1 0x0 KECCAK256 SWAP2 DUP2 DUP8 ADD PUSH1 0x5 SHR DUP4 ADD SWAP4 DUP8 LT PUSH2 0x32C JUMPI ADD PUSH1 0x5 SHR ADD SWAP1 PUSH2 0x14F8 JUMP JUMPDEST DUP11 DUP11 PUSH2 0x20A JUMP JUMPDEST CALLVALUE PUSH2 0x15E JUMPI PUSH1 0x60 DUP1 PUSH1 0x3 NOT CALLDATASIZE ADD SLT PUSH2 0x15E JUMPI PUSH1 0x4 CALLDATALOAD PUSH2 0x405 PUSH2 0x1339 JUMP JUMPDEST SWAP1 PUSH1 0x1 PUSH1 0x1 PUSH1 0x40 SHL SUB PUSH1 0x44 CALLDATALOAD DUP2 DUP2 GT PUSH2 0x15E JUMPI PUSH2 0x426 SWAP1 CALLDATASIZE SWAP1 PUSH1 0x4 ADD PUSH2 0x1410 JUMP JUMPDEST SWAP2 PUSH2 0x42F PUSH2 0x1466 JUMP JUMPDEST DUP1 PUSH1 0x0 MSTORE PUSH1 0x1 SWAP4 PUSH1 0x20 SWAP2 DUP6 DUP4 MSTORE PUSH2 0x450 PUSH1 0xFF PUSH1 0x2 PUSH1 0x40 PUSH1 0x0 KECCAK256 ADD SLOAD AND PUSH2 0x15B4 JUMP JUMPDEST PUSH1 0x0 MSTORE PUSH1 0x2 DUP3 MSTORE PUSH1 0x40 PUSH1 0x0 KECCAK256 SWAP4 DUP5 SLOAD SWAP7 DUP7 DUP9 ADD SWAP2 DUP3 DUP10 GT PUSH2 0x7D5 JUMPI PUSH2 0x4A8 SWAP9 PUSH2 0x478 DUP5 PUSH2 0x1526 JUMP JUMPDEST SWAP8 PUSH2 0x482 DUP6 PUSH2 0x1526 JUMP JUMPDEST SWAP4 PUSH2 0x48C DUP7 PUSH2 0x150F JUMP JUMPDEST SWAP6 PUSH2 0x49A PUSH1 0x40 MLOAD SWAP8 DUP9 PUSH2 0x13EF JUMP JUMPDEST DUP1 DUP8 MSTORE PUSH1 0x1F NOT SWAP13 DUP14 SWAP2 PUSH2 0x150F JUMP JUMPDEST ADD SWAP1 DUP9 PUSH1 0x0 JUMPDEST DUP4 DUP2 LT PUSH2 0x7EB JUMPI POP POP POP POP PUSH1 0x0 SWAP6 DUP11 DUP3 ADD SWAP4 PUSH1 0x2 DUP4 ADD SWAP8 JUMPDEST DUP5 DUP2 LT PUSH2 0x75A JUMPI POP PUSH2 0x4D8 DUP5 DUP13 PUSH2 0x157B JUMP JUMPDEST PUSH1 0x1 PUSH1 0x1 PUSH1 0xA0 SHL SUB SWAP3 DUP4 AND SWAP1 MSTORE TIMESTAMP PUSH2 0x4F0 DUP6 DUP9 PUSH2 0x157B JUMP JUMPDEST MSTORE PUSH2 0x4FB DUP5 DUP9 PUSH2 0x157B JUMP JUMPDEST MSTORE PUSH2 0x506 DUP4 DUP8 PUSH2 0x157B JUMP JUMPDEST POP DUP10 MLOAD SWAP3 DUP10 DUP5 GT PUSH2 0x335 JUMPI PUSH1 0x1 PUSH1 0x40 SHL SWAP11 DUP12 DUP6 GT PUSH2 0x335 JUMPI PUSH2 0x52D DUP6 DUP12 SWAP4 DUP2 DUP8 SSTORE DUP7 PUSH2 0x158F JUMP JUMPDEST ADD SWAP2 PUSH1 0x0 MSTORE DUP8 PUSH1 0x0 KECCAK256 SWAP1 DUP12 PUSH1 0x0 JUMPDEST DUP6 DUP2 LT PUSH2 0x746 JUMPI POP POP POP POP POP POP DUP2 MLOAD SWAP2 DUP7 DUP4 GT PUSH2 0x335 JUMPI DUP8 DUP4 GT PUSH2 0x335 JUMPI DUP6 SWAP1 PUSH2 0x56A DUP5 DUP5 SLOAD DUP2 DUP7 SSTORE DUP6 PUSH2 0x158F JUMP JUMPDEST ADD SWAP1 PUSH1 0x0 MSTORE DUP5 PUSH1 0x0 KECCAK256 DUP9 PUSH1 0x0 JUMPDEST DUP5 DUP2 LT PUSH2 0x734 JUMPI POP POP POP POP POP DUP1 MLOAD SWAP5 DUP6 GT PUSH2 0x335 JUMPI DUP3 SWAP1 DUP3 SLOAD DUP7 DUP5 SSTORE DUP1 DUP8 LT PUSH2 0x6B7 JUMPI JUMPDEST POP PUSH1 0x0 SWAP3 DUP4 MSTORE DUP4 DUP4 KECCAK256 SWAP3 SWAP5 SWAP2 ADD JUMPDEST DUP6 DUP6 LT PUSH2 0x5B2 JUMPI STOP JUMPDEST DUP1 MLOAD SWAP1 DUP2 MLOAD DUP4 DUP2 GT PUSH2 0x335 JUMPI DUP9 SWAP2 DUP7 SWAP2 PUSH2 0x5CC DUP8 SLOAD PUSH2 0x14BE JUMP JUMPDEST SWAP5 PUSH1 0x1F SWAP6 DUP7 DUP2 GT PUSH2 0x67F JUMPI JUMPDEST POP DUP4 SWAP6 DUP3 GT PUSH1 0x1 EQ PUSH2 0x61B JUMPI DUP5 SWAP6 DUP3 SWAP2 PUSH1 0x0 SWAP3 PUSH2 0x610 JUMPI JUMPDEST POP POP PUSH1 0x0 NOT PUSH1 0x3 DUP4 SWAP1 SHL SHR NOT AND SWAP1 DUP5 SHL OR DUP7 SSTORE JUMPDEST ADD SWAP4 ADD SWAP5 ADD SWAP4 SWAP2 PUSH2 0x5A9 JUMP JUMPDEST ADD MLOAD SWAP1 POP DUP14 DUP1 PUSH2 0x5F0 JUMP JUMPDEST SWAP5 DUP13 DUP3 AND SWAP1 DUP9 PUSH1 0x0 MSTORE DUP5 PUSH1 0x0 KECCAK256 SWAP2 PUSH1 0x0 JUMPDEST DUP2 DUP2 LT PUSH2 0x668 JUMPI POP SWAP1 DUP7 SWAP8 DUP5 DUP9 SWAP6 SWAP5 SWAP4 LT PUSH2 0x64F JUMPI JUMPDEST POP POP POP DUP2 SHL ADD DUP7 SSTORE PUSH2 0x604 JUMP JUMPDEST ADD MLOAD PUSH1 0x0 NOT PUSH1 0xF8 DUP5 PUSH1 0x3 SHL AND SHR NOT AND SWAP1 SSTORE DUP14 DUP1 DUP1 PUSH2 0x642 JUMP JUMPDEST DUP3 DUP10 ADD MLOAD DUP5 SSTORE DUP15 SWAP8 DUP13 SWAP8 SWAP5 ADD SWAP4 SWAP3 DUP4 ADD SWAP3 ADD PUSH2 0x62C JUMP JUMPDEST PUSH2 0x6A8 SWAP1 DUP10 PUSH1 0x0 MSTORE DUP6 PUSH1 0x0 KECCAK256 PUSH1 0x5 DUP10 DUP1 DUP8 ADD DUP3 SHR DUP4 ADD SWAP4 DUP10 DUP9 LT PUSH2 0x6AE JUMPI JUMPDEST ADD SWAP1 SHR ADD SWAP1 PUSH2 0x14F8 JUMP JUMPDEST DUP14 PUSH2 0x5D8 JUMP JUMPDEST SWAP4 POP DUP3 SWAP4 PUSH2 0x69E JUMP JUMPDEST DUP4 PUSH1 0x0 MSTORE DUP8 DUP8 DUP5 PUSH1 0x0 KECCAK256 SWAP3 DUP4 ADD SWAP3 ADD JUMPDEST DUP3 DUP2 LT PUSH2 0x6D5 JUMPI POP POP PUSH2 0x59B JUMP JUMPDEST SWAP1 SWAP2 SWAP3 SWAP4 POP PUSH2 0x6E4 DUP2 SLOAD PUSH2 0x14BE JUMP JUMPDEST DUP1 PUSH2 0x6F6 JUMPI JUMPDEST POP ADD SWAP1 DUP8 DUP6 SWAP4 SWAP3 PUSH2 0x6C7 JUMP JUMPDEST PUSH1 0x1F SWAP1 DUP2 DUP2 GT PUSH1 0x1 EQ PUSH2 0x710 JUMPI POP POP PUSH1 0x0 DUP2 SSTORE JUMPDEST DUP11 PUSH2 0x6EA JUMP JUMPDEST PUSH2 0x72B PUSH1 0x0 SWAP3 DUP5 DUP5 MSTORE DUP10 DUP5 KECCAK256 SWAP3 ADD PUSH1 0x5 SHR DUP3 ADD DUP6 DUP4 ADD PUSH2 0x14F8 JUMP JUMPDEST DUP2 DUP4 SSTORE SSTORE PUSH2 0x70A JUMP JUMPDEST DUP8 DUP5 MLOAD SWAP5 ADD SWAP4 DUP2 DUP5 ADD SSTORE ADD DUP10 SWAP1 PUSH2 0x577 JUMP JUMPDEST DUP11 DUP4 DUP7 MLOAD AND SWAP6 ADD SWAP5 DUP2 DUP6 ADD SSTORE ADD DUP13 SWAP1 PUSH2 0x53B JUMP JUMPDEST DUP1 DUP13 PUSH2 0x781 PUSH2 0x769 DUP4 DUP9 PUSH2 0x16F8 JUMP JUMPDEST SWAP1 SLOAD PUSH1 0x3 SWAP5 SWAP2 DUP6 SHL SHR PUSH1 0x1 PUSH1 0x1 PUSH1 0xA0 SHL SUB AND SWAP3 PUSH2 0x157B JUMP JUMPDEST MSTORE PUSH2 0x78C DUP3 DUP9 PUSH2 0x16F8 JUMP JUMPDEST SWAP1 SLOAD SWAP2 SHL SHR PUSH2 0x79B DUP3 DUP10 PUSH2 0x157B JUMP JUMPDEST MSTORE PUSH2 0x7AF PUSH2 0x7A9 DUP3 DUP12 PUSH2 0x16F8 JUMP JUMPDEST POP PUSH2 0x1654 JUMP JUMPDEST PUSH2 0x7B9 DUP3 DUP11 PUSH2 0x157B JUMP JUMPDEST MSTORE PUSH2 0x7C4 DUP2 DUP10 PUSH2 0x157B JUMP JUMPDEST POP PUSH1 0x0 NOT DUP2 EQ PUSH2 0x7D5 JUMPI DUP13 ADD PUSH2 0x4C6 JUMP JUMPDEST PUSH4 0x4E487B71 PUSH1 0xE0 SHL PUSH1 0x0 MSTORE PUSH1 0x11 PUSH1 0x4 MSTORE PUSH1 0x24 PUSH1 0x0 REVERT JUMPDEST DUP3 DUP3 DUP3 DUP12 ADD ADD MSTORE ADD DUP10 SWAP1 PUSH2 0x4AE JUMP JUMPDEST CALLVALUE PUSH2 0x15E JUMPI PUSH32 0x4314ED5E3B3AB77189EA61C2957555C2B9CB9E6AE69D32348E9ECF727479AA67 PUSH1 0x20 PUSH2 0x82B CALLDATASIZE PUSH2 0x134F JUMP JUMPDEST DUP3 PUSH1 0x0 SWAP6 SWAP4 SWAP5 SWAP3 SWAP6 MSTORE PUSH1 0x1 DUP3 MSTORE PUSH2 0x84C PUSH1 0xFF PUSH1 0x2 PUSH1 0x40 PUSH1 0x0 KECCAK256 ADD SLOAD AND PUSH2 0x15B4 JUMP JUMPDEST DUP4 PUSH1 0x0 MSTORE PUSH1 0x3 DUP3 MSTORE PUSH2 0x888 PUSH1 0x40 PUSH1 0x0 KECCAK256 SWAP6 PUSH1 0x40 MLOAD SWAP1 PUSH2 0x86A DUP3 PUSH2 0x13B9 JUMP JUMPDEST PUSH1 0x1 PUSH1 0x1 PUSH1 0xA0 SHL SUB AND DUP1 DUP3 MSTORE DUP5 DUP3 ADD DUP5 SWAP1 MSTORE TIMESTAMP PUSH1 0x40 DUP4 ADD MSTORE SWAP7 PUSH2 0x15F7 JUMP JUMPDEST PUSH1 0x40 MLOAD SWAP1 DUP2 MSTORE LOG3 STOP JUMPDEST CALLVALUE PUSH2 0x15E JUMPI PUSH1 0x0 CALLDATASIZE PUSH1 0x3 NOT ADD SLT PUSH2 0x15E JUMPI PUSH1 0x0 SLOAD PUSH1 0x40 MLOAD PUSH1 0x1 PUSH1 0x1 PUSH1 0xA0 SHL SUB SWAP1 SWAP2 AND DUP2 MSTORE PUSH1 0x20 SWAP1 RETURN JUMPDEST CALLVALUE PUSH2 0x15E JUMPI PUSH1 0x40 CALLDATASIZE PUSH1 0x3 NOT ADD SLT PUSH2 0x15E JUMPI PUSH2 0x8D3 PUSH2 0x1339 JUMP JUMPDEST PUSH1 0x4 CALLDATALOAD PUSH1 0x0 MSTORE PUSH1 0x1 PUSH1 0x20 MSTORE PUSH1 0xFF PUSH1 0x2 PUSH1 0x40 PUSH1 0x0 KECCAK256 ADD SLOAD AND PUSH2 0xF8E JUMPI PUSH1 0x40 MLOAD PUSH1 0xA0 DUP2 ADD DUP2 DUP2 LT PUSH1 0x1 PUSH1 0x1 PUSH1 0x40 SHL SUB DUP3 GT OR PUSH2 0x335 JUMPI PUSH1 0x40 MSTORE PUSH1 0x1 DUP1 PUSH1 0xA0 SHL SUB DUP3 AND DUP2 MSTORE PUSH1 0x20 DUP2 ADD TIMESTAMP DUP2 MSTORE PUSH1 0x40 DUP3 ADD PUSH1 0x1 DUP2 MSTORE PUSH1 0x40 MLOAD SWAP1 PUSH2 0x931 DUP3 PUSH2 0x13D4 JUMP JUMPDEST PUSH1 0x13 DUP3 MSTORE PUSH19 0x105B1B08149A59DA1D1CC814995CD95C9D9959 PUSH1 0x6A SHL PUSH1 0x20 DUP4 ADD MSTORE PUSH1 0x60 DUP5 ADD SWAP2 DUP3 MSTORE PUSH1 0x40 MLOAD SWAP3 PUSH1 0x20 DUP5 ADD DUP5 DUP2 LT PUSH1 0x1 PUSH1 0x1 PUSH1 0x40 SHL SUB DUP3 GT OR PUSH2 0x335 JUMPI PUSH1 0x40 MSTORE PUSH1 0x0 DUP5 MSTORE PUSH1 0x80 DUP6 ADD SWAP4 DUP5 MSTORE PUSH1 0x4 CALLDATALOAD PUSH1 0x0 MSTORE PUSH1 0x1 PUSH1 0x20 MSTORE PUSH1 0x40 PUSH1 0x0 KECCAK256 SWAP5 PUSH1 0x1 DUP1 PUSH1 0xA0 SHL SUB SWAP1 MLOAD AND PUSH1 0x1 PUSH1 0x1 PUSH1 0x60 SHL SUB PUSH1 0xA0 SHL DUP7 SLOAD AND OR DUP6 SSTORE MLOAD PUSH1 0x1 DUP6 ADD SSTORE PUSH1 0x2 DUP5 ADD SWAP1 MLOAD ISZERO ISZERO PUSH1 0xFF DUP1 NOT DUP4 SLOAD AND SWAP2 AND OR SWAP1 SSTORE PUSH1 0x3 DUP4 ADD SWAP1 MLOAD DUP1 MLOAD SWAP1 PUSH1 0x1 PUSH1 0x1 PUSH1 0x40 SHL SUB DUP3 GT PUSH2 0x335 JUMPI DUP2 SWAP1 PUSH2 0x9E9 DUP5 SLOAD PUSH2 0x14BE JUMP JUMPDEST PUSH1 0x1F DUP2 GT PUSH2 0xF5C JUMPI JUMPDEST POP PUSH1 0x20 SWAP1 PUSH1 0x1F DUP4 GT PUSH1 0x1 EQ PUSH2 0xEF6 JUMPI PUSH1 0x0 SWAP3 PUSH2 0xEEB JUMPI JUMPDEST POP POP DUP2 PUSH1 0x1 SHL SWAP2 PUSH1 0x0 NOT SWAP1 PUSH1 0x3 SHL SHR NOT AND OR SWAP1 SSTORE JUMPDEST MLOAD DUP1 MLOAD SWAP1 PUSH1 0x1 PUSH1 0x1 PUSH1 0x40 SHL SUB DUP3 GT PUSH2 0x335 JUMPI PUSH2 0xA3D PUSH1 0x4 DUP5 ADD SLOAD PUSH2 0x14BE JUMP JUMPDEST PUSH1 0x1F DUP2 GT PUSH2 0xEAB JUMPI JUMPDEST POP PUSH1 0x20 SWAP1 PUSH1 0x1F DUP4 GT PUSH1 0x1 EQ PUSH2 0xE3B JUMPI PUSH1 0x4 SWAP3 SWAP2 PUSH1 0x0 SWAP2 DUP4 PUSH2 0xE30 JUMPI JUMPDEST POP POP DUP2 PUSH1 0x1 SHL SWAP2 PUSH1 0x0 NOT SWAP1 PUSH1 0x3 SHL SHR NOT AND OR SWAP2 ADD SSTORE JUMPDEST PUSH1 0x40 MLOAD PUSH2 0xA84 DUP2 PUSH2 0x13D4 JUMP JUMPDEST PUSH1 0x1 DUP2 MSTORE PUSH1 0x20 CALLDATASIZE DUP2 DUP4 ADD CALLDATACOPY PUSH1 0x1 PUSH1 0x1 PUSH1 0xA0 SHL SUB DUP3 AND PUSH2 0xAA2 DUP3 PUSH2 0x1558 JUMP JUMPDEST MSTORE PUSH1 0x40 MLOAD PUSH2 0xAAF DUP2 PUSH2 0x13D4 JUMP JUMPDEST PUSH1 0x1 DUP2 MSTORE PUSH1 0x20 CALLDATASIZE DUP2 DUP4 ADD CALLDATACOPY TIMESTAMP PUSH2 0xAC4 DUP3 PUSH2 0x1558 JUMP JUMPDEST MSTORE PUSH1 0x40 MLOAD SWAP1 PUSH2 0xAD2 DUP3 PUSH2 0x13D4 JUMP JUMPDEST PUSH1 0x1 DUP3 MSTORE PUSH1 0x0 JUMPDEST PUSH1 0x20 DUP2 LT PUSH2 0xE1F JUMPI POP PUSH1 0x40 MLOAD PUSH2 0xAEE DUP2 PUSH2 0x13D4 JUMP JUMPDEST PUSH1 0x12 DUP2 MSTORE PUSH18 0x20B9B9B2BA103932B3B4B9BA3930BA34B7B7 PUSH1 0x71 SHL PUSH1 0x20 DUP3 ADD MSTORE PUSH2 0xB16 DUP4 PUSH2 0x1558 JUMP JUMPDEST MSTORE PUSH2 0xB20 DUP3 PUSH2 0x1558 JUMP JUMPDEST POP PUSH1 0x40 MLOAD SWAP3 PUSH2 0xB2E DUP5 PUSH2 0x13B9 JUMP JUMPDEST DUP4 MSTORE PUSH1 0x20 DUP4 ADD MSTORE PUSH1 0x40 DUP3 ADD MSTORE PUSH1 0x4 CALLDATALOAD PUSH1 0x0 MSTORE PUSH1 0x2 PUSH1 0x20 MSTORE PUSH1 0x40 PUSH1 0x0 KECCAK256 DUP2 MLOAD DUP1 MLOAD SWAP1 PUSH1 0x1 PUSH1 0x1 PUSH1 0x40 SHL SUB DUP3 GT PUSH2 0x335 JUMPI PUSH1 0x1 PUSH1 0x40 SHL DUP3 GT PUSH2 0x335 JUMPI PUSH1 0x20 SWAP1 PUSH2 0xB7A DUP4 DUP6 SLOAD DUP2 DUP8 SSTORE DUP7 PUSH2 0x158F JUMP JUMPDEST ADD DUP3 PUSH1 0x0 MSTORE PUSH1 0x20 PUSH1 0x0 KECCAK256 PUSH1 0x0 JUMPDEST DUP4 DUP2 LT PUSH2 0xE02 JUMPI POP POP POP POP PUSH1 0x1 DUP2 ADD PUSH1 0x20 DUP4 ADD MLOAD SWAP1 DUP2 MLOAD SWAP2 PUSH1 0x1 PUSH1 0x1 PUSH1 0x40 SHL SUB DUP4 GT PUSH2 0x335 JUMPI PUSH1 0x1 PUSH1 0x40 SHL DUP4 GT PUSH2 0x335 JUMPI PUSH1 0x20 SWAP1 PUSH2 0xBCA DUP5 DUP5 SLOAD DUP2 DUP7 SSTORE DUP6 PUSH2 0x158F JUMP JUMPDEST ADD SWAP1 PUSH1 0x0 MSTORE PUSH1 0x20 PUSH1 0x0 KECCAK256 PUSH1 0x0 JUMPDEST DUP4 DUP2 LT PUSH2 0xDEE JUMPI DUP7 DUP7 PUSH1 0x40 PUSH1 0x2 DUP9 ADD SWAP2 ADD MLOAD DUP1 MLOAD SWAP1 PUSH1 0x1 PUSH1 0x40 SHL DUP3 GT PUSH2 0x335 JUMPI DUP3 SLOAD DUP3 DUP5 SSTORE DUP1 DUP4 LT PUSH2 0xD7A JUMPI JUMPDEST POP PUSH1 0x20 ADD SWAP2 PUSH1 0x0 MSTORE PUSH1 0x20 PUSH1 0x0 KECCAK256 SWAP2 PUSH1 0x0 SWAP1 JUMPDEST DUP3 DUP3 LT PUSH2 0xC5A JUMPI PUSH1 0x40 MLOAD TIMESTAMP DUP2 MSTORE PUSH1 0x1 PUSH1 0x1 PUSH1 0xA0 SHL SUB DUP7 AND SWAP1 PUSH1 0x4 CALLDATALOAD SWAP1 PUSH32 0xAC3DCDC20BB35A0F2B39FB2DDBE12A30D20C4795D2026BF2FC48DF3CE84CA67D SWAP1 PUSH1 0x20 SWAP1 LOG3 STOP JUMPDEST DUP1 MLOAD DUP1 MLOAD SWAP1 PUSH1 0x1 PUSH1 0x1 PUSH1 0x40 SHL SUB DUP3 GT PUSH2 0x335 JUMPI PUSH2 0xC77 DUP7 SLOAD PUSH2 0x14BE JUMP JUMPDEST PUSH1 0x1F DUP2 GT PUSH2 0xD3D JUMPI JUMPDEST POP PUSH1 0x20 SWAP1 PUSH1 0x1F DUP4 GT PUSH1 0x1 EQ PUSH2 0xCCD JUMPI SWAP3 DUP3 PUSH1 0x1 SWAP5 SWAP4 PUSH1 0x20 SWAP4 DUP7 SWAP6 PUSH1 0x0 SWAP3 PUSH2 0xCC2 JUMPI JUMPDEST POP POP PUSH1 0x0 NOT PUSH1 0x3 DUP4 SWAP1 SHL SHR NOT AND SWAP1 DUP5 SHL OR DUP8 SSTORE JUMPDEST ADD SWAP5 ADD SWAP2 ADD SWAP1 SWAP3 PUSH2 0xC16 JUMP JUMPDEST ADD MLOAD SWAP1 POP DUP11 DUP1 PUSH2 0xCA2 JUMP JUMPDEST SWAP1 DUP7 PUSH1 0x0 MSTORE PUSH1 0x20 PUSH1 0x0 KECCAK256 SWAP2 PUSH1 0x0 JUMPDEST PUSH1 0x1F NOT DUP6 AND DUP2 LT PUSH2 0xD25 JUMPI POP DUP4 PUSH1 0x20 SWAP4 PUSH1 0x1 SWAP7 SWAP4 DUP8 SWAP7 SWAP4 DUP8 SWAP5 PUSH1 0x1F NOT DUP2 AND LT PUSH2 0xD0C JUMPI JUMPDEST POP POP POP DUP2 SHL ADD DUP8 SSTORE PUSH2 0xCB6 JUMP JUMPDEST ADD MLOAD PUSH1 0x0 NOT PUSH1 0xF8 DUP5 PUSH1 0x3 SHL AND SHR NOT AND SWAP1 SSTORE DUP11 DUP1 DUP1 PUSH2 0xCFF JUMP JUMPDEST SWAP2 SWAP3 PUSH1 0x20 PUSH1 0x1 DUP2 SWAP3 DUP7 DUP6 ADD MLOAD DUP2 SSTORE ADD SWAP5 ADD SWAP3 ADD PUSH2 0xCDB JUMP JUMPDEST PUSH2 0xD6A SWAP1 DUP8 PUSH1 0x0 MSTORE PUSH1 0x20 PUSH1 0x0 KECCAK256 PUSH1 0x5 PUSH1 0x1F DUP7 ADD DUP2 SHR DUP3 ADD SWAP3 PUSH1 0x20 DUP8 LT PUSH2 0xD70 JUMPI JUMPDEST PUSH1 0x1F ADD SWAP1 SHR ADD SWAP1 PUSH2 0x14F8 JUMP JUMPDEST DUP8 PUSH2 0xC80 JUMP JUMPDEST SWAP2 SWAP3 POP DUP3 SWAP2 PUSH2 0xD5E JUMP JUMPDEST DUP4 PUSH1 0x0 MSTORE DUP3 PUSH1 0x20 PUSH1 0x0 KECCAK256 SWAP2 DUP3 ADD SWAP2 ADD JUMPDEST DUP2 DUP2 LT PUSH2 0xD97 JUMPI POP PUSH2 0xC04 JUMP JUMPDEST DUP1 PUSH2 0xDA4 PUSH1 0x1 SWAP3 SLOAD PUSH2 0x14BE JUMP JUMPDEST DUP1 PUSH2 0xDB1 JUMPI JUMPDEST POP ADD PUSH2 0xD8A JUMP JUMPDEST PUSH1 0x1F DUP2 GT DUP4 EQ PUSH2 0xDC7 JUMPI POP PUSH1 0x0 DUP2 SSTORE JUMPDEST DUP8 PUSH2 0xDAA JUMP JUMPDEST PUSH1 0x0 SWAP1 DUP3 DUP3 MSTORE PUSH2 0xDE5 PUSH1 0x1F PUSH1 0x20 DUP5 KECCAK256 SWAP3 ADD PUSH1 0x5 SHR DUP3 ADD DUP6 DUP4 ADD PUSH2 0x14F8 JUMP JUMPDEST DUP2 DUP4 SSTORE SSTORE PUSH2 0xDC1 JUMP JUMPDEST PUSH1 0x1 SWAP1 PUSH1 0x20 DUP5 MLOAD SWAP5 ADD SWAP4 DUP2 DUP5 ADD SSTORE ADD PUSH2 0xBD7 JUMP JUMPDEST DUP3 MLOAD PUSH1 0x1 PUSH1 0x1 PUSH1 0xA0 SHL SUB AND DUP2 DUP4 ADD SSTORE PUSH1 0x20 SWAP1 SWAP3 ADD SWAP2 PUSH1 0x1 ADD PUSH2 0xB87 JUMP JUMPDEST DUP1 PUSH1 0x60 PUSH1 0x20 DUP1 SWAP4 DUP7 ADD ADD MSTORE ADD PUSH2 0xAD9 JUMP JUMPDEST ADD MLOAD SWAP1 POP DUP6 DUP1 PUSH2 0xA62 JUMP JUMPDEST SWAP1 PUSH1 0x4 DUP5 ADD PUSH1 0x0 MSTORE PUSH1 0x20 PUSH1 0x0 KECCAK256 SWAP2 PUSH1 0x0 JUMPDEST PUSH1 0x1F NOT DUP6 AND DUP2 LT PUSH2 0xE93 JUMPI POP SWAP2 DUP4 SWAP2 PUSH1 0x1 SWAP4 PUSH1 0x4 SWAP6 PUSH1 0x1F NOT DUP2 AND LT PUSH2 0xE7A JUMPI JUMPDEST POP POP POP DUP2 SHL ADD SWAP2 ADD SSTORE PUSH2 0xA78 JUMP JUMPDEST ADD MLOAD PUSH1 0x0 NOT PUSH1 0xF8 DUP5 PUSH1 0x3 SHL AND SHR NOT AND SWAP1 SSTORE DUP6 DUP1 DUP1 PUSH2 0xE6C JUMP JUMPDEST SWAP2 SWAP3 PUSH1 0x20 PUSH1 0x1 DUP2 SWAP3 DUP7 DUP6 ADD MLOAD DUP2 SSTORE ADD SWAP5 ADD SWAP3 ADD PUSH2 0xE4C JUMP JUMPDEST PUSH2 0xEDB SWAP1 PUSH1 0x4 DUP6 ADD PUSH1 0x0 MSTORE PUSH1 0x20 PUSH1 0x0 KECCAK256 PUSH1 0x1F DUP6 ADD PUSH1 0x5 SHR DUP2 ADD SWAP2 PUSH1 0x20 DUP7 LT PUSH2 0xEE1 JUMPI JUMPDEST PUSH1 0x1F ADD PUSH1 0x5 SHR ADD SWAP1 PUSH2 0x14F8 JUMP JUMPDEST DUP5 PUSH2 0xA46 JUMP JUMPDEST SWAP1 SWAP2 POP DUP2 SWAP1 PUSH2 0xECE JUMP JUMPDEST ADD MLOAD SWAP1 POP DUP7 DUP1 PUSH2 0xA09 JUMP JUMPDEST PUSH1 0x0 DUP6 DUP2 MSTORE PUSH1 0x20 DUP2 KECCAK256 SWAP4 POP PUSH1 0x1F NOT DUP6 AND SWAP1 JUMPDEST DUP2 DUP2 LT PUSH2 0xF44 JUMPI POP SWAP1 DUP5 PUSH1 0x1 SWAP6 SWAP5 SWAP4 SWAP3 LT PUSH2 0xF2B JUMPI JUMPDEST POP POP POP DUP2 SHL ADD SWAP1 SSTORE PUSH2 0xA1E JUMP JUMPDEST ADD MLOAD PUSH1 0x0 NOT PUSH1 0xF8 DUP5 PUSH1 0x3 SHL AND SHR NOT AND SWAP1 SSTORE DUP7 DUP1 DUP1 PUSH2 0xF1E JUMP JUMPDEST SWAP3 SWAP4 PUSH1 0x20 PUSH1 0x1 DUP2 SWAP3 DUP8 DUP7 ADD MLOAD DUP2 SSTORE ADD SWAP6 ADD SWAP4 ADD PUSH2 0xF08 JUMP JUMPDEST PUSH2 0xF88 SWAP1 DUP6 PUSH1 0x0 MSTORE PUSH1 0x20 PUSH1 0x0 KECCAK256 PUSH1 0x1F DUP6 ADD PUSH1 0x5 SHR DUP2 ADD SWAP2 PUSH1 0x20 DUP7 LT PUSH2 0xEE1 JUMPI PUSH1 0x1F ADD PUSH1 0x5 SHR ADD SWAP1 PUSH2 0x14F8 JUMP JUMPDEST DUP8 PUSH2 0x9F2 JUMP JUMPDEST PUSH1 0x40 MLOAD PUSH3 0x461BCD PUSH1 0xE5 SHL DUP2 MSTORE PUSH1 0x20 PUSH1 0x4 DUP3 ADD MSTORE PUSH1 0x18 PUSH1 0x24 DUP3 ADD MSTORE PUSH32 0x417373657420616C726561647920726567697374657265640000000000000000 PUSH1 0x44 DUP3 ADD MSTORE PUSH1 0x64 SWAP1 REVERT JUMPDEST CALLVALUE PUSH2 0x15E JUMPI PUSH1 0x20 CALLDATASIZE PUSH1 0x3 NOT ADD SLT PUSH2 0x15E JUMPI PUSH1 0x4 CALLDATALOAD DUP1 PUSH1 0x0 MSTORE PUSH1 0x1 PUSH1 0x20 MSTORE PUSH2 0x1004 PUSH1 0xFF PUSH1 0x2 PUSH1 0x40 PUSH1 0x0 KECCAK256 ADD SLOAD AND PUSH2 0x15B4 JUMP JUMPDEST PUSH1 0x0 MSTORE PUSH1 0x1 PUSH1 0x20 MSTORE PUSH2 0x1043 PUSH1 0x40 PUSH1 0x0 KECCAK256 PUSH2 0x1051 PUSH2 0x102F PUSH1 0x4 PUSH2 0x1028 PUSH1 0x3 DUP6 ADD PUSH2 0x1654 JUMP JUMPDEST SWAP4 ADD PUSH2 0x1654 JUMP JUMPDEST PUSH1 0x40 MLOAD SWAP4 DUP5 SWAP4 PUSH1 0x40 DUP6 MSTORE PUSH1 0x40 DUP6 ADD SWAP1 PUSH2 0x1379 JUMP JUMPDEST SWAP1 DUP4 DUP3 SUB PUSH1 0x20 DUP6 ADD MSTORE PUSH2 0x1379 JUMP JUMPDEST SUB SWAP1 RETURN JUMPDEST CALLVALUE PUSH2 0x15E JUMPI PUSH1 0x0 CALLDATASIZE PUSH1 0x3 NOT ADD SLT PUSH2 0x15E JUMPI PUSH2 0x106E PUSH2 0x1466 JUMP JUMPDEST PUSH1 0x0 DUP1 SLOAD PUSH1 0x1 PUSH1 0x1 PUSH1 0xA0 SHL SUB NOT DUP2 AND DUP3 SSTORE PUSH1 0x1 PUSH1 0x1 PUSH1 0xA0 SHL SUB AND PUSH32 0x8BE0079C531659141344CD1FD0A4F28419497F9722A3DAAFE3B4186F6B6457E0 DUP3 DUP1 LOG3 STOP JUMPDEST CALLVALUE PUSH2 0x15E JUMPI PUSH1 0x20 DUP1 PUSH1 0x3 NOT CALLDATASIZE ADD SLT PUSH2 0x15E JUMPI PUSH1 0x4 CALLDATALOAD DUP1 PUSH1 0x0 MSTORE PUSH1 0x1 SWAP1 DUP2 DUP4 MSTORE PUSH2 0x10E1 PUSH1 0xFF PUSH1 0x2 PUSH1 0x40 PUSH1 0x0 KECCAK256 ADD SLOAD AND PUSH2 0x15B4 JUMP JUMPDEST PUSH1 0x0 MSTORE PUSH1 0x2 DUP3 MSTORE PUSH1 0x40 PUSH1 0x0 KECCAK256 SWAP1 DUP1 DUP3 ADD PUSH1 0x2 DUP4 ADD SWAP4 PUSH1 0x40 MLOAD SWAP4 DUP5 DUP3 DUP3 SLOAD SWAP2 DUP3 DUP2 MSTORE ADD SWAP1 DUP2 SWAP3 PUSH1 0x0 MSTORE DUP4 PUSH1 0x0 KECCAK256 SWAP1 PUSH1 0x0 JUMPDEST DUP2 DUP2 LT PUSH2 0x1291 JUMPI POP POP POP DUP6 PUSH2 0x1127 SWAP2 SUB DUP7 PUSH2 0x13EF JUMP JUMPDEST PUSH1 0x40 MLOAD SWAP1 DUP2 DUP4 DUP6 SLOAD SWAP2 DUP3 DUP2 MSTORE ADD SWAP1 DUP2 SWAP6 PUSH1 0x0 MSTORE DUP5 PUSH1 0x0 KECCAK256 SWAP1 PUSH1 0x0 JUMPDEST DUP2 DUP2 LT PUSH2 0x127E JUMPI POP POP POP DUP3 PUSH2 0x1158 SWAP2 SUB DUP4 PUSH2 0x13EF JUMP JUMPDEST DUP7 SLOAD SWAP2 PUSH2 0x1164 DUP4 PUSH2 0x150F JUMP JUMPDEST SWAP3 PUSH2 0x1172 PUSH1 0x40 MLOAD SWAP5 DUP6 PUSH2 0x13EF JUMP JUMPDEST DUP1 DUP5 MSTORE DUP5 DUP5 ADD DUP1 SWAP10 PUSH1 0x0 MSTORE DUP6 PUSH1 0x0 KECCAK256 PUSH1 0x0 SWAP2 JUMPDEST DUP4 DUP4 LT PUSH2 0x125B JUMPI POP POP POP POP PUSH1 0x40 MLOAD SWAP7 PUSH1 0x60 DUP9 ADD SWAP1 PUSH1 0x60 DUP10 MSTORE MLOAD DUP1 SWAP2 MSTORE PUSH1 0x80 DUP9 ADD SWAP3 SWAP1 PUSH1 0x0 JUMPDEST DUP2 DUP2 LT PUSH2 0x123F JUMPI POP POP POP DUP7 DUP3 SUB DUP8 DUP6 ADD MSTORE MLOAD DUP1 DUP3 MSTORE SWAP1 DUP4 ADD SWAP4 SWAP1 PUSH1 0x0 JUMPDEST DUP2 DUP2 LT PUSH2 0x122C JUMPI POP POP POP DUP5 DUP4 SUB PUSH1 0x40 DUP7 ADD MSTORE MLOAD SWAP1 DUP2 DUP4 MSTORE DUP1 DUP4 ADD SWAP3 DUP2 DUP4 PUSH1 0x5 SHL DUP3 ADD ADD SWAP7 SWAP4 PUSH1 0x0 SWAP2 JUMPDEST DUP5 DUP4 LT PUSH2 0x11FD JUMPI DUP8 DUP10 SUB DUP9 RETURN JUMPDEST SWAP1 SWAP2 SWAP3 SWAP4 SWAP5 SWAP6 DUP5 DUP1 PUSH2 0x121A DUP4 SWAP12 PUSH1 0x1F NOT DUP7 DUP3 SUB ADD DUP8 MSTORE DUP11 MLOAD PUSH2 0x1379 JUMP JUMPDEST SWAP11 SWAP9 ADD SWAP7 SWAP6 SWAP5 SWAP2 SWAP1 SWAP2 ADD SWAP3 ADD SWAP1 PUSH2 0x11F0 JUMP JUMPDEST DUP3 MLOAD DUP7 MSTORE SWAP5 DUP5 ADD SWAP5 SWAP2 DUP5 ADD SWAP2 DUP7 ADD PUSH2 0x11C7 JUMP JUMPDEST DUP3 MLOAD PUSH1 0x1 PUSH1 0x1 PUSH1 0xA0 SHL SUB AND DUP6 MSTORE SWAP4 DUP7 ADD SWAP4 SWAP2 DUP7 ADD SWAP2 DUP9 ADD PUSH2 0x11AA JUMP JUMPDEST SWAP1 DUP10 DUP1 DUP10 DUP2 SWAP15 SWAP13 SWAP6 SWAP5 PUSH2 0x126D DUP6 PUSH2 0x1654 JUMP JUMPDEST DUP2 MSTORE ADD SWAP3 ADD SWAP3 ADD SWAP3 POP SWAP11 SWAP9 SWAP11 PUSH2 0x1185 JUMP JUMPDEST DUP3 SLOAD DUP5 MSTORE SWAP3 DUP7 ADD SWAP3 SWAP2 DUP9 ADD SWAP2 DUP9 ADD PUSH2 0x1142 JUMP JUMPDEST DUP3 SLOAD PUSH1 0x1 PUSH1 0x1 PUSH1 0xA0 SHL SUB AND DUP5 MSTORE SWAP3 DUP6 ADD SWAP3 SWAP2 DUP8 ADD SWAP2 DUP8 ADD PUSH2 0x1111 JUMP JUMPDEST CALLVALUE PUSH2 0x15E JUMPI PUSH32 0xFF50AEAF5513A2BFCF5C38AF0D681D05E9A00CD91CC42AB2E143549595E5F172 PUSH1 0x20 PUSH2 0x82B CALLDATASIZE PUSH2 0x134F JUMP JUMPDEST CALLVALUE PUSH2 0x15E JUMPI PUSH1 0x40 CALLDATASIZE PUSH1 0x3 NOT ADD SLT PUSH2 0x15E JUMPI PUSH1 0x20 SWAP1 PUSH2 0x12FA PUSH2 0x1339 JUMP JUMPDEST PUSH1 0x4 CALLDATALOAD PUSH1 0x0 MSTORE PUSH1 0x1 DUP4 MSTORE PUSH1 0x40 PUSH1 0x0 KECCAK256 SWAP1 PUSH1 0xFF PUSH1 0x2 DUP4 ADD SLOAD AND SWAP2 DUP3 PUSH2 0x1321 JUMPI JUMPDEST POP POP ISZERO ISZERO DUP2 MSTORE RETURN JUMPDEST SLOAD PUSH1 0x1 PUSH1 0x1 PUSH1 0xA0 SHL SUB SWAP2 DUP3 AND SWAP2 AND EQ SWAP1 POP DUP4 DUP1 PUSH2 0x1319 JUMP JUMPDEST PUSH1 0x24 CALLDATALOAD SWAP1 PUSH1 0x1 PUSH1 0x1 PUSH1 0xA0 SHL SUB DUP3 AND DUP3 SUB PUSH2 0x15E JUMPI JUMP JUMPDEST PUSH1 0x60 SWAP1 PUSH1 0x3 NOT ADD SLT PUSH2 0x15E JUMPI PUSH1 0x4 CALLDATALOAD SWAP1 PUSH1 0x24 CALLDATALOAD PUSH1 0x1 PUSH1 0x1 PUSH1 0xA0 SHL SUB DUP2 AND DUP2 SUB PUSH2 0x15E JUMPI SWAP1 PUSH1 0x44 CALLDATALOAD SWAP1 JUMP JUMPDEST SWAP2 SWAP1 DUP3 MLOAD SWAP3 DUP4 DUP3 MSTORE PUSH1 0x0 JUMPDEST DUP5 DUP2 LT PUSH2 0x13A5 JUMPI POP POP DUP3 PUSH1 0x0 PUSH1 0x20 DUP1 SWAP5 SWAP6 DUP5 ADD ADD MSTORE PUSH1 0x1F DUP1 NOT SWAP2 ADD AND ADD ADD SWAP1 JUMP JUMPDEST PUSH1 0x20 DUP2 DUP4 ADD DUP2 ADD MLOAD DUP5 DUP4 ADD DUP3 ADD MSTORE ADD PUSH2 0x1384 JUMP JUMPDEST PUSH1 0x60 DUP2 ADD SWAP1 DUP2 LT PUSH1 0x1 PUSH1 0x1 PUSH1 0x40 SHL SUB DUP3 GT OR PUSH2 0x335 JUMPI PUSH1 0x40 MSTORE JUMP JUMPDEST PUSH1 0x40 DUP2 ADD SWAP1 DUP2 LT PUSH1 0x1 PUSH1 0x1 PUSH1 0x40 SHL SUB DUP3 GT OR PUSH2 0x335 JUMPI PUSH1 0x40 MSTORE JUMP JUMPDEST SWAP1 PUSH1 0x1F DUP1 NOT SWAP2 ADD AND DUP2 ADD SWAP1 DUP2 LT PUSH1 0x1 PUSH1 0x1 PUSH1 0x40 SHL SUB DUP3 GT OR PUSH2 0x335 JUMPI PUSH1 0x40 MSTORE JUMP JUMPDEST DUP2 PUSH1 0x1F DUP3 ADD SLT ISZERO PUSH2 0x15E JUMPI DUP1 CALLDATALOAD SWAP1 PUSH1 0x1 PUSH1 0x1 PUSH1 0x40 SHL SUB DUP3 GT PUSH2 0x335 JUMPI PUSH1 0x40 MLOAD SWAP3 PUSH2 0x1444 PUSH1 0x1F DUP5 ADD PUSH1 0x1F NOT AND PUSH1 0x20 ADD DUP6 PUSH2 0x13EF JUMP JUMPDEST DUP3 DUP5 MSTORE PUSH1 0x20 DUP4 DUP4 ADD ADD GT PUSH2 0x15E JUMPI DUP2 PUSH1 0x0 SWAP3 PUSH1 0x20 DUP1 SWAP4 ADD DUP4 DUP7 ADD CALLDATACOPY DUP4 ADD ADD MSTORE SWAP1 JUMP JUMPDEST PUSH1 0x0 SLOAD PUSH1 0x1 PUSH1 0x1 PUSH1 0xA0 SHL SUB AND CALLER SUB PUSH2 0x147A JUMPI JUMP JUMPDEST PUSH1 0x64 PUSH1 0x40 MLOAD PUSH3 0x461BCD PUSH1 0xE5 SHL DUP2 MSTORE PUSH1 0x20 PUSH1 0x4 DUP3 ADD MSTORE PUSH1 0x20 PUSH1 0x24 DUP3 ADD MSTORE PUSH32 0x4F776E61626C653A2063616C6C6572206973206E6F7420746865206F776E6572 PUSH1 0x44 DUP3 ADD MSTORE REVERT JUMPDEST SWAP1 PUSH1 0x1 DUP3 DUP2 SHR SWAP3 AND DUP1 ISZERO PUSH2 0x14EE JUMPI JUMPDEST PUSH1 0x20 DUP4 LT EQ PUSH2 0x14D8 JUMPI JUMP JUMPDEST PUSH4 0x4E487B71 PUSH1 0xE0 SHL PUSH1 0x0 MSTORE PUSH1 0x22 PUSH1 0x4 MSTORE PUSH1 0x24 PUSH1 0x0 REVERT JUMPDEST SWAP2 PUSH1 0x7F AND SWAP2 PUSH2 0x14CD JUMP JUMPDEST DUP2 DUP2 LT PUSH2 0x1503 JUMPI POP POP JUMP JUMPDEST PUSH1 0x0 DUP2 SSTORE PUSH1 0x1 ADD PUSH2 0x14F8 JUMP JUMPDEST PUSH1 0x1 PUSH1 0x1 PUSH1 0x40 SHL SUB DUP2 GT PUSH2 0x335 JUMPI PUSH1 0x5 SHL PUSH1 0x20 ADD SWAP1 JUMP JUMPDEST SWAP1 PUSH2 0x1530 DUP3 PUSH2 0x150F JUMP JUMPDEST PUSH2 0x153D PUSH1 0x40 MLOAD SWAP2 DUP3 PUSH2 0x13EF JUMP JUMPDEST DUP3 DUP2 MSTORE DUP1 SWAP3 PUSH2 0x154E PUSH1 0x1F NOT SWAP2 PUSH2 0x150F JUMP JUMPDEST ADD SWAP1 PUSH1 0x20 CALLDATASIZE SWAP2 ADD CALLDATACOPY JUMP JUMPDEST DUP1 MLOAD ISZERO PUSH2 0x1565 JUMPI PUSH1 0x20 ADD SWAP1 JUMP JUMPDEST PUSH4 0x4E487B71 PUSH1 0xE0 SHL PUSH1 0x0 MSTORE PUSH1 0x32 PUSH1 0x4 MSTORE PUSH1 0x24 PUSH1 0x0 REVERT JUMPDEST DUP1 MLOAD DUP3 LT ISZERO PUSH2 0x1565 JUMPI PUSH1 0x20 SWAP2 PUSH1 0x5 SHL ADD ADD SWAP1 JUMP JUMPDEST SWAP2 DUP2 DUP2 LT PUSH2 0x159C JUMPI POP POP POP JUMP JUMPDEST PUSH2 0x15B2 SWAP3 PUSH1 0x0 MSTORE PUSH1 0x20 PUSH1 0x0 KECCAK256 SWAP2 DUP3 ADD SWAP2 ADD PUSH2 0x14F8 JUMP JUMPDEST JUMP JUMPDEST ISZERO PUSH2 0x15BB JUMPI JUMP JUMPDEST PUSH1 0x40 MLOAD PUSH3 0x461BCD PUSH1 0xE5 SHL DUP2 MSTORE PUSH1 0x20 PUSH1 0x4 DUP3 ADD MSTORE PUSH1 0x14 PUSH1 0x24 DUP3 ADD MSTORE PUSH20 0x105CDCD95D08191BD95CC81B9BDD08195E1A5CDD PUSH1 0x62 SHL PUSH1 0x44 DUP3 ADD MSTORE PUSH1 0x64 SWAP1 REVERT JUMPDEST DUP1 SLOAD SWAP1 PUSH1 0x1 PUSH1 0x40 SHL DUP3 LT ISZERO PUSH2 0x335 JUMPI PUSH1 0x1 DUP3 ADD DUP1 DUP3 SSTORE DUP3 LT ISZERO PUSH2 0x1565 JUMPI PUSH1 0x2 SWAP2 PUSH1 0x40 SWAP2 PUSH1 0x0 MSTORE PUSH1 0x3 PUSH1 0x20 PUSH1 0x0 KECCAK256 SWAP2 MUL ADD SWAP3 PUSH1 0x1 DUP1 PUSH1 0xA0 SHL SUB DUP2 MLOAD AND PUSH1 0x1 PUSH1 0x1 PUSH1 0x60 SHL SUB PUSH1 0xA0 SHL DUP6 SLOAD AND OR DUP5 SSTORE PUSH1 0x20 DUP2 ADD MLOAD PUSH1 0x1 DUP6 ADD SSTORE ADD MLOAD SWAP2 ADD SSTORE JUMP JUMPDEST SWAP1 PUSH1 0x40 MLOAD SWAP2 DUP3 PUSH1 0x0 DUP3 SLOAD SWAP3 PUSH2 0x1668 DUP5 PUSH2 0x14BE JUMP JUMPDEST SWAP1 DUP2 DUP5 MSTORE PUSH1 0x1 SWAP5 DUP6 DUP2 AND SWAP1 DUP2 PUSH1 0x0 EQ PUSH2 0x16D5 JUMPI POP PUSH1 0x1 EQ PUSH2 0x1692 JUMPI JUMPDEST POP POP PUSH2 0x15B2 SWAP3 POP SUB DUP4 PUSH2 0x13EF JUMP JUMPDEST SWAP1 SWAP4 SWAP2 POP PUSH1 0x0 MSTORE PUSH1 0x20 SWAP1 DUP2 PUSH1 0x0 KECCAK256 SWAP4 PUSH1 0x0 SWAP2 JUMPDEST DUP2 DUP4 LT PUSH2 0x16BD JUMPI POP POP PUSH2 0x15B2 SWAP4 POP DUP3 ADD ADD CODESIZE DUP1 PUSH2 0x1684 JUMP JUMPDEST DUP6 SLOAD DUP9 DUP5 ADD DUP6 ADD MSTORE SWAP5 DUP6 ADD SWAP5 DUP8 SWAP5 POP SWAP2 DUP4 ADD SWAP2 PUSH2 0x16A5 JUMP JUMPDEST SWAP2 POP POP PUSH2 0x15B2 SWAP5 POP PUSH1 0x20 SWAP3 POP PUSH1 0xFF NOT AND DUP3 DUP5 ADD MSTORE ISZERO ISZERO PUSH1 0x5 SHL DUP3 ADD ADD CODESIZE DUP1 PUSH2 0x1684 JUMP JUMPDEST DUP1 SLOAD DUP3 LT ISZERO PUSH2 0x1565 JUMPI PUSH1 0x0 MSTORE PUSH1 0x20 PUSH1 0x0 KECCAK256 ADD SWAP1 PUSH1 0x0 SWAP1 JUMP INVALID LOG2 PUSH5 0x6970667358 0x22 SLT KECCAK256 0x25 NOT CODESIZE BALANCE POP NUMBER 0xA9 MULMOD 0x49 SMOD PUSH22 0x74F54492D60E8935F27AAEA2616A39A87D8EA2CD2F64 PUSH20 0x6F6C634300081300330000000000000000000000 "},"methodIdentifiers":{"addProvenanceRecord(uint256,address,string)":"9ccb1426","distributeRoyalty(uint256,address,uint256)":"4e046276","getProvenance(uint256)":"60f1233d","getUsageRights(uint256)":"757c6ad6","owner()":"8da5cb5b","recordRoyaltyPayment(uint256,address,uint256)":"93004916","registerAsset(uint256,address)":"76156249","renounceOwnership()":"715018a6","setLicense(uint256,string,string)":"b71989c0","transferOwnership(address)":"f2fde38b","verifyOwnership(uint256,address)":"09cc449d"}}}}}