{"contracts/CitationRegistry.sol":{"CitationRegistry":{"abi":[{"anonymous":false,"inputs":[{"indexed":true,"internalType":"uint256","name":"citationId","type":"uint256"},{"indexed":true,"internalType":"uint256","name":"citingPaperId","type":"uint256"},{"indexed":true,"internalType":"uint256","name":"citedPaperId","type":"uint256"},{"indexed":false,"internalType":"address","name":"citer","type":"address"}],"name":"CitationRecorded","type":"event"},{"anonymous":false,"inputs":[{"indexed":true,"internalType":"address","name":"recorder","type":"address"}],"name":"CitationRecorderAdded","type":"event"},{"anonymous":false,"inputs":[{"indexed":true,"internalType":"address","name":"recorder","type":"address"}],"name":"CitationRecorderRemoved","type":"event"},{"anonymous":false,"inputs":[{"indexed":true,"internalType":"uint256","name":"citationId","type":"uint256"},{"indexed":false,"internalType":"address","name":"verifier","type":"address"}],"name":"CitationVerified","type":"event"},{"anonymous":false,"inputs":[{"indexed":true,"internalType":"address","name":"verifier","type":"address"}],"name":"CitationVerifierAdded","type":"event"},{"anonymous":false,"inputs":[{"indexed":true,"internalType":"address","name":"verifier","type":"address"}],"name":"CitationVerifierRemoved","type":"event"},{"anonymous":false,"inputs":[{"indexed":true,"internalType":"address","name":"previousOwner","type":"address"},{"indexed":true,"internalType":"address","name":"newOwner","type":"address"}],"name":"OwnershipTransferred","type":"event"},{"inputs":[{"internalType":"address","name":"_recorder","type":"address"}],"name":"addCitationRecorder","outputs":[],"stateMutability":"nonpayable","type":"function"},{"inputs":[{"internalType":"address","name":"_verifier","type":"address"}],"name":"addCitationVerifier","outputs":[],"stateMutability":"nonpayable","type":"function"},{"inputs":[{"internalType":"address","name":"","type":"address"}],"name":"citationRecorders","outputs":[{"internalType":"bool","name":"","type":"bool"}],"stateMutability":"view","type":"function"},{"inputs":[{"internalType":"address","name":"","type":"address"}],"name":"citationVerifiers","outputs":[{"internalType":"bool","name":"","type":"bool"}],"stateMutability":"view","type":"function"},{"inputs":[{"internalType":"uint256","name":"","type":"uint256"}],"name":"citations","outputs":[{"internalType":"uint256","name":"citationId","type":"uint256"},{"internalType":"uint256","name":"citingPaperId","type":"uint256"},{"internalType":"uint256","name":"citedPaperId","type":"uint256"},{"internalType":"address","name":"citer","type":"address"},{"internalType":"uint256","name":"timestamp","type":"uint256"},{"internalType":"bool","name":"isVerified","type":"bool"}],"stateMutability":"view","type":"function"},{"inputs":[{"internalType":"uint256","name":"_paperId","type":"uint256"}],"name":"getCitationCount","outputs":[{"internalType":"uint256","name":"","type":"uint256"}],"stateMutability":"view","type":"function"},{"inputs":[{"internalType":"uint256","name":"_citationId","type":"uint256"}],"name":"getCitationDetails","outputs":[{"internalType":"uint256","name":"citingPaperId","type":"uint256"},{"internalType":"uint256","name":"citedPaperId","type":"uint256"},{"internalType":"address","name":"citer","type":"address"},{"internalType":"uint256","name":"timestamp","type":"uint256"},{"internalType":"bool","name":"isVerified","type":"bool"}],"stateMutability":"view","type":"function"},{"inputs":[{"internalType":"uint256","name":"_paperId","type":"uint256"}],"name":"getCitations","outputs":[{"internalType":"uint256[]","name":"","type":"uint256[]"}],"stateMutability":"view","type":"function"},{"inputs":[{"internalType":"uint256","name":"_paperId","type":"uint256"}],"name":"getCitedPapers","outputs":[{"internalType":"uint256[]","name":"","type":"uint256[]"}],"stateMutability":"view","type":"function"},{"inputs":[{"internalType":"uint256","name":"_paperId","type":"uint256"}],"name":"getVerifiedCitationCount","outputs":[{"internalType":"uint256","name":"","type":"uint256"}],"stateMutability":"view","type":"function"},{"inputs":[],"name":"owner","outputs":[{"internalType":"address","name":"","type":"address"}],"stateMutability":"view","type":"function"},{"inputs":[{"internalType":"uint256","name":"_citingPaperId","type":"uint256"},{"internalType":"uint256","name":"_citedPaperId","type":"uint256"},{"internalType":"address","name":"_citer","type":"address"}],"name":"recordCitation","outputs":[{"internalType":"uint256","name":"","type":"uint256"}],"stateMutability":"nonpayable","type":"function"},{"inputs":[{"internalType":"address","name":"_recorder","type":"address"}],"name":"removeCitationRecorder","outputs":[],"stateMutability":"nonpayable","type":"function"},{"inputs":[{"internalType":"address","name":"_verifier","type":"address"}],"name":"removeCitationVerifier","outputs":[],"stateMutability":"nonpayable","type":"function"},{"inputs":[],"name":"renounceOwnership","outputs":[],"stateMutability":"nonpayable","type":"function"},{"inputs":[{"internalType":"address","name":"newOwner","type":"address"}],"name":"transferOwnership","outputs":[],"stateMutability":"nonpayable","type":"function"},{"inputs":[{"internalType":"uint256","name":"_citationId","type":"uint256"}],"name":"verifyCitation","outputs":[],"stateMutability":"nonpayable","type":"function"}],"evm":{"bytecode":{"linkReferences":{},"object":"608080604052346100605760008054336001600160a01b0319821681178355916001600160a01b03909116907f8be0079c531659141344cd1fd0a4f28419497f9722a3daafe3b4186f6b6457e09080a36001600455610dd490816100668239f35b600080fdfe6040608081526004908136101561001557600080fd5b6000803560e01c806302a5aca214610ade5780631c2f910814610a1e5780634c4c9aa5146109f65780635a4058ae14610991578063715018a61461093757806374f96b62146108c45780637726a49c146106f257806378f1c433146106b4578063804bbcbd146105f45780638da5cb5b146105cc5780638e6794ad1461050157806392b264b0146104c3578063a8ec662314610377578063dec4ab19146102ba578063ec8c97851461024f578063f2fde38b146101885763f99d4610146100db57600080fd5b3461018557602036600319011261018557828260a094928593358015158061017b575b61010790610d14565b81526001602052209083519361011c85610c7c565b82548552600183015494856020820152600284015490818382015260ff6005600180891b036003880154169586606085015287015496876080850152015416151595869101528151958652602086015284015260608301526080820152f35b50835481106100fe565b80fd5b50913461024b57602036600319011261024b576101a3610ba9565b906101ac610bff565b6001600160a01b039182169283156101f957505082546001600160a01b0319811683178455167f8be0079c531659141344cd1fd0a4f28419497f9722a3daafe3b4186f6b6457e08380a380f35b906020608492519162461bcd60e51b8352820152602660248201527f4f776e61626c653a206e6577206f776e657220697320746865207a65726f206160448201526564647265737360d01b6064820152fd5b8280fd5b5091903461024b57602036600319011261024b578060c0938335815260016020522080549260018201549260028301549060ff600560018060a01b036003870154169486015495015416948151968752602087015285015260608401526080830152151560a0820152f35b508234610373576020928360031936011261024b57829135835260028452808320908051808387829554938481520190875287872092875b8982821061035d5750505061030992500383610cae565b835b82518110156103545760ff60058783821b8601015187526001885283872001541661033f575b61033a90610c57565b61030b565b9261034c61033a91610c57565b939050610331565b85848351908152f35b85548452600195860195889550930192016102f2565b5080fd5b5091903461024b57602090816003193601126104bf578235923385526006835260ff828620541680156104ac575b156104605783151580610456575b6103bc90610d14565b8385526001835260ff60058387200154166104155750907f8ae689ea97b8ef32dc4a1e935b66cec616f277c31a495f056e57f23d0c6572019183855260018252600581862001600160ff1982541617905551338152a280f35b82606492519162461bcd60e51b8352820152601960248201527f4369746174696f6e20616c7265616479207665726966696564000000000000006044820152fd5b50805484106103b3565b82608492519162461bcd60e51b8352820152602260248201527f4e6f7420617574686f72697a656420746f20766572696679206369746174696f6044820152616e7360f01b6064820152fd5b5084546001600160a01b031633146103a5565b8380fd5b5090346103735760203660031901126103735760209160ff9082906001600160a01b036104ee610ba9565b1681526006855220541690519015158152f35b5091903461024b57602036600319011261024b5761051d610ba9565b610525610bff565b6001600160a01b03169161053a831515610d60565b828452600560205260ff828520541661058a575081835260056020528220805460ff191660011790557fce91130717d2a8df12b4279ebfdbadfc119332f4b2dad166673eaac23163b4c78280a280f35b6020606492519162461bcd60e51b8352820152601b60248201527f416c72656164792061206369746174696f6e207265636f7264657200000000006044820152fd5b509034610373578160031936011261037357905490516001600160a01b039091168152602090f35b5091903461024b57602036600319011261024b57610610610ba9565b610618610bff565b6001600160a01b031680845260056020528184205490929060ff1615610672575081835260056020528220805460ff191690557f8fc3ade6a918ca9880506f6998a286215d1946aabe40d0fce810c2a0b1ee52578280a280f35b6020606492519162461bcd60e51b8352820152601760248201527f4e6f742061206369746174696f6e207265636f726465720000000000000000006044820152fd5b5090346103735760203660031901126103735760209160ff9082906001600160a01b036106df610ba9565b1681526005855220541690519015158152f35b5091903461024b57606036600319011261024b576001600160a01b0392602435908335906044358681169190829003610185573381526020966005885260ff868320541680156108b8575b1561086a5784841461083457839261082886887f870f17befc354cab17771c5ac0af215a17a4f556fd773f94b10fcfe68d3c10f5958c600581978e549e8f9b8c9761078789610c57565b835587519361079585610c7c565b89855286850192835288850191825260608501918c83526080860193428552600160a08801998b8b528d8c52528a8a2096518755516001870155516002860155600385019151166bffffffffffffffffffffffff60a01b8254161790555190820155019051151560ff801983541691161790558981526002865261081b83838320610cd0565b8881526003865220610cd0565b8651908152a451908152f35b855162461bcd60e51b8152808801899052601060248201526f21b0b73737ba1031b4ba329039b2b63360811b6044820152606490fd5b855162461bcd60e51b8152808801899052602260248201527f4e6f7420617574686f72697a656420746f207265636f7264206369746174696f6044820152616e7360f01b6064820152608490fd5b5080825416331461073d565b5091903461024b57602091826003193601126104bf57358352600282528083209281518093808654928381520195835280832092905b8282106109205761091c8686610912828b0383610cae565b5191829182610bc4565b0390f35b8354875295860195600193840193909101906108fa565b5034610185578060031936011261018557610950610bff565b80546001600160a01b03198116825581906001600160a01b03167f8be0079c531659141344cd1fd0a4f28419497f9722a3daafe3b4186f6b6457e08280a380f35b5091903461024b57602091826003193601126104bf57358352600382528083209281518093808654928381520195835280832092905b8282106109df5761091c8686610912828b0383610cae565b8354875295860195600193840193909101906109c7565b50913461024b57602036600319011261024b5760209282913581526002845220549051908152f35b5091903461024b57602036600319011261024b57610a3a610ba9565b610a42610bff565b6001600160a01b031680845260066020528184205490929060ff1615610a9c575081835260066020528220805460ff191690557fcb9adcde23e9e0379dd946a07e79bacedc5eef898695f8c267357d6427cfbcc58280a280f35b6020606492519162461bcd60e51b8352820152601760248201527f4e6f742061206369746174696f6e2076657269666965720000000000000000006044820152fd5b5091903461024b57602036600319011261024b57610afa610ba9565b610b02610bff565b6001600160a01b031691610b17831515610d60565b828452600660205260ff8285205416610b67575081835260066020528220805460ff191660011790557fbe3658ce05b41c0ea73bd2ed0ae768bf233818f6be3d2684f86865028d5f865f8280a280f35b6020606492519162461bcd60e51b8352820152601b60248201527f416c72656164792061206369746174696f6e20766572696669657200000000006044820152fd5b600435906001600160a01b0382168203610bbf57565b600080fd5b6020908160408183019282815285518094520193019160005b828110610beb575050505090565b835185529381019392810192600101610bdd565b6000546001600160a01b03163303610c1357565b606460405162461bcd60e51b815260206004820152602060248201527f4f776e61626c653a2063616c6c6572206973206e6f7420746865206f776e65726044820152fd5b6000198114610c665760010190565b634e487b7160e01b600052601160045260246000fd5b60c0810190811067ffffffffffffffff821117610c9857604052565b634e487b7160e01b600052604160045260246000fd5b90601f8019910116810190811067ffffffffffffffff821117610c9857604052565b80549068010000000000000000821015610c985760018201808255821015610cfe5760005260206000200155565b634e487b7160e01b600052603260045260246000fd5b15610d1b57565b60405162461bcd60e51b815260206004820152601760248201527f4369746174696f6e20646f6573206e6f742065786973740000000000000000006044820152606490fd5b15610d6757565b60405162461bcd60e51b815260206004820152600f60248201526e496e76616c6964206164647265737360881b6044820152606490fdfea2646970667358221220d80bcf77e8cf24ab2cb40d8d9b89d8fca4cd8963a78848bbacf2f6c842a975b264736f6c63430008130033","opcodes":"PUSH1 0x80 DUP1 PUSH1 0x40 MSTORE CALLVALUE PUSH2 0x60 JUMPI PUSH1 0x0 DUP1 SLOAD CALLER PUSH1 0x1 PUSH1 0x1 PUSH1 0xA0 SHL SUB NOT DUP3 AND DUP2 OR DUP4 SSTORE SWAP2 PUSH1 0x1 PUSH1 0x1 PUSH1 0xA0 SHL SUB SWAP1 SWAP2 AND SWAP1 PUSH32 0x8BE0079C531659141344CD1FD0A4F28419497F9722A3DAAFE3B4186F6B6457E0 SWAP1 DUP1 LOG3 PUSH1 0x1 PUSH1 0x4 SSTORE PUSH2 0xDD4 SWAP1 DUP2 PUSH2 0x66 DUP3 CODECOPY RETURN JUMPDEST PUSH1 0x0 DUP1 REVERT INVALID PUSH1 0x40 PUSH1 0x80 DUP2 MSTORE PUSH1 0x4 SWAP1 DUP2 CALLDATASIZE LT ISZERO PUSH2 0x15 JUMPI PUSH1 0x0 DUP1 REVERT JUMPDEST PUSH1 0x0 DUP1 CALLDATALOAD PUSH1 0xE0 SHR DUP1 PUSH4 0x2A5ACA2 EQ PUSH2 0xADE JUMPI DUP1 PUSH4 0x1C2F9108 EQ PUSH2 0xA1E JUMPI DUP1 PUSH4 0x4C4C9AA5 EQ PUSH2 0x9F6 JUMPI DUP1 PUSH4 0x5A4058AE EQ PUSH2 0x991 JUMPI DUP1 PUSH4 0x715018A6 EQ PUSH2 0x937 JUMPI DUP1 PUSH4 0x74F96B62 EQ PUSH2 0x8C4 JUMPI DUP1 PUSH4 0x7726A49C EQ PUSH2 0x6F2 JUMPI DUP1 PUSH4 0x78F1C433 EQ PUSH2 0x6B4 JUMPI DUP1 PUSH4 0x804BBCBD EQ PUSH2 0x5F4 JUMPI DUP1 PUSH4 0x8DA5CB5B EQ PUSH2 0x5CC JUMPI DUP1 PUSH4 0x8E6794AD EQ PUSH2 0x501 JUMPI DUP1 PUSH4 0x92B264B0 EQ PUSH2 0x4C3 JUMPI DUP1 PUSH4 0xA8EC6623 EQ PUSH2 0x377 JUMPI DUP1 PUSH4 0xDEC4AB19 EQ PUSH2 0x2BA JUMPI DUP1 PUSH4 0xEC8C9785 EQ PUSH2 0x24F JUMPI DUP1 PUSH4 0xF2FDE38B EQ PUSH2 0x188 JUMPI PUSH4 0xF99D4610 EQ PUSH2 0xDB JUMPI PUSH1 0x0 DUP1 REVERT JUMPDEST CALLVALUE PUSH2 0x185 JUMPI PUSH1 0x20 CALLDATASIZE PUSH1 0x3 NOT ADD SLT PUSH2 0x185 JUMPI DUP3 DUP3 PUSH1 0xA0 SWAP5 SWAP3 DUP6 SWAP4 CALLDATALOAD DUP1 ISZERO ISZERO DUP1 PUSH2 0x17B JUMPI JUMPDEST PUSH2 0x107 SWAP1 PUSH2 0xD14 JUMP JUMPDEST DUP2 MSTORE PUSH1 0x1 PUSH1 0x20 MSTORE KECCAK256 SWAP1 DUP4 MLOAD SWAP4 PUSH2 0x11C DUP6 PUSH2 0xC7C JUMP JUMPDEST DUP3 SLOAD DUP6 MSTORE PUSH1 0x1 DUP4 ADD SLOAD SWAP5 DUP6 PUSH1 0x20 DUP3 ADD MSTORE PUSH1 0x2 DUP5 ADD SLOAD SWAP1 DUP2 DUP4 DUP3 ADD MSTORE PUSH1 0xFF PUSH1 0x5 PUSH1 0x1 DUP1 DUP10 SHL SUB PUSH1 0x3 DUP9 ADD SLOAD AND SWAP6 DUP7 PUSH1 0x60 DUP6 ADD MSTORE DUP8 ADD SLOAD SWAP7 DUP8 PUSH1 0x80 DUP6 ADD MSTORE ADD SLOAD AND ISZERO ISZERO SWAP6 DUP7 SWAP2 ADD MSTORE DUP2 MLOAD SWAP6 DUP7 MSTORE PUSH1 0x20 DUP7 ADD MSTORE DUP5 ADD MSTORE PUSH1 0x60 DUP4 ADD MSTORE PUSH1 0x80 DUP3 ADD MSTORE RETURN JUMPDEST POP DUP4 SLOAD DUP2 LT PUSH2 0xFE JUMP JUMPDEST DUP1 REVERT JUMPDEST POP SWAP2 CALLVALUE PUSH2 0x24B JUMPI PUSH1 0x20 CALLDATASIZE PUSH1 0x3 NOT ADD SLT PUSH2 0x24B JUMPI PUSH2 0x1A3 PUSH2 0xBA9 JUMP JUMPDEST SWAP1 PUSH2 0x1AC PUSH2 0xBFF JUMP JUMPDEST PUSH1 0x1 PUSH1 0x1 PUSH1 0xA0 SHL SUB SWAP2 DUP3 AND SWAP3 DUP4 ISZERO PUSH2 0x1F9 JUMPI POP POP DUP3 SLOAD PUSH1 0x1 PUSH1 0x1 PUSH1 0xA0 SHL SUB NOT DUP2 AND DUP4 OR DUP5 SSTORE AND PUSH32 0x8BE0079C531659141344CD1FD0A4F28419497F9722A3DAAFE3B4186F6B6457E0 DUP4 DUP1 LOG3 DUP1 RETURN JUMPDEST SWAP1 PUSH1 0x20 PUSH1 0x84 SWAP3 MLOAD SWAP2 PUSH3 0x461BCD PUSH1 0xE5 SHL DUP4 MSTORE DUP3 ADD MSTORE PUSH1 0x26 PUSH1 0x24 DUP3 ADD MSTORE PUSH32 0x4F776E61626C653A206E6577206F776E657220697320746865207A65726F2061 PUSH1 0x44 DUP3 ADD MSTORE PUSH6 0x646472657373 PUSH1 0xD0 SHL PUSH1 0x64 DUP3 ADD MSTORE REVERT JUMPDEST DUP3 DUP1 REVERT JUMPDEST POP SWAP2 SWAP1 CALLVALUE PUSH2 0x24B JUMPI PUSH1 0x20 CALLDATASIZE PUSH1 0x3 NOT ADD SLT PUSH2 0x24B JUMPI DUP1 PUSH1 0xC0 SWAP4 DUP4 CALLDATALOAD DUP2 MSTORE PUSH1 0x1 PUSH1 0x20 MSTORE KECCAK256 DUP1 SLOAD SWAP3 PUSH1 0x1 DUP3 ADD SLOAD SWAP3 PUSH1 0x2 DUP4 ADD SLOAD SWAP1 PUSH1 0xFF PUSH1 0x5 PUSH1 0x1 DUP1 PUSH1 0xA0 SHL SUB PUSH1 0x3 DUP8 ADD SLOAD AND SWAP5 DUP7 ADD SLOAD SWAP6 ADD SLOAD AND SWAP5 DUP2 MLOAD SWAP7 DUP8 MSTORE PUSH1 0x20 DUP8 ADD MSTORE DUP6 ADD MSTORE PUSH1 0x60 DUP5 ADD MSTORE PUSH1 0x80 DUP4 ADD MSTORE ISZERO ISZERO PUSH1 0xA0 DUP3 ADD MSTORE RETURN JUMPDEST POP DUP3 CALLVALUE PUSH2 0x373 JUMPI PUSH1 0x20 SWAP3 DUP4 PUSH1 0x3 NOT CALLDATASIZE ADD SLT PUSH2 0x24B JUMPI DUP3 SWAP2 CALLDATALOAD DUP4 MSTORE PUSH1 0x2 DUP5 MSTORE DUP1 DUP4 KECCAK256 SWAP1 DUP1 MLOAD DUP1 DUP4 DUP8 DUP3 SWAP6 SLOAD SWAP4 DUP5 DUP2 MSTORE ADD SWAP1 DUP8 MSTORE DUP8 DUP8 KECCAK256 SWAP3 DUP8 JUMPDEST DUP10 DUP3 DUP3 LT PUSH2 0x35D JUMPI POP POP POP PUSH2 0x309 SWAP3 POP SUB DUP4 PUSH2 0xCAE JUMP JUMPDEST DUP4 JUMPDEST DUP3 MLOAD DUP2 LT ISZERO PUSH2 0x354 JUMPI PUSH1 0xFF PUSH1 0x5 DUP8 DUP4 DUP3 SHL DUP7 ADD ADD MLOAD DUP8 MSTORE PUSH1 0x1 DUP9 MSTORE DUP4 DUP8 KECCAK256 ADD SLOAD AND PUSH2 0x33F JUMPI JUMPDEST PUSH2 0x33A SWAP1 PUSH2 0xC57 JUMP JUMPDEST PUSH2 0x30B JUMP JUMPDEST SWAP3 PUSH2 0x34C PUSH2 0x33A SWAP2 PUSH2 0xC57 JUMP JUMPDEST SWAP4 SWAP1 POP PUSH2 0x331 JUMP JUMPDEST DUP6 DUP5 DUP4 MLOAD SWAP1 DUP2 MSTORE RETURN JUMPDEST DUP6 SLOAD DUP5 MSTORE PUSH1 0x1 SWAP6 DUP7 ADD SWAP6 DUP9 SWAP6 POP SWAP4 ADD SWAP3 ADD PUSH2 0x2F2 JUMP JUMPDEST POP DUP1 REVERT JUMPDEST POP SWAP2 SWAP1 CALLVALUE PUSH2 0x24B JUMPI PUSH1 0x20 SWAP1 DUP2 PUSH1 0x3 NOT CALLDATASIZE ADD SLT PUSH2 0x4BF JUMPI DUP3 CALLDATALOAD SWAP3 CALLER DUP6 MSTORE PUSH1 0x6 DUP4 MSTORE PUSH1 0xFF DUP3 DUP7 KECCAK256 SLOAD AND DUP1 ISZERO PUSH2 0x4AC JUMPI JUMPDEST ISZERO PUSH2 0x460 JUMPI DUP4 ISZERO ISZERO DUP1 PUSH2 0x456 JUMPI JUMPDEST PUSH2 0x3BC SWAP1 PUSH2 0xD14 JUMP JUMPDEST DUP4 DUP6 MSTORE PUSH1 0x1 DUP4 MSTORE PUSH1 0xFF PUSH1 0x5 DUP4 DUP8 KECCAK256 ADD SLOAD AND PUSH2 0x415 JUMPI POP SWAP1 PUSH32 0x8AE689EA97B8EF32DC4A1E935B66CEC616F277C31A495F056E57F23D0C657201 SWAP2 DUP4 DUP6 MSTORE PUSH1 0x1 DUP3 MSTORE PUSH1 0x5 DUP2 DUP7 KECCAK256 ADD PUSH1 0x1 PUSH1 0xFF NOT DUP3 SLOAD AND OR SWAP1 SSTORE MLOAD CALLER DUP2 MSTORE LOG2 DUP1 RETURN JUMPDEST DUP3 PUSH1 0x64 SWAP3 MLOAD SWAP2 PUSH3 0x461BCD PUSH1 0xE5 SHL DUP4 MSTORE DUP3 ADD MSTORE PUSH1 0x19 PUSH1 0x24 DUP3 ADD MSTORE PUSH32 0x4369746174696F6E20616C726561647920766572696669656400000000000000 PUSH1 0x44 DUP3 ADD MSTORE REVERT JUMPDEST POP DUP1 SLOAD DUP5 LT PUSH2 0x3B3 JUMP JUMPDEST DUP3 PUSH1 0x84 SWAP3 MLOAD SWAP2 PUSH3 0x461BCD PUSH1 0xE5 SHL DUP4 MSTORE DUP3 ADD MSTORE PUSH1 0x22 PUSH1 0x24 DUP3 ADD MSTORE PUSH32 0x4E6F7420617574686F72697A656420746F20766572696679206369746174696F PUSH1 0x44 DUP3 ADD MSTORE PUSH2 0x6E73 PUSH1 0xF0 SHL PUSH1 0x64 DUP3 ADD MSTORE REVERT JUMPDEST POP DUP5 SLOAD PUSH1 0x1 PUSH1 0x1 PUSH1 0xA0 SHL SUB AND CALLER EQ PUSH2 0x3A5 JUMP JUMPDEST DUP4 DUP1 REVERT JUMPDEST POP SWAP1 CALLVALUE PUSH2 0x373 JUMPI PUSH1 0x20 CALLDATASIZE PUSH1 0x3 NOT ADD SLT PUSH2 0x373 JUMPI PUSH1 0x20 SWAP2 PUSH1 0xFF SWAP1 DUP3 SWAP1 PUSH1 0x1 PUSH1 0x1 PUSH1 0xA0 SHL SUB PUSH2 0x4EE PUSH2 0xBA9 JUMP JUMPDEST AND DUP2 MSTORE PUSH1 0x6 DUP6 MSTORE KECCAK256 SLOAD AND SWAP1 MLOAD SWAP1 ISZERO ISZERO DUP2 MSTORE RETURN JUMPDEST POP SWAP2 SWAP1 CALLVALUE PUSH2 0x24B JUMPI PUSH1 0x20 CALLDATASIZE PUSH1 0x3 NOT ADD SLT PUSH2 0x24B JUMPI PUSH2 0x51D PUSH2 0xBA9 JUMP JUMPDEST PUSH2 0x525 PUSH2 0xBFF JUMP JUMPDEST PUSH1 0x1 PUSH1 0x1 PUSH1 0xA0 SHL SUB AND SWAP2 PUSH2 0x53A DUP4 ISZERO ISZERO PUSH2 0xD60 JUMP JUMPDEST DUP3 DUP5 MSTORE PUSH1 0x5 PUSH1 0x20 MSTORE PUSH1 0xFF DUP3 DUP6 KECCAK256 SLOAD AND PUSH2 0x58A JUMPI POP DUP2 DUP4 MSTORE PUSH1 0x5 PUSH1 0x20 MSTORE DUP3 KECCAK256 DUP1 SLOAD PUSH1 0xFF NOT AND PUSH1 0x1 OR SWAP1 SSTORE PUSH32 0xCE91130717D2A8DF12B4279EBFDBADFC119332F4B2DAD166673EAAC23163B4C7 DUP3 DUP1 LOG2 DUP1 RETURN JUMPDEST PUSH1 0x20 PUSH1 0x64 SWAP3 MLOAD SWAP2 PUSH3 0x461BCD PUSH1 0xE5 SHL DUP4 MSTORE DUP3 ADD MSTORE PUSH1 0x1B PUSH1 0x24 DUP3 ADD MSTORE PUSH32 0x416C72656164792061206369746174696F6E207265636F726465720000000000 PUSH1 0x44 DUP3 ADD MSTORE REVERT JUMPDEST POP SWAP1 CALLVALUE PUSH2 0x373 JUMPI DUP2 PUSH1 0x3 NOT CALLDATASIZE ADD SLT PUSH2 0x373 JUMPI SWAP1 SLOAD SWAP1 MLOAD PUSH1 0x1 PUSH1 0x1 PUSH1 0xA0 SHL SUB SWAP1 SWAP2 AND DUP2 MSTORE PUSH1 0x20 SWAP1 RETURN JUMPDEST POP SWAP2 SWAP1 CALLVALUE PUSH2 0x24B JUMPI PUSH1 0x20 CALLDATASIZE PUSH1 0x3 NOT ADD SLT PUSH2 0x24B JUMPI PUSH2 0x610 PUSH2 0xBA9 JUMP JUMPDEST PUSH2 0x618 PUSH2 0xBFF JUMP JUMPDEST PUSH1 0x1 PUSH1 0x1 PUSH1 0xA0 SHL SUB AND DUP1 DUP5 MSTORE PUSH1 0x5 PUSH1 0x20 MSTORE DUP2 DUP5 KECCAK256 SLOAD SWAP1 SWAP3 SWAP1 PUSH1 0xFF AND ISZERO PUSH2 0x672 JUMPI POP DUP2 DUP4 MSTORE PUSH1 0x5 PUSH1 0x20 MSTORE DUP3 KECCAK256 DUP1 SLOAD PUSH1 0xFF NOT AND SWAP1 SSTORE PUSH32 0x8FC3ADE6A918CA9880506F6998A286215D1946AABE40D0FCE810C2A0B1EE5257 DUP3 DUP1 LOG2 DUP1 RETURN JUMPDEST PUSH1 0x20 PUSH1 0x64 SWAP3 MLOAD SWAP2 PUSH3 0x461BCD PUSH1 0xE5 SHL DUP4 MSTORE DUP3 ADD MSTORE PUSH1 0x17 PUSH1 0x24 DUP3 ADD MSTORE PUSH32 0x4E6F742061206369746174696F6E207265636F72646572000000000000000000 PUSH1 0x44 DUP3 ADD MSTORE REVERT JUMPDEST POP SWAP1 CALLVALUE PUSH2 0x373 JUMPI PUSH1 0x20 CALLDATASIZE PUSH1 0x3 NOT ADD SLT PUSH2 0x373 JUMPI PUSH1 0x20 SWAP2 PUSH1 0xFF SWAP1 DUP3 SWAP1 PUSH1 0x1 PUSH1 0x1 PUSH1 0xA0 SHL SUB PUSH2 0x6DF PUSH2 0xBA9 JUMP JUMPDEST AND DUP2 MSTORE PUSH1 0x5 DUP6 MSTORE KECCAK256 SLOAD AND SWAP1 MLOAD SWAP1 ISZERO ISZERO DUP2 MSTORE RETURN JUMPDEST POP SWAP2 SWAP1 CALLVALUE PUSH2 0x24B JUMPI PUSH1 0x60 CALLDATASIZE PUSH1 0x3 NOT ADD SLT PUSH2 0x24B JUMPI PUSH1 0x1 PUSH1 0x1 PUSH1 0xA0 SHL SUB SWAP3 PUSH1 0x24 CALLDATALOAD SWAP1 DUP4 CALLDATALOAD SWAP1 PUSH1 0x44 CALLDATALOAD DUP7 DUP2 AND SWAP2 SWAP1 DUP3 SWAP1 SUB PUSH2 0x185 JUMPI CALLER DUP2 MSTORE PUSH1 0x20 SWAP7 PUSH1 0x5 DUP9 MSTORE PUSH1 0xFF DUP7 DUP4 KECCAK256 SLOAD AND DUP1 ISZERO PUSH2 0x8B8 JUMPI JUMPDEST ISZERO PUSH2 0x86A JUMPI DUP5 DUP5 EQ PUSH2 0x834 JUMPI DUP4 SWAP3 PUSH2 0x828 DUP7 DUP9 PUSH32 0x870F17BEFC354CAB17771C5AC0AF215A17A4F556FD773F94B10FCFE68D3C10F5 SWAP6 DUP13 PUSH1 0x5 DUP2 SWAP8 DUP15 SLOAD SWAP15 DUP16 SWAP12 DUP13 SWAP8 PUSH2 0x787 DUP10 PUSH2 0xC57 JUMP JUMPDEST DUP4 SSTORE DUP8 MLOAD SWAP4 PUSH2 0x795 DUP6 PUSH2 0xC7C JUMP JUMPDEST DUP10 DUP6 MSTORE DUP7 DUP6 ADD SWAP3 DUP4 MSTORE DUP9 DUP6 ADD SWAP2 DUP3 MSTORE PUSH1 0x60 DUP6 ADD SWAP2 DUP13 DUP4 MSTORE PUSH1 0x80 DUP7 ADD SWAP4 TIMESTAMP DUP6 MSTORE PUSH1 0x1 PUSH1 0xA0 DUP9 ADD SWAP10 DUP12 DUP12 MSTORE DUP14 DUP13 MSTORE MSTORE DUP11 DUP11 KECCAK256 SWAP7 MLOAD DUP8 SSTORE MLOAD PUSH1 0x1 DUP8 ADD SSTORE MLOAD PUSH1 0x2 DUP7 ADD SSTORE PUSH1 0x3 DUP6 ADD SWAP2 MLOAD AND PUSH12 0xFFFFFFFFFFFFFFFFFFFFFFFF PUSH1 0xA0 SHL DUP3 SLOAD AND OR SWAP1 SSTORE MLOAD SWAP1 DUP3 ADD SSTORE ADD SWAP1 MLOAD ISZERO ISZERO PUSH1 0xFF DUP1 NOT DUP4 SLOAD AND SWAP2 AND OR SWAP1 SSTORE DUP10 DUP2 MSTORE PUSH1 0x2 DUP7 MSTORE PUSH2 0x81B DUP4 DUP4 DUP4 KECCAK256 PUSH2 0xCD0 JUMP JUMPDEST DUP9 DUP2 MSTORE PUSH1 0x3 DUP7 MSTORE KECCAK256 PUSH2 0xCD0 JUMP JUMPDEST DUP7 MLOAD SWAP1 DUP2 MSTORE LOG4 MLOAD SWAP1 DUP2 MSTORE RETURN JUMPDEST DUP6 MLOAD PUSH3 0x461BCD PUSH1 0xE5 SHL DUP2 MSTORE DUP1 DUP9 ADD DUP10 SWAP1 MSTORE PUSH1 0x10 PUSH1 0x24 DUP3 ADD MSTORE PUSH16 0x21B0B73737BA1031B4BA329039B2B633 PUSH1 0x81 SHL PUSH1 0x44 DUP3 ADD MSTORE PUSH1 0x64 SWAP1 REVERT JUMPDEST DUP6 MLOAD PUSH3 0x461BCD PUSH1 0xE5 SHL DUP2 MSTORE DUP1 DUP9 ADD DUP10 SWAP1 MSTORE PUSH1 0x22 PUSH1 0x24 DUP3 ADD MSTORE PUSH32 0x4E6F7420617574686F72697A656420746F207265636F7264206369746174696F PUSH1 0x44 DUP3 ADD MSTORE PUSH2 0x6E73 PUSH1 0xF0 SHL PUSH1 0x64 DUP3 ADD MSTORE PUSH1 0x84 SWAP1 REVERT JUMPDEST POP DUP1 DUP3 SLOAD AND CALLER EQ PUSH2 0x73D JUMP JUMPDEST POP SWAP2 SWAP1 CALLVALUE PUSH2 0x24B JUMPI PUSH1 0x20 SWAP2 DUP3 PUSH1 0x3 NOT CALLDATASIZE ADD SLT PUSH2 0x4BF JUMPI CALLDATALOAD DUP4 MSTORE PUSH1 0x2 DUP3 MSTORE DUP1 DUP4 KECCAK256 SWAP3 DUP2 MLOAD DUP1 SWAP4 DUP1 DUP7 SLOAD SWAP3 DUP4 DUP2 MSTORE ADD SWAP6 DUP4 MSTORE DUP1 DUP4 KECCAK256 SWAP3 SWAP1 JUMPDEST DUP3 DUP3 LT PUSH2 0x920 JUMPI PUSH2 0x91C DUP7 DUP7 PUSH2 0x912 DUP3 DUP12 SUB DUP4 PUSH2 0xCAE JUMP JUMPDEST MLOAD SWAP2 DUP3 SWAP2 DUP3 PUSH2 0xBC4 JUMP JUMPDEST SUB SWAP1 RETURN JUMPDEST DUP4 SLOAD DUP8 MSTORE SWAP6 DUP7 ADD SWAP6 PUSH1 0x1 SWAP4 DUP5 ADD SWAP4 SWAP1 SWAP2 ADD SWAP1 PUSH2 0x8FA JUMP JUMPDEST POP CALLVALUE PUSH2 0x185 JUMPI DUP1 PUSH1 0x3 NOT CALLDATASIZE ADD SLT PUSH2 0x185 JUMPI PUSH2 0x950 PUSH2 0xBFF JUMP JUMPDEST DUP1 SLOAD PUSH1 0x1 PUSH1 0x1 PUSH1 0xA0 SHL SUB NOT DUP2 AND DUP3 SSTORE DUP2 SWAP1 PUSH1 0x1 PUSH1 0x1 PUSH1 0xA0 SHL SUB AND PUSH32 0x8BE0079C531659141344CD1FD0A4F28419497F9722A3DAAFE3B4186F6B6457E0 DUP3 DUP1 LOG3 DUP1 RETURN JUMPDEST POP SWAP2 SWAP1 CALLVALUE PUSH2 0x24B JUMPI PUSH1 0x20 SWAP2 DUP3 PUSH1 0x3 NOT CALLDATASIZE ADD SLT PUSH2 0x4BF JUMPI CALLDATALOAD DUP4 MSTORE PUSH1 0x3 DUP3 MSTORE DUP1 DUP4 KECCAK256 SWAP3 DUP2 MLOAD DUP1 SWAP4 DUP1 DUP7 SLOAD SWAP3 DUP4 DUP2 MSTORE ADD SWAP6 DUP4 MSTORE DUP1 DUP4 KECCAK256 SWAP3 SWAP1 JUMPDEST DUP3 DUP3 LT PUSH2 0x9DF JUMPI PUSH2 0x91C DUP7 DUP7 PUSH2 0x912 DUP3 DUP12 SUB DUP4 PUSH2 0xCAE JUMP JUMPDEST DUP4 SLOAD DUP8 MSTORE SWAP6 DUP7 ADD SWAP6 PUSH1 0x1 SWAP4 DUP5 ADD SWAP4 SWAP1 SWAP2 ADD SWAP1 PUSH2 0x9C7 JUMP JUMPDEST POP SWAP2 CALLVALUE PUSH2 0x24B JUMPI PUSH1 0x20 CALLDATASIZE PUSH1 0x3 NOT ADD SLT PUSH2 0x24B JUMPI PUSH1 0x20 SWAP3 DUP3 SWAP2 CALLDATALOAD DUP2 MSTORE PUSH1 0x2 DUP5 MSTORE KECCAK256 SLOAD SWAP1 MLOAD SWAP1 DUP2 MSTORE RETURN JUMPDEST POP SWAP2 SWAP1 CALLVALUE PUSH2 0x24B JUMPI PUSH1 0x20 CALLDATASIZE PUSH1 0x3 NOT ADD SLT PUSH2 0x24B JUMPI PUSH2 0xA3A PUSH2 0xBA9 JUMP JUMPDEST PUSH2 0xA42 PUSH2 0xBFF JUMP JUMPDEST PUSH1 0x1 PUSH1 0x1 PUSH1 0xA0 SHL SUB AND DUP1 DUP5 MSTORE PUSH1 0x6 PUSH1 0x20 MSTORE DUP2 DUP5 KECCAK256 SLOAD SWAP1 SWAP3 SWAP1 PUSH1 0xFF AND ISZERO PUSH2 0xA9C JUMPI POP DUP2 DUP4 MSTORE PUSH1 0x6 PUSH1 0x20 MSTORE DUP3 KECCAK256 DUP1 SLOAD PUSH1 0xFF NOT AND SWAP1 SSTORE PUSH32 0xCB9ADCDE23E9E0379DD946A07E79BACEDC5EEF898695F8C267357D6427CFBCC5 DUP3 DUP1 LOG2 DUP1 RETURN JUMPDEST PUSH1 0x20 PUSH1 0x64 SWAP3 MLOAD SWAP2 PUSH3 0x461BCD PUSH1 0xE5 SHL DUP4 MSTORE DUP3 ADD MSTORE PUSH1 0x17 PUSH1 0x24 DUP3 ADD MSTORE PUSH32 0x4E6F742061206369746174696F6E207665726966696572000000000000000000 PUSH1 0x44 DUP3 ADD MSTORE REVERT JUMPDEST POP SWAP2 SWAP1 CALLVALUE PUSH2 0x24B JUMPI PUSH1 0x20 CALLDATASIZE PUSH1 0x3 NOT ADD SLT PUSH2 0x24B JUMPI PUSH2 0xAFA PUSH2 0xBA9 JUMP JUMPDEST PUSH2 0xB02 PUSH2 0xBFF JUMP JUMPDEST PUSH1 0x1 PUSH1 0x1 PUSH1 0xA0 SHL SUB AND SWAP2 PUSH2 0xB17 DUP4 ISZERO ISZERO PUSH2 0xD60 JUMP JUMPDEST DUP3 DUP5 MSTORE PUSH1 0x6 PUSH1 0x20 MSTORE PUSH1 0xFF DUP3 DUP6 KECCAK256 SLOAD AND PUSH2 0xB67 JUMPI POP DUP2 DUP4 MSTORE PUSH1 0x6 PUSH1 0x20 MSTORE DUP3 KECCAK256 DUP1 SLOAD PUSH1 0xFF NOT AND PUSH1 0x1 OR SWAP1 SSTORE PUSH32 0xBE3658CE05B41C0EA73BD2ED0AE768BF233818F6BE3D2684F86865028D5F865F DUP3 DUP1 LOG2 DUP1 RETURN JUMPDEST PUSH1 0x20 PUSH1 0x64 SWAP3 MLOAD SWAP2 PUSH3 0x461BCD PUSH1 0xE5 SHL DUP4 MSTORE DUP3 ADD MSTORE PUSH1 0x1B PUSH1 0x24 DUP3 ADD MSTORE PUSH32 0x416C72656164792061206369746174696F6E2076657269666965720000000000 PUSH1 0x44 DUP3 ADD MSTORE REVERT JUMPDEST PUSH1 0x4 CALLDATALOAD SWAP1 PUSH1 0x1 PUSH1 0x1 PUSH1 0xA0 SHL SUB DUP3 AND DUP3 SUB PUSH2 0xBBF JUMPI JUMP JUMPDEST PUSH1 0x0 DUP1 REVERT JUMPDEST PUSH1 0x20 SWAP1 DUP2 PUSH1 0x40 DUP2 DUP4 ADD SWAP3 DUP3 DUP2 MSTORE DUP6 MLOAD DUP1 SWAP5 MSTORE ADD SWAP4 ADD SWAP2 PUSH1 0x0 JUMPDEST DUP3 DUP2 LT PUSH2 0xBEB JUMPI POP POP POP POP SWAP1 JUMP JUMPDEST DUP4 MLOAD DUP6 MSTORE SWAP4 DUP2 ADD SWAP4 SWAP3 DUP2 ADD SWAP3 PUSH1 0x1 ADD PUSH2 0xBDD JUMP JUMPDEST PUSH1 0x0 SLOAD PUSH1 0x1 PUSH1 0x1 PUSH1 0xA0 SHL SUB AND CALLER SUB PUSH2 0xC13 JUMPI JUMP JUMPDEST PUSH1 0x64 PUSH1 0x40 MLOAD PUSH3 0x461BCD PUSH1 0xE5 SHL DUP2 MSTORE PUSH1 0x20 PUSH1 0x4 DUP3 ADD MSTORE PUSH1 0x20 PUSH1 0x24 DUP3 ADD MSTORE PUSH32 0x4F776E61626C653A2063616C6C6572206973206E6F7420746865206F776E6572 PUSH1 0x44 DUP3 ADD MSTORE REVERT JUMPDEST PUSH1 0x0 NOT DUP2 EQ PUSH2 0xC66 JUMPI PUSH1 0x1 ADD SWAP1 JUMP JUMPDEST PUSH4 0x4E487B71 PUSH1 0xE0 SHL PUSH1 0x0 MSTORE PUSH1 0x11 PUSH1 0x4 MSTORE PUSH1 0x24 PUSH1 0x0 REVERT JUMPDEST PUSH1 0xC0 DUP2 ADD SWAP1 DUP2 LT PUSH8 0xFFFFFFFFFFFFFFFF DUP3 GT OR PUSH2 0xC98 JUMPI PUSH1 0x40 MSTORE JUMP JUMPDEST PUSH4 0x4E487B71 PUSH1 0xE0 SHL PUSH1 0x0 MSTORE PUSH1 0x41 PUSH1 0x4 MSTORE PUSH1 0x24 PUSH1 0x0 REVERT JUMPDEST SWAP1 PUSH1 0x1F DUP1 NOT SWAP2 ADD AND DUP2 ADD SWAP1 DUP2 LT PUSH8 0xFFFFFFFFFFFFFFFF DUP3 GT OR PUSH2 0xC98 JUMPI PUSH1 0x40 MSTORE JUMP JUMPDEST DUP1 SLOAD SWAP1 PUSH9 0x10000000000000000 DUP3 LT ISZERO PUSH2 0xC98 JUMPI PUSH1 0x1 DUP3 ADD DUP1 DUP3 SSTORE DUP3 LT ISZERO PUSH2 0xCFE JUMPI PUSH1 0x0 MSTORE PUSH1 0x20 PUSH1 0x0 KECCAK256 ADD SSTORE JUMP JUMPDEST PUSH4 0x4E487B71 PUSH1 0xE0 SHL PUSH1 0x0 MSTORE PUSH1 0x32 PUSH1 0x4 MSTORE PUSH1 0x24 PUSH1 0x0 REVERT JUMPDEST ISZERO PUSH2 0xD1B JUMPI JUMP JUMPDEST PUSH1 0x40 MLOAD PUSH3 0x461BCD PUSH1 0xE5 SHL DUP2 MSTORE PUSH1 0x20 PUSH1 0x4 DUP3 ADD MSTORE PUSH1 0x17 PUSH1 0x24 DUP3 ADD MSTORE PUSH32 0x4369746174696F6E20646F6573206E6F74206578697374000000000000000000 PUSH1 0x44 DUP3 ADD MSTORE PUSH1 0x64 SWAP1 REVERT JUMPDEST ISZERO PUSH2 0xD67 JUMPI JUMP JUMPDEST PUSH1 0x40 MLOAD PUSH3 0x461BCD PUSH1 0xE5 SHL DUP2 MSTORE PUSH1 0x20 PUSH1 0x4 DUP3 ADD MSTORE PUSH1 0xF PUSH1 0x24 DUP3 ADD MSTORE PUSH15 0x496E76616C69642061646472657373 PUSH1 0x88 SHL PUSH1 0x44 DUP3 ADD MSTORE PUSH1 0x64 SWAP1 REVERT INVALID LOG2 PUSH5 0x6970667358 0x22 SLT KECCAK256 0xD8 SIGNEXTEND 0xCF PUSH24 0xE8CF24AB2CB40D8D9B89D8FCA4CD8963A78848BBACF2F6C8 TIMESTAMP 0xA9 PUSH22 0xB264736F6C6343000813003300000000000000000000 "},"methodIdentifiers":{"addCitationRecorder(address)":"8e6794ad","addCitationVerifier(address)":"02a5aca2","citationRecorders(address)":"78f1c433","citationVerifiers(address)":"92b264b0","citations(uint256)":"ec8c9785","getCitationCount(uint256)":"4c4c9aa5","getCitationDetails(uint256)":"f99d4610","getCitations(uint256)":"74f96b62","getCitedPapers(uint256)":"5a4058ae","getVerifiedCitationCount(uint256)":"dec4ab19","owner()":"8da5cb5b","recordCitation(uint256,uint256,address)":"7726a49c","removeCitationRecorder(address)":"804bbcbd","removeCitationVerifier(address)":"1c2f9108","renounceOwnership()":"715018a6","transferOwnership(address)":"f2fde38b","verifyCitation(uint256)":"a8ec6623"}}}}}