{
  "_format": "hh-sol-artifact-1",
  "contractName": "RoyaltyDistributor",
  "sourceName": "contracts/RoyaltyDistributor.sol",
  "abi": [
    {
      "inputs": [
        {
          "internalType": "address",
          "name": "_originProtocol",
          "type": "address"
        }
      ],
      "stateMutability": "nonpayable",
      "type": "constructor"
    },
    {
      "anonymous": false,
      "inputs": [
        {
          "indexed": true,
          "internalType": "address",
          "name": "previousOwner",
          "type": "address"
        },
        {
          "indexed": true,
          "internalType": "address",
          "name": "newOwner",
          "type": "address"
        }
      ],
      "name": "OwnershipTransferred",
      "type": "event"
    },
    {
      "anonymous": false,
      "inputs": [
        {
          "indexed": false,
          "internalType": "uint256",
          "name": "newFeePercentage",
          "type": "uint256"
        }
      ],
      "name": "PlatformFeeUpdated",
      "type": "event"
    },
    {
      "anonymous": false,
      "inputs": [
        {
          "indexed": true,
          "internalType": "uint256",
          "name": "paymentId",
          "type": "uint256"
        },
        {
          "indexed": true,
          "internalType": "uint256",
          "name": "paperId",
          "type": "uint256"
        },
        {
          "indexed": true,
          "internalType": "address",
          "name": "researcher",
          "type": "address"
        },
        {
          "indexed": false,
          "internalType": "uint256",
          "name": "amount",
          "type": "uint256"
        },
        {
          "indexed": false,
          "internalType": "string",
          "name": "reason",
          "type": "string"
        }
      ],
      "name": "RoyaltyPaid",
      "type": "event"
    },
    {
      "anonymous": false,
      "inputs": [
        {
          "indexed": true,
          "internalType": "address",
          "name": "researcher",
          "type": "address"
        },
        {
          "indexed": false,
          "internalType": "uint256",
          "name": "amount",
          "type": "uint256"
        }
      ],
      "name": "RoyaltyWithdrawn",
      "type": "event"
    },
    {
      "anonymous": false,
      "inputs": [
        {
          "indexed": false,
          "internalType": "address",
          "name": "newTreasuryAddress",
          "type": "address"
        }
      ],
      "name": "TreasuryAddressUpdated",
      "type": "event"
    },
    {
      "inputs": [
        {
          "internalType": "uint256[]",
          "name": "_paperIds",
          "type": "uint256[]"
        },
        {
          "internalType": "address[]",
          "name": "_researchers",
          "type": "address[]"
        },
        {
          "internalType": "string[]",
          "name": "_reasons",
          "type": "string[]"
        },
        {
          "internalType": "uint256[]",
          "name": "_amounts",
          "type": "uint256[]"
        }
      ],
      "name": "batchPayRoyalties",
      "outputs": [
        {
          "internalType": "uint256[]",
          "name": "",
          "type": "uint256[]"
        }
      ],
      "stateMutability": "payable",
      "type": "function"
    },
    {
      "inputs": [
        {
          "internalType": "uint256",
          "name": "_paperId",
          "type": "uint256"
        }
      ],
      "name": "getPaperPayments",
      "outputs": [
        {
          "internalType": "uint256[]",
          "name": "",
          "type": "uint256[]"
        }
      ],
      "stateMutability": "view",
      "type": "function"
    },
    {
      "inputs": [
        {
          "internalType": "uint256",
          "name": "_paymentId",
          "type": "uint256"
        }
      ],
      "name": "getPaymentDetails",
      "outputs": [
        {
          "internalType": "uint256",
          "name": "paperId",
          "type": "uint256"
        },
        {
          "internalType": "address",
          "name": "researcher",
          "type": "address"
        },
        {
          "internalType": "uint256",
          "name": "amount",
          "type": "uint256"
        },
        {
          "internalType": "uint256",
          "name": "timestamp",
          "type": "uint256"
        },
        {
          "internalType": "address",
          "name": "payer",
          "type": "address"
        },
        {
          "internalType": "string",
          "name": "reason",
          "type": "string"
        }
      ],
      "stateMutability": "view",
      "type": "function"
    },
    {
      "inputs": [
        {
          "internalType": "address",
          "name": "_researcher",
          "type": "address"
        }
      ],
      "name": "getResearcherBalance",
      "outputs": [
        {
          "internalType": "uint256",
          "name": "",
          "type": "uint256"
        }
      ],
      "stateMutability": "view",
      "type": "function"
    },
    {
      "inputs": [
        {
          "internalType": "address",
          "name": "_researcher",
          "type": "address"
        }
      ],
      "name": "getResearcherPayments",
      "outputs": [
        {
          "internalType": "uint256[]",
          "name": "",
          "type": "uint256[]"
        }
      ],
      "stateMutability": "view",
      "type": "function"
    },
    {
      "inputs": [
        {
          "internalType": "uint256",
          "name": "_paperId",
          "type": "uint256"
        }
      ],
      "name": "getTotalRoyaltiesForPaper",
      "outputs": [
        {
          "internalType": "uint256",
          "name": "",
          "type": "uint256"
        }
      ],
      "stateMutability": "view",
      "type": "function"
    },
    {
      "inputs": [],
      "name": "originProtocol",
      "outputs": [
        {
          "internalType": "contract IOriginProtocol",
          "name": "",
          "type": "address"
        }
      ],
      "stateMutability": "view",
      "type": "function"
    },
    {
      "inputs": [],
      "name": "owner",
      "outputs": [
        {
          "internalType": "address",
          "name": "",
          "type": "address"
        }
      ],
      "stateMutability": "view",
      "type": "function"
    },
    {
      "inputs": [
        {
          "internalType": "uint256",
          "name": "",
          "type": "uint256"
        },
        {
          "internalType": "uint256",
          "name": "",
          "type": "uint256"
        }
      ],
      "name": "paperPayments",
      "outputs": [
        {
          "internalType": "uint256",
          "name": "",
          "type": "uint256"
        }
      ],
      "stateMutability": "view",
      "type": "function"
    },
    {
      "inputs": [
        {
          "internalType": "uint256",
          "name": "_paperId",
          "type": "uint256"
        },
        {
          "internalType": "address",
          "name": "_researcher",
          "type": "address"
        },
        {
          "internalType": "string",
          "name": "_reason",
          "type": "string"
        }
      ],
      "name": "payRoyalty",
      "outputs": [
        {
          "internalType": "uint256",
          "name": "",
          "type": "uint256"
        }
      ],
      "stateMutability": "payable",
      "type": "function"
    },
    {
      "inputs": [
        {
          "internalType": "uint256",
          "name": "",
          "type": "uint256"
        }
      ],
      "name": "payments",
      "outputs": [
        {
          "internalType": "uint256",
          "name": "paymentId",
          "type": "uint256"
        },
        {
          "internalType": "uint256",
          "name": "paperId",
          "type": "uint256"
        },
        {
          "internalType": "address",
          "name": "researcher",
          "type": "address"
        },
        {
          "internalType": "uint256",
          "name": "amount",
          "type": "uint256"
        },
        {
          "internalType": "uint256",
          "name": "timestamp",
          "type": "uint256"
        },
        {
          "internalType": "address",
          "name": "payer",
          "type": "address"
        },
        {
          "internalType": "string",
          "name": "reason",
          "type": "string"
        }
      ],
      "stateMutability": "view",
      "type": "function"
    },
    {
      "inputs": [],
      "name": "platformFeePercentage",
      "outputs": [
        {
          "internalType": "uint256",
          "name": "",
          "type": "uint256"
        }
      ],
      "stateMutability": "view",
      "type": "function"
    },
    {
      "inputs": [],
      "name": "renounceOwnership",
      "outputs": [],
      "stateMutability": "nonpayable",
      "type": "function"
    },
    {
      "inputs": [
        {
          "internalType": "address",
          "name": "",
          "type": "address"
        }
      ],
      "name": "researcherBalances",
      "outputs": [
        {
          "internalType": "uint256",
          "name": "",
          "type": "uint256"
        }
      ],
      "stateMutability": "view",
      "type": "function"
    },
    {
      "inputs": [
        {
          "internalType": "address",
          "name": "",
          "type": "address"
        },
        {
          "internalType": "uint256",
          "name": "",
          "type": "uint256"
        }
      ],
      "name": "researcherPayments",
      "outputs": [
        {
          "internalType": "uint256",
          "name": "",
          "type": "uint256"
        }
      ],
      "stateMutability": "view",
      "type": "function"
    },
    {
      "inputs": [
        {
          "internalType": "address",
          "name": "newOwner",
          "type": "address"
        }
      ],
      "name": "transferOwnership",
      "outputs": [],
      "stateMutability": "nonpayable",
      "type": "function"
    },
    {
      "inputs": [],
      "name": "treasuryAddress",
      "outputs": [
        {
          "internalType": "address",
          "name": "",
          "type": "address"
        }
      ],
      "stateMutability": "view",
      "type": "function"
    },
    {
      "inputs": [
        {
          "internalType": "uint256",
          "name": "_newFeePercentage",
          "type": "uint256"
        }
      ],
      "name": "updatePlatformFee",
      "outputs": [],
      "stateMutability": "nonpayable",
      "type": "function"
    },
    {
      "inputs": [
        {
          "internalType": "address",
          "name": "_newTreasuryAddress",
          "type": "address"
        }
      ],
      "name": "updateTreasuryAddress",
      "outputs": [],
      "stateMutability": "nonpayable",
      "type": "function"
    },
    {
      "inputs": [],
      "name": "withdrawRoyalties",
      "outputs": [],
      "stateMutability": "nonpayable",
      "type": "function"
    }
  ],
  "bytecode": "0x60803461010e57601f611adc38819003918201601f19168301916001600160401b038311848410176101135780849260209460405283398101031261010e57516001600160a01b03908181169081900361010e576000549160018060a01b0319923384821617600055604051913391167f8be0079c531659141344cd1fd0a4f28419497f9722a3daafe3b4186f6b6457e0600080a3600180556101f4600355600160095581156100cc5750816002541617600255339060045416176004556040516119b2908161012a8239f35b62461bcd60e51b815260206004820152601f60248201527f496e76616c6964204f726967696e2050726f746f636f6c2061646472657373006044820152606490fd5b600080fd5b634e487b7160e01b600052604160045260246000fdfe608080604052600436101561001357600080fd5b60003560e01c90816303c43782146113e75750806321c34fcb146112d65780633d2faace14610e8d5780634bdc9c1314610de2578063615721ea14610da85780636aa6caec14610d6f578063715018a614610d1657806372e9129614610ced578063774d446114610c83578063841e456114610bd657806387d8178914610b4a5780638da5cb5b14610b215780639c6f992614610ac95780639e70df21146109a4578063aa0b598814610911578063b9bfda5814610298578063c5f956af1461026f578063caf43091146101e7578063cdd78cfc146101c95763f2fde38b146100fb57600080fd5b346101c45760203660031901126101c45761011461141d565b61011c611677565b6001600160a01b0390811690811561017057600054826bffffffffffffffffffffffff60a01b821617600055167f8be0079c531659141344cd1fd0a4f28419497f9722a3daafe3b4186f6b6457e0600080a3005b60405162461bcd60e51b815260206004820152602660248201527f4f776e61626c653a206e6577206f776e657220697320746865207a65726f206160448201526564647265737360d01b6064820152608490fd5b600080fd5b346101c45760003660031901126101c4576020600354604051908152f35b346101c4576020806003193601126101c4576001600160a01b0361020961141d565b1660005260078152604060002090604051908181845491828152019360005281600020916000905b828210610258576102548561024881890382611461565b604051918291826114ec565b0390f35b835486529485019460019384019390910190610231565b346101c45760003660031901126101c4576004546040516001600160a01b039091168152602090f35b60803660031901126101c4576004356001600160401b0381116101c4576102c3903690600401611647565b6024356001600160401b0381116101c4576102e2903690600401611647565b6044939193356001600160401b0381116101c457610304903690600401611647565b906064356001600160401b0381116101c457610324903690600401611647565b909361032e6118eb565b80871480610908575b806108ff575b156108bb576000805b838110610896575034036108515761035d87611951565b9661036b6040519889611461565b808852601f1961037a82611951565b013660208a013760005b81811061039d5760018055604051806102548b826114ec565b6103a881838a611941565b35906103b581858d611941565b356001600160a01b03811681036101c4578782101561083b578160051b870135601e19883603018112156101c4576001600160401b0381890135116101c4578088013536036020828a0101136101c457610418903690890180359060200161149d565b61042383888c611941565b35936104308515156116cf565b6104446001600160a01b0384161515611729565b6002546040516309cc449d60e01b8152600481018390526001600160a01b038581166024830152909160209183916044918391165afa80156106ea576104929160009161080c575b5061178d565b6104ac6127106104a4600354886117e3565b04809661180c565b9460018060a01b038416600052600560205260406000206104ce878254611819565b9055801515806107f8575b6107ce575b50600954926104ec846118a2565b6009556040516104fb81611433565b84815260208082018481526001600160a01b038481166040808601918252606086018c815242608088019081523360a0890190815260c089018c815260008e8152600690995293909720975188559451600188015591516002870180546001600160a01b031990811692861692909217905591516003870155925160048601559251600585018054909416911617909155518051906001600160401b0382116107b8576105ab6006840154611527565b601f8111610771575b50602090601f83116001146107015760069291600091836106f6575b50508160011b916000199060031b1c1916179101555b60018060a01b03811660005260076020526106058460406000206118b1565b81600052600860205261061c8460406000206118b1565b6002546001600160a01b031690813b156101c457604051634980248b60e11b8152600481018490526001600160a01b038216602482015260448101889052916000908390606490829084905af19081156106ea576106d69786937fd4ac2b6eef7bd521c5a8a671fc84f501eac42cdfa24eea3c98e64dd2e3dd0a28936106db575b506106c360405192839283526040602084015260018060a01b0316966040830190611607565b0390a46106d0828c611968565b526118a2565b610384565b6106e49061144e565b3861069d565b6040513d6000823e3d90fd5b0151905038806105d0565b906006840160005260206000209160005b601f19851681106107595750918391600193600695601f19811610610740575b505050811b019101556105e6565b015160001960f88460031b161c19169055388080610732565b91926020600181928685015181550194019201610712565b600684016000526020600020601f840160051c8101602085106107b1575b601f830160051c820181106107a55750506105b4565b6000815560010161078f565b508061078f565b634e487b7160e01b600052604160045260246000fd5b60008080806107f29460018060a01b03600454165af16107ec611826565b50611856565b8e6104de565b506004546001600160a01b031615156104d9565b61082e915060203d602011610834575b6108268183611461565b810190611775565b3861048c565b503d61081c565b634e487b7160e01b600052603260045260246000fd5b60405162461bcd60e51b815260206004820152601b60248201527f496e636f727265637420746f74616c20616d6f756e742073656e7400000000006044820152606490fd5b906108b06108b6916108a984878b611941565b3590611819565b916118a2565b610346565b606460405162461bcd60e51b815260206004820152602060248201527f417272617973206d7573742068617665207468652073616d65206c656e6774686044820152fd5b5081841461033d565b50838114610337565b346101c45760203660031901126101c45760043561092d611677565b610bb88111610967576020817f45610d581145924dd7090a5017e5f2b1d6f42213bb2e95707ff86846bbfcb1ca92600355604051908152a1005b60405162461bcd60e51b81526020600482015260156024820152744665652063616e6e6f74206578636565642033302560581b6044820152606490fd5b346101c45760203660031901126101c45760043580151580610abe575b15610a805760005260066020526040600020604051906109e082611433565b8054825261025460c06001830154936020810194855260018060a01b0393846002820154169460408301958652806003830154976060850198895260048401549460808101958652610a426006846005880154169660a0840197885201611561565b96879101525196511696519251915116916040519687968752602087015260408601526060850152608084015260c060a084015260c0830190611607565b60405162461bcd60e51b815260206004820152601660248201527514185e5b595b9d08191bd95cc81b9bdd08195e1a5cdd60521b6044820152606490fd5b5060095481106109c1565b346101c45760403660031901126101c457610ae261141d565b6001600160a01b03166000908152600760205260409020805460243591908210156101c457602091610b13916114d4565b90546040519160031b1c8152f35b346101c45760003660031901126101c4576000546040516001600160a01b039091168152602090f35b346101c45760203660031901126101c45760043560005260066020526040600020805461025460018301549260018060a01b039081600282015416916003820154610ba360066004850154936005860154169401611561565b936040519788978852602088015260408701526060860152608085015260a084015260e060c084015260e0830190611607565b346101c45760203660031901126101c457610bef61141d565b610bf7611677565b6001600160a01b03168015610c4c576020817fb6a5e89655cf506139085f051af608195ed056f8dc550b180a1c38d401e2b6c4926bffffffffffffffffffffffff60a01b6004541617600455604051908152a1005b60405162461bcd60e51b815260206004820152600f60248201526e496e76616c6964206164647265737360881b6044820152606490fd5b346101c4576020806003193601126101c45760043560005260088152604060002090604051908181845491828152019360005281600020916000905b828210610cd6576102548561024881890382611461565b835486529485019460019384019390910190610cbf565b346101c45760003660031901126101c4576002546040516001600160a01b039091168152602090f35b346101c45760003660031901126101c457610d2f611677565b600080546001600160a01b0319811682556001600160a01b03167f8be0079c531659141344cd1fd0a4f28419497f9722a3daafe3b4186f6b6457e08280a3005b346101c45760403660031901126101c4576024356004356000526008602052604060002080548210156101c457602091610b13916114d4565b346101c45760203660031901126101c4576001600160a01b03610dc961141d565b1660005260056020526020604060002054604051908152f35b346101c4576020806003193601126101c457600435600052600881526040600020604051808284829454938481520190600052846000209260005b86828210610e775784610e3281860382611461565b6000805b8251821015610e6d576108b0610e6791610e508486611968565b516000526006865260036040600020015490611819565b90610e36565b8390604051908152f35b8554845260019586019587955093019201610e1d565b60603660031901126101c4576024356001600160a01b03811690036101c4576044356001600160401b0381116101c457366023820112156101c457610edc90369060248160040135910161149d565b610ee46118eb565b610eef3415156116cf565b610f056024356001600160a01b03161515611729565b6002546040516309cc449d60e01b815260048035908201526001600160a01b0360248035821690830152909160209183911681806044810103915afa80156106ea57610f58916000916112b7575061178d565b612710610f67600354346117e3565b04610f72813461180c565b9060018060a01b036024351660005260056020526040600020610f96838254611819565b9055801515806112a3575b61127f575b5060095490610fb4826118a2565b600955604051610fc381611433565b8281526004803560208084019182526024356001600160a01b0390811660408087019182526060870188815242608089019081523360a08a0190815260c08a018d815260008d8152600690985293909620985189559551600189015591516002880180546001600160a01b0319908116928616929092179055915160038801559351948601949094559051600585018054909416911617909155518051906001600160401b0382116107b85761107c6006840154611527565b601f8111611238575b50602090601f83116001146111c85760069291600091836111bd575b50508160011b916000199060031b1c1916179101555b60018060a01b036024351660005260076020526110d88260406000206118b1565b60043560005260086020526110f18260406000206118b1565b6002546001600160a01b031692833b156101c457604051634980248b60e11b81526004803590820152602480356001600160a01b031690820152604481018390529360009085908183816064810103925af19384156106ea576020946111ae575b50604051918252604084830152827fd4ac2b6eef7bd521c5a8a671fc84f501eac42cdfa24eea3c98e64dd2e3dd0a2860018060a01b0360243516938061119f600435956040830190611607565b0390a460018055604051908152f35b6111b79061144e565b84611152565b0151905087806110a1565b906006840160005260206000209160005b601f19851681106112205750918391600193600695601f19811610611207575b505050811b019101556110b7565b015160001960f88460031b161c191690558780806111f9565b919260206001819286850151815501940192016111d9565b600684016000526020600020601f840160051c810160208510611278575b601f830160051c8201811061126c575050611085565b60008155600101611256565b5080611256565b600080808061129d9460018060a01b03600454165af16107ec611826565b82610fa6565b506004546001600160a01b03161515610fa1565b6112d0915060203d602011610834576108268183611461565b8361048c565b346101c45760003660031901126101c4576112ef6118eb565b33600052600560205260406000205480156113a25733600052600560205260006040812055600080808084335af1611325611826565b501561135d576040519081527f9c56d4e207b08f0df71c47be77f4558c7954505688b8f5372c828ed167846e4060203392a260018055005b60405162461bcd60e51b815260206004820152601760248201527f526f79616c7479207472616e73666572206661696c65640000000000000000006044820152606490fd5b60405162461bcd60e51b815260206004820152601860248201527f4e6f20726f79616c7469657320746f20776974686472617700000000000000006044820152606490fd5b346101c45760203660031901126101c4576020906001600160a01b0361140b61141d565b16600052600582526040600020548152f35b600435906001600160a01b03821682036101c457565b60e081019081106001600160401b038211176107b857604052565b6001600160401b0381116107b857604052565b90601f801991011681019081106001600160401b038211176107b857604052565b6001600160401b0381116107b857601f01601f191660200190565b9291926114a982611482565b916114b76040519384611461565b8294818452818301116101c4578281602093846000960137010152565b805482101561083b5760005260206000200190600090565b6020908160408183019282815285518094520193019160005b828110611513575050505090565b835185529381019392810192600101611505565b90600182811c92168015611557575b602083101461154157565b634e487b7160e01b600052602260045260246000fd5b91607f1691611536565b906040519182600082549261157584611527565b9081845260019485811690816000146115e457506001146115a1575b505061159f92500383611461565b565b9093915060005260209081600020936000915b8183106115cc57505061159f93508201013880611591565b855488840185015294850194879450918301916115b4565b91505061159f94506020925060ff191682840152151560051b8201013880611591565b919082519283825260005b848110611633575050826000602080949584010152601f8019910116010190565b602081830181015184830182015201611612565b9181601f840112156101c4578235916001600160401b0383116101c4576020808501948460051b0101116101c457565b6000546001600160a01b0316330361168b57565b606460405162461bcd60e51b815260206004820152602060248201527f4f776e61626c653a2063616c6c6572206973206e6f7420746865206f776e65726044820152fd5b156116d657565b60405162461bcd60e51b815260206004820152602560248201527f5061796d656e7420616d6f756e74206d75737420626520677265617465722074604482015264068616e20360dc1b6064820152608490fd5b1561173057565b60405162461bcd60e51b815260206004820152601a60248201527f496e76616c6964207265736561726368657220616464726573730000000000006044820152606490fd5b908160209103126101c4575180151581036101c45790565b1561179457565b60405162461bcd60e51b815260206004820152602160248201527f52657365617263686572206973206e6f7420746865207061706572206f776e656044820152603960f91b6064820152608490fd5b818102929181159184041417156117f657565b634e487b7160e01b600052601160045260246000fd5b919082039182116117f657565b919082018092116117f657565b3d15611851573d9061183782611482565b916118456040519384611461565b82523d6000602084013e565b606090565b1561185d57565b60405162461bcd60e51b815260206004820152601c60248201527f506c6174666f726d20666565207472616e73666572206661696c6564000000006044820152606490fd5b60001981146117f65760010190565b8054680100000000000000008110156107b8576118d3916001820181556114d4565b819291549060031b91821b91600019901b1916179055565b6002600154146118fc576002600155565b60405162461bcd60e51b815260206004820152601f60248201527f5265656e7472616e637947756172643a207265656e7472616e742063616c6c006044820152606490fd5b919081101561083b5760051b0190565b6001600160401b0381116107b85760051b60200190565b805182101561083b5760209160051b01019056fea26469706673582212201b0b337ea4ef4411e2c1f143799cc25c4677500b44bfb60dc764b55b4805162a64736f6c63430008130033",
  "linkReferences": {},
  "deployedLinkReferences": {}
}