{
  "_format": "hh-sol-artifact-1",
  "contractName": "MockOriginProtocol",
  "sourceName": "contracts/mocks/MockOriginProtocol.sol",
  "abi": [
    {
      "anonymous": false,
      "inputs": [
        {
          "indexed": true,
          "internalType": "uint256",
          "name": "assetId",
          "type": "uint256"
        },
        {
          "indexed": true,
          "internalType": "address",
          "name": "creator",
          "type": "address"
        },
        {
          "indexed": false,
          "internalType": "uint256",
          "name": "timestamp",
          "type": "uint256"
        }
      ],
      "name": "AssetRegistered",
      "type": "event"
    },
    {
      "anonymous": false,
      "inputs": [
        {
          "indexed": true,
          "internalType": "address",
          "name": "previousOwner",
          "type": "address"
        },
        {
          "indexed": true,
          "internalType": "address",
          "name": "newOwner",
          "type": "address"
        }
      ],
      "name": "OwnershipTransferred",
      "type": "event"
    },
    {
      "anonymous": false,
      "inputs": [
        {
          "indexed": true,
          "internalType": "uint256",
          "name": "assetId",
          "type": "uint256"
        },
        {
          "indexed": true,
          "internalType": "address",
          "name": "recipient",
          "type": "address"
        },
        {
          "indexed": false,
          "internalType": "uint256",
          "name": "amount",
          "type": "uint256"
        }
      ],
      "name": "RoyaltyDistributed",
      "type": "event"
    },
    {
      "anonymous": false,
      "inputs": [
        {
          "indexed": true,
          "internalType": "uint256",
          "name": "assetId",
          "type": "uint256"
        },
        {
          "indexed": true,
          "internalType": "address",
          "name": "recipient",
          "type": "address"
        },
        {
          "indexed": false,
          "internalType": "uint256",
          "name": "amount",
          "type": "uint256"
        }
      ],
      "name": "RoyaltyRecorded",
      "type": "event"
    },
    {
      "inputs": [
        {
          "internalType": "uint256",
          "name": "assetId",
          "type": "uint256"
        },
        {
          "internalType": "address",
          "name": "creator",
          "type": "address"
        },
        {
          "internalType": "string",
          "name": "description",
          "type": "string"
        }
      ],
      "name": "addProvenanceRecord",
      "outputs": [],
      "stateMutability": "nonpayable",
      "type": "function"
    },
    {
      "inputs": [
        {
          "internalType": "uint256",
          "name": "assetId",
          "type": "uint256"
        },
        {
          "internalType": "address",
          "name": "recipient",
          "type": "address"
        },
        {
          "internalType": "uint256",
          "name": "amount",
          "type": "uint256"
        }
      ],
      "name": "distributeRoyalty",
      "outputs": [],
      "stateMutability": "nonpayable",
      "type": "function"
    },
    {
      "inputs": [
        {
          "internalType": "uint256",
          "name": "assetId",
          "type": "uint256"
        }
      ],
      "name": "getProvenance",
      "outputs": [
        {
          "internalType": "address[]",
          "name": "creators",
          "type": "address[]"
        },
        {
          "internalType": "uint256[]",
          "name": "timestamps",
          "type": "uint256[]"
        },
        {
          "internalType": "string[]",
          "name": "descriptions",
          "type": "string[]"
        }
      ],
      "stateMutability": "view",
      "type": "function"
    },
    {
      "inputs": [
        {
          "internalType": "uint256",
          "name": "assetId",
          "type": "uint256"
        }
      ],
      "name": "getUsageRights",
      "outputs": [
        {
          "internalType": "string",
          "name": "licenseType",
          "type": "string"
        },
        {
          "internalType": "string",
          "name": "licenseURI",
          "type": "string"
        }
      ],
      "stateMutability": "view",
      "type": "function"
    },
    {
      "inputs": [],
      "name": "owner",
      "outputs": [
        {
          "internalType": "address",
          "name": "",
          "type": "address"
        }
      ],
      "stateMutability": "view",
      "type": "function"
    },
    {
      "inputs": [
        {
          "internalType": "uint256",
          "name": "assetId",
          "type": "uint256"
        },
        {
          "internalType": "address",
          "name": "recipient",
          "type": "address"
        },
        {
          "internalType": "uint256",
          "name": "amount",
          "type": "uint256"
        }
      ],
      "name": "recordRoyaltyPayment",
      "outputs": [],
      "stateMutability": "nonpayable",
      "type": "function"
    },
    {
      "inputs": [
        {
          "internalType": "uint256",
          "name": "assetId",
          "type": "uint256"
        },
        {
          "internalType": "address",
          "name": "creator",
          "type": "address"
        }
      ],
      "name": "registerAsset",
      "outputs": [],
      "stateMutability": "nonpayable",
      "type": "function"
    },
    {
      "inputs": [],
      "name": "renounceOwnership",
      "outputs": [],
      "stateMutability": "nonpayable",
      "type": "function"
    },
    {
      "inputs": [
        {
          "internalType": "uint256",
          "name": "assetId",
          "type": "uint256"
        },
        {
          "internalType": "string",
          "name": "licenseType",
          "type": "string"
        },
        {
          "internalType": "string",
          "name": "licenseURI",
          "type": "string"
        }
      ],
      "name": "setLicense",
      "outputs": [],
      "stateMutability": "nonpayable",
      "type": "function"
    },
    {
      "inputs": [
        {
          "internalType": "address",
          "name": "newOwner",
          "type": "address"
        }
      ],
      "name": "transferOwnership",
      "outputs": [],
      "stateMutability": "nonpayable",
      "type": "function"
    },
    {
      "inputs": [
        {
          "internalType": "uint256",
          "name": "assetId",
          "type": "uint256"
        },
        {
          "internalType": "address",
          "name": "claimedOwner",
          "type": "address"
        }
      ],
      "name": "verifyOwnership",
      "outputs": [
        {
          "internalType": "bool",
          "name": "isOwner",
          "type": "bool"
        }
      ],
      "stateMutability": "view",
      "type": "function"
    }
  ],
  "bytecode": "0x6080806040523461005b5760008054336001600160a01b0319821681178355916001600160a01b03909116907f8be0079c531659141344cd1fd0a4f28419497f9722a3daafe3b4186f6b6457e09080a361174690816100618239f35b600080fdfe608080604052600436101561001357600080fd5b60003560e01c90816309cc449d146112de575080634e046276146112ad57806360f1233d146110ae578063715018a614611055578063757c6ad614610fd357806376156249146108ba5780638da5cb5b1461089157806393004916146107fa5780639ccb1426146103e8578063b71989c0146101635763f2fde38b1461009857600080fd5b3461015e57602036600319011261015e576004356001600160a01b038181169182900361015e576100c7611466565b811561010a57600054826001600160601b0360a01b821617600055167f8be0079c531659141344cd1fd0a4f28419497f9722a3daafe3b4186f6b6457e0600080a3005b60405162461bcd60e51b815260206004820152602660248201527f4f776e61626c653a206e6577206f776e657220697320746865207a65726f206160448201526564647265737360d01b6064820152608490fd5b600080fd5b3461015e57606036600319011261015e576004356001600160401b0360243581811161015e57610197903690600401611410565b9060443581811161015e576101b0903690600401611410565b916101b9611466565b836000526001926020948486526101da60ff600260406000200154166115b4565b806000528486526003604060002001835185811161033557806101fd83546114be565b95601f968a8882116103b9575b505089908783116001146103565760009261034b575b5050600019600383901b1c191690871b1790555b60005283855260046040600020019481519384116103355761025686546114be565b8381116102fd575b508092841160011461029a575092829391839260009461028f575b50501b916000199060031b1c1916179055600080f35b015192508580610279565b919083601f1981168760005284600020946000905b888383106102e357505050106102ca575b505050811b019055005b015160001960f88460031b161c191690558380806102c0565b8587015188559096019594850194879350908101906102af565b6103269087600052826000208580880160051c82019285891061032c575b0160051c01906114f8565b8661025e565b9250819261031b565b634e487b7160e01b600052604160045260246000fd5b015190508980610220565b90899350601f19831691856000528b6000209260005b8d8282106103a3575050841161038a575b505050811b019055610234565b015160001960f88460031b161c1916905589808061037d565b8385015186558d9790950194938401930161036c565b6103e1918660005289826000209181870160051c830193871061032c570160051c01906114f8565b8a8a61020a565b3461015e5760608060031936011261015e57600435610405611339565b906001600160401b0360443581811161015e57610426903690600401611410565b9161042f611466565b8060005260019360209185835261045060ff600260406000200154166115b4565b60005260028252604060002093845496868801918289116107d5576104a89861047884611526565b9761048285611526565b9361048c8661150f565b9561049a60405197886113ef565b808752601f199c8d9161150f565b01908860005b8381106107eb57505050506000958a82019360028301975b84811061075a57506104d8848c61157b565b6001600160a01b039283169052426104f0858861157b565b526104fb848861157b565b52610506838761157b565b5089519289841161033557600160401b9a8b85116103355761052d858b938187558661158f565b019160005287600020908b60005b858110610746575050505050508151918683116103355787831161033557859061056a8484548186558561158f565b0190600052846000208860005b848110610734575050505050805194851161033557829082548684558087106106b7575b506000928352838320929491015b8585106105b257005b805190815183811161033557889186916105cc87546114be565b94601f9586811161067f575b508395821160011461061b5784958291600092610610575b5050600019600383901b1c191690841b1786555b019301940193916105a9565b015190508d806105f0565b948c82169088600052846000209160005b818110610668575090869784889594931061064f575b505050811b018655610604565b015160001960f88460031b161c191690558d8080610642565b8289015184558e978c97940193928301920161062c565b6106a8908960005285600020600589808701821c8301938988106106ae575b01901c01906114f8565b8d6105d8565b9350829361069e565b8360005287878460002092830192015b8281106106d557505061059b565b90919293506106e481546114be565b806106f6575b500190878593926106c7565b601f90818111600114610710575050600081555b8a6106ea565b61072b600092848452898420920160051c82018583016114f8565b8183555561070a565b87845194019381840155018990610577565b8a8386511695019481850155018c9061053b565b808c61078161076983886116f8565b905460039491851b1c6001600160a01b03169261157b565b5261078c82886116f8565b9054911b1c61079b828961157b565b526107af6107a9828b6116f8565b50611654565b6107b9828a61157b565b526107c4818961157b565b5060001981146107d5578c016104c6565b634e487b7160e01b600052601160045260246000fd5b8282828b0101520189906104ae565b3461015e577f4314ed5e3b3ab77189ea61c2957555c2b9cb9e6ae69d32348e9ecf727479aa67602061082b3661134f565b8260009593949295526001825261084c60ff600260406000200154166115b4565b83600052600382526108886040600020956040519061086a826113b9565b6001600160a01b0316808252848201849052426040830152966115f7565b604051908152a3005b3461015e57600036600319011261015e576000546040516001600160a01b039091168152602090f35b3461015e57604036600319011261015e576108d3611339565b600435600052600160205260ff60026040600020015416610f8e5760405160a081018181106001600160401b038211176103355760405260018060a01b038216815260208101428152604082016001815260405190610931826113d4565b6013825272105b1b08149a59da1d1cc814995cd95c9d9959606a1b60208301526060840191825260405192602084018481106001600160401b03821117610335576040526000845260808501938452600435600052600160205260406000209460018060a01b039051166001600160601b0360a01b865416178555516001850155600284019051151560ff801983541691161790556003830190518051906001600160401b0382116103355781906109e984546114be565b601f8111610f5c575b50602090601f8311600114610ef657600092610eeb575b50508160011b916000199060031b1c19161790555b518051906001600160401b03821161033557610a3d60048401546114be565b601f8111610eab575b50602090601f8311600114610e3b576004929160009183610e30575b50508160011b916000199060031b1c1916179101555b604051610a84816113d4565b60018152602036818301376001600160a01b038216610aa282611558565b52604051610aaf816113d4565b600181526020368183013742610ac482611558565b5260405190610ad2826113d4565b6001825260005b60208110610e1f5750604051610aee816113d4565b601281527120b9b9b2ba103932b3b4b9ba3930ba34b7b760711b6020820152610b1683611558565b52610b2082611558565b5060405192610b2e846113b9565b8352602083015260408201526004356000526002602052604060002081518051906001600160401b03821161033557600160401b821161033557602090610b7a8385548187558661158f565b0182600052602060002060005b838110610e025750505050600181016020830151908151916001600160401b03831161033557600160401b831161033557602090610bca8484548186558561158f565b0190600052602060002060005b838110610dee578686604060028801910151805190600160401b8211610335578254828455808310610d7a575b50602001916000526020600020916000905b828210610c5a576040514281526001600160a01b03861690600435907fac3dcdc20bb35a0f2b39fb2ddbe12a30d20c4795d2026bf2fc48df3ce84ca67d90602090a3005b80518051906001600160401b03821161033557610c7786546114be565b601f8111610d3d575b50602090601f8311600114610ccd579282600194936020938695600092610cc2575b5050600019600383901b1c191690841b1787555b01940191019092610c16565b015190508a80610ca2565b908660005260206000209160005b601f1985168110610d25575083602093600196938796938794601f19811610610d0c575b505050811b018755610cb6565b015160001960f88460031b161c191690558a8080610cff565b91926020600181928685015181550194019201610cdb565b610d6a908760005260206000206005601f8601811c82019260208710610d70575b601f01901c01906114f8565b87610c80565b9192508291610d5e565b8360005282602060002091820191015b818110610d975750610c04565b80610da4600192546114be565b80610db1575b5001610d8a565b601f81118314610dc75750600081555b87610daa565b600090828252610de5601f60208420920160051c82018583016114f8565b81835555610dc1565b600190602084519401938184015501610bd7565b82516001600160a01b031681830155602090920191600101610b87565b806060602080938601015201610ad9565b015190508580610a62565b906004840160005260206000209160005b601f1985168110610e935750918391600193600495601f19811610610e7a575b505050811b01910155610a78565b015160001960f88460031b161c19169055858080610e6c565b91926020600181928685015181550194019201610e4c565b610edb90600485016000526020600020601f850160051c81019160208610610ee1575b601f0160051c01906114f8565b84610a46565b9091508190610ece565b015190508680610a09565b6000858152602081209350601f198516905b818110610f445750908460019594939210610f2b575b505050811b019055610a1e565b015160001960f88460031b161c19169055868080610f1e565b92936020600181928786015181550195019301610f08565b610f8890856000526020600020601f850160051c81019160208610610ee157601f0160051c01906114f8565b876109f2565b60405162461bcd60e51b815260206004820152601860248201527f417373657420616c7265616479207265676973746572656400000000000000006044820152606490fd5b3461015e57602036600319011261015e5760043580600052600160205261100460ff600260406000200154166115b4565b6000526001602052611043604060002061105161102f600461102860038501611654565b9301611654565b604051938493604085526040850190611379565b908382036020850152611379565b0390f35b3461015e57600036600319011261015e5761106e611466565b600080546001600160a01b0319811682556001600160a01b03167f8be0079c531659141344cd1fd0a4f28419497f9722a3daafe3b4186f6b6457e08280a3005b3461015e5760208060031936011261015e57600435806000526001908183526110e160ff600260406000200154166115b4565b60005260028252604060002090808201600283019360405193848282549182815201908192600052836000209060005b81811061129157505050856111279103866113ef565b60405190818385549182815201908195600052846000209060005b81811061127e57505050826111589103836113ef565b8654916111648361150f565b9261117260405194856113ef565b8084528484018099600052856000206000915b83831061125b5750505050604051966060880190606089525180915260808801929060005b81811061123f575050508682038785015251808252908301939060005b81811061122c575050508483036040860152519081835280830192818360051b82010196936000915b8483106111fd5787890388f35b909192939495848061121a839b601f198682030187528a51611379565b9a9801969594919091019201906111f0565b82518652948401949184019186016111c7565b82516001600160a01b03168552938601939186019188016111aa565b90898089819e9c959461126d85611654565b8152019201920192509a989a611185565b8254845292860192918801918801611142565b82546001600160a01b0316845292850192918701918701611111565b3461015e577fff50aeaf5513a2bfcf5c38af0d681d05e9a00cd91cc42ab2e143549595e5f172602061082b3661134f565b3461015e57604036600319011261015e576020906112fa611339565b6004356000526001835260406000209060ff6002830154169182611321575b505015158152f35b546001600160a01b0391821691161490508380611319565b602435906001600160a01b038216820361015e57565b606090600319011261015e57600435906024356001600160a01b038116810361015e579060443590565b919082519283825260005b8481106113a5575050826000602080949584010152601f8019910116010190565b602081830181015184830182015201611384565b606081019081106001600160401b0382111761033557604052565b604081019081106001600160401b0382111761033557604052565b90601f801991011681019081106001600160401b0382111761033557604052565b81601f8201121561015e578035906001600160401b0382116103355760405192611444601f8401601f1916602001856113ef565b8284526020838301011161015e57816000926020809301838601378301015290565b6000546001600160a01b0316330361147a57565b606460405162461bcd60e51b815260206004820152602060248201527f4f776e61626c653a2063616c6c6572206973206e6f7420746865206f776e65726044820152fd5b90600182811c921680156114ee575b60208310146114d857565b634e487b7160e01b600052602260045260246000fd5b91607f16916114cd565b818110611503575050565b600081556001016114f8565b6001600160401b0381116103355760051b60200190565b906115308261150f565b61153d60405191826113ef565b828152809261154e601f199161150f565b0190602036910137565b8051156115655760200190565b634e487b7160e01b600052603260045260246000fd5b80518210156115655760209160051b010190565b9181811061159c57505050565b6115b292600052602060002091820191016114f8565b565b156115bb57565b60405162461bcd60e51b8152602060048201526014602482015273105cdcd95d08191bd95cc81b9bdd08195e1a5cdd60621b6044820152606490fd5b805490600160401b821015610335576001820180825582101561156557600291604091600052600360206000209102019260018060a01b038151166001600160601b0360a01b855416178455602081015160018501550151910155565b9060405191826000825492611668846114be565b9081845260019485811690816000146116d55750600114611692575b50506115b2925003836113ef565b9093915060005260209081600020936000915b8183106116bd5750506115b293508201013880611684565b855488840185015294850194879450918301916116a5565b9150506115b294506020925060ff191682840152151560051b8201013880611684565b8054821015611565576000526020600020019060009056fea2646970667358221220251938315043a90949077574f54492d60e8935f27aaea2616a39a87d8ea2cd2f64736f6c63430008130033",
  "linkReferences": {},
  "deployedLinkReferences": {}
}