{
  "_format": "hh-sol-artifact-1",
  "contractName": "CitationRegistry",
  "sourceName": "contracts/CitationRegistry.sol",
  "abi": [
    {
      "anonymous": false,
      "inputs": [
        {
          "indexed": true,
          "internalType": "uint256",
          "name": "citationId",
          "type": "uint256"
        },
        {
          "indexed": true,
          "internalType": "uint256",
          "name": "citingPaperId",
          "type": "uint256"
        },
        {
          "indexed": true,
          "internalType": "uint256",
          "name": "citedPaperId",
          "type": "uint256"
        },
        {
          "indexed": false,
          "internalType": "address",
          "name": "citer",
          "type": "address"
        }
      ],
      "name": "CitationRecorded",
      "type": "event"
    },
    {
      "anonymous": false,
      "inputs": [
        {
          "indexed": true,
          "internalType": "address",
          "name": "recorder",
          "type": "address"
        }
      ],
      "name": "CitationRecorderAdded",
      "type": "event"
    },
    {
      "anonymous": false,
      "inputs": [
        {
          "indexed": true,
          "internalType": "address",
          "name": "recorder",
          "type": "address"
        }
      ],
      "name": "CitationRecorderRemoved",
      "type": "event"
    },
    {
      "anonymous": false,
      "inputs": [
        {
          "indexed": true,
          "internalType": "uint256",
          "name": "citationId",
          "type": "uint256"
        },
        {
          "indexed": false,
          "internalType": "address",
          "name": "verifier",
          "type": "address"
        }
      ],
      "name": "CitationVerified",
      "type": "event"
    },
    {
      "anonymous": false,
      "inputs": [
        {
          "indexed": true,
          "internalType": "address",
          "name": "verifier",
          "type": "address"
        }
      ],
      "name": "CitationVerifierAdded",
      "type": "event"
    },
    {
      "anonymous": false,
      "inputs": [
        {
          "indexed": true,
          "internalType": "address",
          "name": "verifier",
          "type": "address"
        }
      ],
      "name": "CitationVerifierRemoved",
      "type": "event"
    },
    {
      "anonymous": false,
      "inputs": [
        {
          "indexed": true,
          "internalType": "address",
          "name": "previousOwner",
          "type": "address"
        },
        {
          "indexed": true,
          "internalType": "address",
          "name": "newOwner",
          "type": "address"
        }
      ],
      "name": "OwnershipTransferred",
      "type": "event"
    },
    {
      "inputs": [
        {
          "internalType": "address",
          "name": "_recorder",
          "type": "address"
        }
      ],
      "name": "addCitationRecorder",
      "outputs": [],
      "stateMutability": "nonpayable",
      "type": "function"
    },
    {
      "inputs": [
        {
          "internalType": "address",
          "name": "_verifier",
          "type": "address"
        }
      ],
      "name": "addCitationVerifier",
      "outputs": [],
      "stateMutability": "nonpayable",
      "type": "function"
    },
    {
      "inputs": [
        {
          "internalType": "address",
          "name": "",
          "type": "address"
        }
      ],
      "name": "citationRecorders",
      "outputs": [
        {
          "internalType": "bool",
          "name": "",
          "type": "bool"
        }
      ],
      "stateMutability": "view",
      "type": "function"
    },
    {
      "inputs": [
        {
          "internalType": "address",
          "name": "",
          "type": "address"
        }
      ],
      "name": "citationVerifiers",
      "outputs": [
        {
          "internalType": "bool",
          "name": "",
          "type": "bool"
        }
      ],
      "stateMutability": "view",
      "type": "function"
    },
    {
      "inputs": [
        {
          "internalType": "uint256",
          "name": "",
          "type": "uint256"
        }
      ],
      "name": "citations",
      "outputs": [
        {
          "internalType": "uint256",
          "name": "citationId",
          "type": "uint256"
        },
        {
          "internalType": "uint256",
          "name": "citingPaperId",
          "type": "uint256"
        },
        {
          "internalType": "uint256",
          "name": "citedPaperId",
          "type": "uint256"
        },
        {
          "internalType": "address",
          "name": "citer",
          "type": "address"
        },
        {
          "internalType": "uint256",
          "name": "timestamp",
          "type": "uint256"
        },
        {
          "internalType": "bool",
          "name": "isVerified",
          "type": "bool"
        }
      ],
      "stateMutability": "view",
      "type": "function"
    },
    {
      "inputs": [
        {
          "internalType": "uint256",
          "name": "_paperId",
          "type": "uint256"
        }
      ],
      "name": "getCitationCount",
      "outputs": [
        {
          "internalType": "uint256",
          "name": "",
          "type": "uint256"
        }
      ],
      "stateMutability": "view",
      "type": "function"
    },
    {
      "inputs": [
        {
          "internalType": "uint256",
          "name": "_citationId",
          "type": "uint256"
        }
      ],
      "name": "getCitationDetails",
      "outputs": [
        {
          "internalType": "uint256",
          "name": "citingPaperId",
          "type": "uint256"
        },
        {
          "internalType": "uint256",
          "name": "citedPaperId",
          "type": "uint256"
        },
        {
          "internalType": "address",
          "name": "citer",
          "type": "address"
        },
        {
          "internalType": "uint256",
          "name": "timestamp",
          "type": "uint256"
        },
        {
          "internalType": "bool",
          "name": "isVerified",
          "type": "bool"
        }
      ],
      "stateMutability": "view",
      "type": "function"
    },
    {
      "inputs": [
        {
          "internalType": "uint256",
          "name": "_paperId",
          "type": "uint256"
        }
      ],
      "name": "getCitations",
      "outputs": [
        {
          "internalType": "uint256[]",
          "name": "",
          "type": "uint256[]"
        }
      ],
      "stateMutability": "view",
      "type": "function"
    },
    {
      "inputs": [
        {
          "internalType": "uint256",
          "name": "_paperId",
          "type": "uint256"
        }
      ],
      "name": "getCitedPapers",
      "outputs": [
        {
          "internalType": "uint256[]",
          "name": "",
          "type": "uint256[]"
        }
      ],
      "stateMutability": "view",
      "type": "function"
    },
    {
      "inputs": [
        {
          "internalType": "uint256",
          "name": "_paperId",
          "type": "uint256"
        }
      ],
      "name": "getVerifiedCitationCount",
      "outputs": [
        {
          "internalType": "uint256",
          "name": "",
          "type": "uint256"
        }
      ],
      "stateMutability": "view",
      "type": "function"
    },
    {
      "inputs": [],
      "name": "owner",
      "outputs": [
        {
          "internalType": "address",
          "name": "",
          "type": "address"
        }
      ],
      "stateMutability": "view",
      "type": "function"
    },
    {
      "inputs": [
        {
          "internalType": "uint256",
          "name": "_citingPaperId",
          "type": "uint256"
        },
        {
          "internalType": "uint256",
          "name": "_citedPaperId",
          "type": "uint256"
        },
        {
          "internalType": "address",
          "name": "_citer",
          "type": "address"
        }
      ],
      "name": "recordCitation",
      "outputs": [
        {
          "internalType": "uint256",
          "name": "",
          "type": "uint256"
        }
      ],
      "stateMutability": "nonpayable",
      "type": "function"
    },
    {
      "inputs": [
        {
          "internalType": "address",
          "name": "_recorder",
          "type": "address"
        }
      ],
      "name": "removeCitationRecorder",
      "outputs": [],
      "stateMutability": "nonpayable",
      "type": "function"
    },
    {
      "inputs": [
        {
          "internalType": "address",
          "name": "_verifier",
          "type": "address"
        }
      ],
      "name": "removeCitationVerifier",
      "outputs": [],
      "stateMutability": "nonpayable",
      "type": "function"
    },
    {
      "inputs": [],
      "name": "renounceOwnership",
      "outputs": [],
      "stateMutability": "nonpayable",
      "type": "function"
    },
    {
      "inputs": [
        {
          "internalType": "address",
          "name": "newOwner",
          "type": "address"
        }
      ],
      "name": "transferOwnership",
      "outputs": [],
      "stateMutability": "nonpayable",
      "type": "function"
    },
    {
      "inputs": [
        {
          "internalType": "uint256",
          "name": "_citationId",
          "type": "uint256"
        }
      ],
      "name": "verifyCitation",
      "outputs": [],
      "stateMutability": "nonpayable",
      "type": "function"
    }
  ],
  "bytecode": "0x608080604052346100605760008054336001600160a01b0319821681178355916001600160a01b03909116907f8be0079c531659141344cd1fd0a4f28419497f9722a3daafe3b4186f6b6457e09080a36001600455610dd490816100668239f35b600080fdfe6040608081526004908136101561001557600080fd5b6000803560e01c806302a5aca214610ade5780631c2f910814610a1e5780634c4c9aa5146109f65780635a4058ae14610991578063715018a61461093757806374f96b62146108c45780637726a49c146106f257806378f1c433146106b4578063804bbcbd146105f45780638da5cb5b146105cc5780638e6794ad1461050157806392b264b0146104c3578063a8ec662314610377578063dec4ab19146102ba578063ec8c97851461024f578063f2fde38b146101885763f99d4610146100db57600080fd5b3461018557602036600319011261018557828260a094928593358015158061017b575b61010790610d14565b81526001602052209083519361011c85610c7c565b82548552600183015494856020820152600284015490818382015260ff6005600180891b036003880154169586606085015287015496876080850152015416151595869101528151958652602086015284015260608301526080820152f35b50835481106100fe565b80fd5b50913461024b57602036600319011261024b576101a3610ba9565b906101ac610bff565b6001600160a01b039182169283156101f957505082546001600160a01b0319811683178455167f8be0079c531659141344cd1fd0a4f28419497f9722a3daafe3b4186f6b6457e08380a380f35b906020608492519162461bcd60e51b8352820152602660248201527f4f776e61626c653a206e6577206f776e657220697320746865207a65726f206160448201526564647265737360d01b6064820152fd5b8280fd5b5091903461024b57602036600319011261024b578060c0938335815260016020522080549260018201549260028301549060ff600560018060a01b036003870154169486015495015416948151968752602087015285015260608401526080830152151560a0820152f35b508234610373576020928360031936011261024b57829135835260028452808320908051808387829554938481520190875287872092875b8982821061035d5750505061030992500383610cae565b835b82518110156103545760ff60058783821b8601015187526001885283872001541661033f575b61033a90610c57565b61030b565b9261034c61033a91610c57565b939050610331565b85848351908152f35b85548452600195860195889550930192016102f2565b5080fd5b5091903461024b57602090816003193601126104bf578235923385526006835260ff828620541680156104ac575b156104605783151580610456575b6103bc90610d14565b8385526001835260ff60058387200154166104155750907f8ae689ea97b8ef32dc4a1e935b66cec616f277c31a495f056e57f23d0c6572019183855260018252600581862001600160ff1982541617905551338152a280f35b82606492519162461bcd60e51b8352820152601960248201527f4369746174696f6e20616c7265616479207665726966696564000000000000006044820152fd5b50805484106103b3565b82608492519162461bcd60e51b8352820152602260248201527f4e6f7420617574686f72697a656420746f20766572696679206369746174696f6044820152616e7360f01b6064820152fd5b5084546001600160a01b031633146103a5565b8380fd5b5090346103735760203660031901126103735760209160ff9082906001600160a01b036104ee610ba9565b1681526006855220541690519015158152f35b5091903461024b57602036600319011261024b5761051d610ba9565b610525610bff565b6001600160a01b03169161053a831515610d60565b828452600560205260ff828520541661058a575081835260056020528220805460ff191660011790557fce91130717d2a8df12b4279ebfdbadfc119332f4b2dad166673eaac23163b4c78280a280f35b6020606492519162461bcd60e51b8352820152601b60248201527f416c72656164792061206369746174696f6e207265636f7264657200000000006044820152fd5b509034610373578160031936011261037357905490516001600160a01b039091168152602090f35b5091903461024b57602036600319011261024b57610610610ba9565b610618610bff565b6001600160a01b031680845260056020528184205490929060ff1615610672575081835260056020528220805460ff191690557f8fc3ade6a918ca9880506f6998a286215d1946aabe40d0fce810c2a0b1ee52578280a280f35b6020606492519162461bcd60e51b8352820152601760248201527f4e6f742061206369746174696f6e207265636f726465720000000000000000006044820152fd5b5090346103735760203660031901126103735760209160ff9082906001600160a01b036106df610ba9565b1681526005855220541690519015158152f35b5091903461024b57606036600319011261024b576001600160a01b0392602435908335906044358681169190829003610185573381526020966005885260ff868320541680156108b8575b1561086a5784841461083457839261082886887f870f17befc354cab17771c5ac0af215a17a4f556fd773f94b10fcfe68d3c10f5958c600581978e549e8f9b8c9761078789610c57565b835587519361079585610c7c565b89855286850192835288850191825260608501918c83526080860193428552600160a08801998b8b528d8c52528a8a2096518755516001870155516002860155600385019151166bffffffffffffffffffffffff60a01b8254161790555190820155019051151560ff801983541691161790558981526002865261081b83838320610cd0565b8881526003865220610cd0565b8651908152a451908152f35b855162461bcd60e51b8152808801899052601060248201526f21b0b73737ba1031b4ba329039b2b63360811b6044820152606490fd5b855162461bcd60e51b8152808801899052602260248201527f4e6f7420617574686f72697a656420746f207265636f7264206369746174696f6044820152616e7360f01b6064820152608490fd5b5080825416331461073d565b5091903461024b57602091826003193601126104bf57358352600282528083209281518093808654928381520195835280832092905b8282106109205761091c8686610912828b0383610cae565b5191829182610bc4565b0390f35b8354875295860195600193840193909101906108fa565b5034610185578060031936011261018557610950610bff565b80546001600160a01b03198116825581906001600160a01b03167f8be0079c531659141344cd1fd0a4f28419497f9722a3daafe3b4186f6b6457e08280a380f35b5091903461024b57602091826003193601126104bf57358352600382528083209281518093808654928381520195835280832092905b8282106109df5761091c8686610912828b0383610cae565b8354875295860195600193840193909101906109c7565b50913461024b57602036600319011261024b5760209282913581526002845220549051908152f35b5091903461024b57602036600319011261024b57610a3a610ba9565b610a42610bff565b6001600160a01b031680845260066020528184205490929060ff1615610a9c575081835260066020528220805460ff191690557fcb9adcde23e9e0379dd946a07e79bacedc5eef898695f8c267357d6427cfbcc58280a280f35b6020606492519162461bcd60e51b8352820152601760248201527f4e6f742061206369746174696f6e2076657269666965720000000000000000006044820152fd5b5091903461024b57602036600319011261024b57610afa610ba9565b610b02610bff565b6001600160a01b031691610b17831515610d60565b828452600660205260ff8285205416610b67575081835260066020528220805460ff191660011790557fbe3658ce05b41c0ea73bd2ed0ae768bf233818f6be3d2684f86865028d5f865f8280a280f35b6020606492519162461bcd60e51b8352820152601b60248201527f416c72656164792061206369746174696f6e20766572696669657200000000006044820152fd5b600435906001600160a01b0382168203610bbf57565b600080fd5b6020908160408183019282815285518094520193019160005b828110610beb575050505090565b835185529381019392810192600101610bdd565b6000546001600160a01b03163303610c1357565b606460405162461bcd60e51b815260206004820152602060248201527f4f776e61626c653a2063616c6c6572206973206e6f7420746865206f776e65726044820152fd5b6000198114610c665760010190565b634e487b7160e01b600052601160045260246000fd5b60c0810190811067ffffffffffffffff821117610c9857604052565b634e487b7160e01b600052604160045260246000fd5b90601f8019910116810190811067ffffffffffffffff821117610c9857604052565b80549068010000000000000000821015610c985760018201808255821015610cfe5760005260206000200155565b634e487b7160e01b600052603260045260246000fd5b15610d1b57565b60405162461bcd60e51b815260206004820152601760248201527f4369746174696f6e20646f6573206e6f742065786973740000000000000000006044820152606490fd5b15610d6757565b60405162461bcd60e51b815260206004820152600f60248201526e496e76616c6964206164647265737360881b6044820152606490fdfea2646970667358221220d80bcf77e8cf24ab2cb40d8d9b89d8fca4cd8963a78848bbacf2f6c842a975b264736f6c63430008130033",
  "linkReferences": {},
  "deployedLinkReferences": {}
}